{
	"contracts/lottery.sol": {
		"Lottery": {
			"abi": [
				{
					"inputs": [
						{
							"internalType": "uint256",
							"name": "_initialTicketPrice",
							"type": "uint256"
						},
						{
							"internalType": "uint256",
							"name": "_initialWinningPool",
							"type": "uint256"
						},
						{
							"internalType": "uint256",
							"name": "_playerThreshold",
							"type": "uint256"
						}
					],
					"stateMutability": "nonpayable",
					"type": "constructor"
				},
				{
					"inputs": [
						{
							"internalType": "address",
							"name": "owner",
							"type": "address"
						}
					],
					"name": "OwnableInvalidOwner",
					"type": "error"
				},
				{
					"inputs": [
						{
							"internalType": "address",
							"name": "account",
							"type": "address"
						}
					],
					"name": "OwnableUnauthorizedAccount",
					"type": "error"
				},
				{
					"anonymous": false,
					"inputs": [
						{
							"indexed": false,
							"internalType": "uint256",
							"name": "newLotteryId",
							"type": "uint256"
						}
					],
					"name": "LotteryReset",
					"type": "event"
				},
				{
					"anonymous": false,
					"inputs": [
						{
							"indexed": true,
							"internalType": "address",
							"name": "previousOwner",
							"type": "address"
						},
						{
							"indexed": true,
							"internalType": "address",
							"name": "newOwner",
							"type": "address"
						}
					],
					"name": "OwnershipTransferred",
					"type": "event"
				},
				{
					"anonymous": false,
					"inputs": [
						{
							"indexed": true,
							"internalType": "address",
							"name": "player",
							"type": "address"
						},
						{
							"indexed": false,
							"internalType": "uint256",
							"name": "lotteryId",
							"type": "uint256"
						},
						{
							"indexed": false,
							"internalType": "uint256",
							"name": "amount",
							"type": "uint256"
						}
					],
					"name": "TicketBought",
					"type": "event"
				},
				{
					"anonymous": false,
					"inputs": [
						{
							"indexed": true,
							"internalType": "address",
							"name": "winner",
							"type": "address"
						},
						{
							"indexed": false,
							"internalType": "uint256",
							"name": "winningAmount",
							"type": "uint256"
						},
						{
							"indexed": false,
							"internalType": "uint256",
							"name": "lotteryId",
							"type": "uint256"
						}
					],
					"name": "WinnerDrawn",
					"type": "event"
				},
				{
					"inputs": [],
					"name": "JACKPOT_CUT_PERCENTAGE",
					"outputs": [
						{
							"internalType": "uint256",
							"name": "",
							"type": "uint256"
						}
					],
					"stateMutability": "view",
					"type": "function"
				},
				{
					"inputs": [],
					"name": "OWNER_CUT_PERCENTAGE",
					"outputs": [
						{
							"internalType": "uint256",
							"name": "",
							"type": "uint256"
						}
					],
					"stateMutability": "view",
					"type": "function"
				},
				{
					"inputs": [],
					"name": "buyTicket",
					"outputs": [],
					"stateMutability": "payable",
					"type": "function"
				},
				{
					"inputs": [],
					"name": "currentWinningPool",
					"outputs": [
						{
							"internalType": "uint256",
							"name": "",
							"type": "uint256"
						}
					],
					"stateMutability": "view",
					"type": "function"
				},
				{
					"inputs": [],
					"name": "getPlayersCount",
					"outputs": [
						{
							"internalType": "uint256",
							"name": "",
							"type": "uint256"
						}
					],
					"stateMutability": "view",
					"type": "function"
				},
				{
					"inputs": [],
					"name": "initialTicketPrice",
					"outputs": [
						{
							"internalType": "uint256",
							"name": "",
							"type": "uint256"
						}
					],
					"stateMutability": "view",
					"type": "function"
				},
				{
					"inputs": [],
					"name": "lotteryId",
					"outputs": [
						{
							"internalType": "uint256",
							"name": "",
							"type": "uint256"
						}
					],
					"stateMutability": "view",
					"type": "function"
				},
				{
					"inputs": [],
					"name": "owner",
					"outputs": [
						{
							"internalType": "address",
							"name": "",
							"type": "address"
						}
					],
					"stateMutability": "view",
					"type": "function"
				},
				{
					"inputs": [],
					"name": "playerThreshold",
					"outputs": [
						{
							"internalType": "uint256",
							"name": "",
							"type": "uint256"
						}
					],
					"stateMutability": "view",
					"type": "function"
				},
				{
					"inputs": [
						{
							"internalType": "uint256",
							"name": "",
							"type": "uint256"
						}
					],
					"name": "players",
					"outputs": [
						{
							"internalType": "address",
							"name": "",
							"type": "address"
						}
					],
					"stateMutability": "view",
					"type": "function"
				},
				{
					"inputs": [],
					"name": "renounceOwnership",
					"outputs": [],
					"stateMutability": "nonpayable",
					"type": "function"
				},
				{
					"inputs": [],
					"name": "ticketPrice",
					"outputs": [
						{
							"internalType": "uint256",
							"name": "",
							"type": "uint256"
						}
					],
					"stateMutability": "view",
					"type": "function"
				},
				{
					"inputs": [
						{
							"internalType": "address",
							"name": "newOwner",
							"type": "address"
						}
					],
					"name": "transferOwnership",
					"outputs": [],
					"stateMutability": "nonpayable",
					"type": "function"
				},
				{
					"inputs": [],
					"name": "winner",
					"outputs": [
						{
							"internalType": "address",
							"name": "",
							"type": "address"
						}
					],
					"stateMutability": "view",
					"type": "function"
				}
			],
			"devdoc": {
				"errors": {
					"OwnableInvalidOwner(address)": [
						{
							"details": "The owner is not a valid owner account. (eg. `address(0)`)"
						}
					],
					"OwnableUnauthorizedAccount(address)": [
						{
							"details": "The caller account is not authorized to perform an operation."
						}
					]
				},
				"kind": "dev",
				"methods": {
					"owner()": {
						"details": "Returns the address of the current owner."
					},
					"renounceOwnership()": {
						"details": "Leaves the contract without owner. It will not be possible to call `onlyOwner` functions. Can only be called by the current owner. NOTE: Renouncing ownership will leave the contract without an owner, thereby disabling any functionality that is only available to the owner."
					},
					"transferOwnership(address)": {
						"details": "Transfers ownership of the contract to a new account (`newOwner`). Can only be called by the current owner."
					}
				},
				"version": 1
			},
			"evm": {
				"assembly": "    /* \"contracts/lottery.sol\":150:4410  contract Lottery is Ownable {... */\n  mstore(0x40, 0x80)\n    /* \"contracts/lottery.sol\":867:868  1 */\n  0x01\n    /* \"contracts/lottery.sol\":840:868  uint256 public lotteryId = 1 */\n  0x05\n  sstore\n    /* \"contracts/lottery.sol\":1445:2053  constructor(uint256 _initialTicketPrice, uint256 _initialWinningPool, uint256 _playerThreshold) Ownable(msg.sender) {... */\n  callvalue\n  dup1\n  iszero\n  tag_1\n  jumpi\n  revert(0x00, 0x00)\ntag_1:\n  pop\n  mload(0x40)\n  sub(codesize, bytecodeSize)\n  dup1\n  bytecodeSize\n  dup4\n  codecopy\n  dup2\n  dup2\n  add\n  0x40\n  mstore\n  dup2\n  add\n  swap1\n  tag_2\n  swap2\n  swap1\n  tag_3\n  jump\t// in\ntag_2:\n    /* \"contracts/lottery.sol\":1549:1559  msg.sender */\n  caller\n    /* \"@openzeppelin/contracts/access/Ownable.sol\":1297:1298  0 */\n  0x00\n    /* \"@openzeppelin/contracts/access/Ownable.sol\":1273:1299  initialOwner == address(0) */\n  0xffffffffffffffffffffffffffffffffffffffff\n  and\n    /* \"@openzeppelin/contracts/access/Ownable.sol\":1273:1285  initialOwner */\n  dup2\n    /* \"@openzeppelin/contracts/access/Ownable.sol\":1273:1299  initialOwner == address(0) */\n  0xffffffffffffffffffffffffffffffffffffffff\n  and\n  sub\n    /* \"@openzeppelin/contracts/access/Ownable.sol\":1269:1364  if (initialOwner == address(0)) {... */\n  tag_7\n  jumpi\n    /* \"@openzeppelin/contracts/access/Ownable.sol\":1350:1351  0 */\n  0x00\n    /* \"@openzeppelin/contracts/access/Ownable.sol\":1322:1353  OwnableInvalidOwner(address(0)) */\n  mload(0x40)\n  0x1e4fbdf700000000000000000000000000000000000000000000000000000000\n  dup2\n  mstore\n  0x04\n  add\n  tag_8\n  swap2\n  swap1\n  tag_9\n  jump\t// in\ntag_8:\n  mload(0x40)\n  dup1\n  swap2\n  sub\n  swap1\n  revert\n    /* \"@openzeppelin/contracts/access/Ownable.sol\":1269:1364  if (initialOwner == address(0)) {... */\ntag_7:\n    /* \"@openzeppelin/contracts/access/Ownable.sol\":1373:1405  _transferOwnership(initialOwner) */\n  tag_10\n    /* \"@openzeppelin/contracts/access/Ownable.sol\":1392:1404  initialOwner */\n  dup2\n    /* \"@openzeppelin/contracts/access/Ownable.sol\":1373:1391  _transferOwnership */\n  shl(0x20, tag_11)\n    /* \"@openzeppelin/contracts/access/Ownable.sol\":1373:1405  _transferOwnership(initialOwner) */\n  0x20\n  shr\n  jump\t// in\ntag_10:\n    /* \"@openzeppelin/contracts/access/Ownable.sol\":1225:1412  constructor(address initialOwner) {... */\n  pop\n    /* \"contracts/lottery.sol\":1601:1602  0 */\n  0x00\n    /* \"contracts/lottery.sol\":1579:1598  _initialTicketPrice */\n  dup4\n    /* \"contracts/lottery.sol\":1579:1602  _initialTicketPrice > 0 */\n  gt\n    /* \"contracts/lottery.sol\":1571:1642  require(_initialTicketPrice > 0, \"Ticket price must be greater than 0\") */\n  tag_13\n  jumpi\n  mload(0x40)\n  0x08c379a000000000000000000000000000000000000000000000000000000000\n  dup2\n  mstore\n  0x04\n  add\n  tag_14\n  swap1\n  tag_15\n  jump\t// in\ntag_14:\n  mload(0x40)\n  dup1\n  swap2\n  sub\n  swap1\n  revert\ntag_13:\n    /* \"contracts/lottery.sol\":1679:1680  0 */\n  0x00\n    /* \"contracts/lottery.sol\":1660:1676  _playerThreshold */\n  dup2\n    /* \"contracts/lottery.sol\":1660:1680  _playerThreshold > 0 */\n  gt\n    /* \"contracts/lottery.sol\":1652:1724  require(_playerThreshold > 0, \"Player threshold must be greater than 0\") */\n  tag_16\n  jumpi\n  mload(0x40)\n  0x08c379a000000000000000000000000000000000000000000000000000000000\n  dup2\n  mstore\n  0x04\n  add\n  tag_17\n  swap1\n  tag_18\n  jump\t// in\ntag_17:\n  mload(0x40)\n  dup1\n  swap2\n  sub\n  swap1\n  revert\ntag_16:\n    /* \"contracts/lottery.sol\":1756:1775  _initialTicketPrice */\n  dup3\n    /* \"contracts/lottery.sol\":1735:1753  initialTicketPrice */\n  0x01\n    /* \"contracts/lottery.sol\":1735:1775  initialTicketPrice = _initialTicketPrice */\n  dup2\n  swap1\n  sstore\n  pop\n    /* \"contracts/lottery.sol\":1803:1819  _playerThreshold */\n  dup1\n    /* \"contracts/lottery.sol\":1785:1800  playerThreshold */\n  0x04\n    /* \"contracts/lottery.sol\":1785:1819  playerThreshold = _playerThreshold */\n  dup2\n  swap1\n  sstore\n  pop\n    /* \"contracts/lottery.sol\":1850:1869  _initialWinningPool */\n  dup2\n    /* \"contracts/lottery.sol\":1829:1847  currentWinningPool */\n  0x03\n    /* \"contracts/lottery.sol\":1829:1869  currentWinningPool = _initialWinningPool */\n  dup2\n  swap1\n  sstore\n  pop\n    /* \"contracts/lottery.sol\":2043:2046  100 */\n  0x64\n    /* \"contracts/lottery.sol\":579:581  20 */\n  0x14\n    /* \"contracts/lottery.sol\":1996:2014  initialTicketPrice */\n  sload(0x01)\n    /* \"contracts/lottery.sol\":1996:2039  initialTicketPrice * JACKPOT_CUT_PERCENTAGE */\n  tag_19\n  swap2\n  swap1\n  tag_20\n  jump\t// in\ntag_19:\n    /* \"contracts/lottery.sol\":1995:2046  (initialTicketPrice * JACKPOT_CUT_PERCENTAGE) / 100 */\n  tag_21\n  swap2\n  swap1\n  tag_22\n  jump\t// in\ntag_21:\n    /* \"contracts/lottery.sol\":1974:1992  initialTicketPrice */\n  sload(0x01)\n    /* \"contracts/lottery.sol\":1974:2046  initialTicketPrice + (initialTicketPrice * JACKPOT_CUT_PERCENTAGE) / 100 */\n  tag_23\n  swap2\n  swap1\n  tag_24\n  jump\t// in\ntag_23:\n    /* \"contracts/lottery.sol\":1960:1971  ticketPrice */\n  0x02\n    /* \"contracts/lottery.sol\":1960:2046  ticketPrice = initialTicketPrice + (initialTicketPrice * JACKPOT_CUT_PERCENTAGE) / 100 */\n  dup2\n  swap1\n  sstore\n  pop\n    /* \"contracts/lottery.sol\":1445:2053  constructor(uint256 _initialTicketPrice, uint256 _initialWinningPool, uint256 _playerThreshold) Ownable(msg.sender) {... */\n  pop\n  pop\n  pop\n    /* \"contracts/lottery.sol\":150:4410  contract Lottery is Ownable {... */\n  jump(tag_25)\n    /* \"@openzeppelin/contracts/access/Ownable.sol\":2912:3099  function _transferOwnership(address newOwner) internal virtual {... */\ntag_11:\n    /* \"@openzeppelin/contracts/access/Ownable.sol\":2985:3001  address oldOwner */\n  0x00\n    /* \"@openzeppelin/contracts/access/Ownable.sol\":3004:3010  _owner */\n  0x00\n  0x00\n  swap1\n  sload\n  swap1\n  0x0100\n  exp\n  swap1\n  div\n  0xffffffffffffffffffffffffffffffffffffffff\n  and\n    /* \"@openzeppelin/contracts/access/Ownable.sol\":2985:3010  address oldOwner = _owner */\n  swap1\n  pop\n    /* \"@openzeppelin/contracts/access/Ownable.sol\":3029:3037  newOwner */\n  dup2\n    /* \"@openzeppelin/contracts/access/Ownable.sol\":3020:3026  _owner */\n  0x00\n  0x00\n    /* \"@openzeppelin/contracts/access/Ownable.sol\":3020:3037  _owner = newOwner */\n  0x0100\n  exp\n  dup2\n  sload\n  dup2\n  0xffffffffffffffffffffffffffffffffffffffff\n  mul\n  not\n  and\n  swap1\n  dup4\n  0xffffffffffffffffffffffffffffffffffffffff\n  and\n  mul\n  or\n  swap1\n  sstore\n  pop\n    /* \"@openzeppelin/contracts/access/Ownable.sol\":3083:3091  newOwner */\n  dup2\n    /* \"@openzeppelin/contracts/access/Ownable.sol\":3052:3092  OwnershipTransferred(oldOwner, newOwner) */\n  0xffffffffffffffffffffffffffffffffffffffff\n  and\n    /* \"@openzeppelin/contracts/access/Ownable.sol\":3073:3081  oldOwner */\n  dup2\n    /* \"@openzeppelin/contracts/access/Ownable.sol\":3052:3092  OwnershipTransferred(oldOwner, newOwner) */\n  0xffffffffffffffffffffffffffffffffffffffff\n  and\n  0x8be0079c531659141344cd1fd0a4f28419497f9722a3daafe3b4186f6b6457e0\n  mload(0x40)\n  mload(0x40)\n  dup1\n  swap2\n  sub\n  swap1\n  log3\n    /* \"@openzeppelin/contracts/access/Ownable.sol\":2975:3099  {... */\n  pop\n    /* \"@openzeppelin/contracts/access/Ownable.sol\":2912:3099  function _transferOwnership(address newOwner) internal virtual {... */\n  pop\n  jump\t// out\n    /* \"#utility.yul\":88:205   */\ntag_28:\n    /* \"#utility.yul\":197:198   */\n  0x00\n    /* \"#utility.yul\":194:195   */\n  0x00\n    /* \"#utility.yul\":187:199   */\n  revert\n    /* \"#utility.yul\":334:411   */\ntag_30:\n    /* \"#utility.yul\":371:378   */\n  0x00\n    /* \"#utility.yul\":400:405   */\n  dup2\n    /* \"#utility.yul\":389:405   */\n  swap1\n  pop\n    /* \"#utility.yul\":334:411   */\n  swap2\n  swap1\n  pop\n  jump\t// out\n    /* \"#utility.yul\":417:539   */\ntag_31:\n    /* \"#utility.yul\":490:514   */\n  tag_49\n    /* \"#utility.yul\":508:513   */\n  dup2\n    /* \"#utility.yul\":490:514   */\n  tag_30\n  jump\t// in\ntag_49:\n    /* \"#utility.yul\":483:488   */\n  dup2\n    /* \"#utility.yul\":480:515   */\n  eq\n    /* \"#utility.yul\":470:533   */\n  tag_50\n  jumpi\n    /* \"#utility.yul\":529:530   */\n  0x00\n    /* \"#utility.yul\":526:527   */\n  0x00\n    /* \"#utility.yul\":519:531   */\n  revert\n    /* \"#utility.yul\":470:533   */\ntag_50:\n    /* \"#utility.yul\":417:539   */\n  pop\n  jump\t// out\n    /* \"#utility.yul\":545:688   */\ntag_32:\n    /* \"#utility.yul\":602:607   */\n  0x00\n    /* \"#utility.yul\":633:639   */\n  dup2\n    /* \"#utility.yul\":627:640   */\n  mload\n    /* \"#utility.yul\":618:640   */\n  swap1\n  pop\n    /* \"#utility.yul\":649:682   */\n  tag_52\n    /* \"#utility.yul\":676:681   */\n  dup2\n    /* \"#utility.yul\":649:682   */\n  tag_31\n  jump\t// in\ntag_52:\n    /* \"#utility.yul\":545:688   */\n  swap3\n  swap2\n  pop\n  pop\n  jump\t// out\n    /* \"#utility.yul\":694:1357   */\ntag_3:\n    /* \"#utility.yul\":782:788   */\n  0x00\n    /* \"#utility.yul\":790:796   */\n  0x00\n    /* \"#utility.yul\":798:804   */\n  0x00\n    /* \"#utility.yul\":847:849   */\n  0x60\n    /* \"#utility.yul\":835:844   */\n  dup5\n    /* \"#utility.yul\":826:833   */\n  dup7\n    /* \"#utility.yul\":822:845   */\n  sub\n    /* \"#utility.yul\":818:850   */\n  slt\n    /* \"#utility.yul\":815:934   */\n  iszero\n  tag_54\n  jumpi\n    /* \"#utility.yul\":853:932   */\n  tag_55\n  tag_28\n  jump\t// in\ntag_55:\n    /* \"#utility.yul\":815:934   */\ntag_54:\n    /* \"#utility.yul\":973:974   */\n  0x00\n    /* \"#utility.yul\":998:1062   */\n  tag_56\n    /* \"#utility.yul\":1054:1061   */\n  dup7\n    /* \"#utility.yul\":1045:1051   */\n  dup3\n    /* \"#utility.yul\":1034:1043   */\n  dup8\n    /* \"#utility.yul\":1030:1052   */\n  add\n    /* \"#utility.yul\":998:1062   */\n  tag_32\n  jump\t// in\ntag_56:\n    /* \"#utility.yul\":988:1062   */\n  swap4\n  pop\n    /* \"#utility.yul\":944:1072   */\n  pop\n    /* \"#utility.yul\":1111:1113   */\n  0x20\n    /* \"#utility.yul\":1137:1201   */\n  tag_57\n    /* \"#utility.yul\":1193:1200   */\n  dup7\n    /* \"#utility.yul\":1184:1190   */\n  dup3\n    /* \"#utility.yul\":1173:1182   */\n  dup8\n    /* \"#utility.yul\":1169:1191   */\n  add\n    /* \"#utility.yul\":1137:1201   */\n  tag_32\n  jump\t// in\ntag_57:\n    /* \"#utility.yul\":1127:1201   */\n  swap3\n  pop\n    /* \"#utility.yul\":1082:1211   */\n  pop\n    /* \"#utility.yul\":1250:1252   */\n  0x40\n    /* \"#utility.yul\":1276:1340   */\n  tag_58\n    /* \"#utility.yul\":1332:1339   */\n  dup7\n    /* \"#utility.yul\":1323:1329   */\n  dup3\n    /* \"#utility.yul\":1312:1321   */\n  dup8\n    /* \"#utility.yul\":1308:1330   */\n  add\n    /* \"#utility.yul\":1276:1340   */\n  tag_32\n  jump\t// in\ntag_58:\n    /* \"#utility.yul\":1266:1340   */\n  swap2\n  pop\n    /* \"#utility.yul\":1221:1350   */\n  pop\n    /* \"#utility.yul\":694:1357   */\n  swap3\n  pop\n  swap3\n  pop\n  swap3\n  jump\t// out\n    /* \"#utility.yul\":1363:1489   */\ntag_33:\n    /* \"#utility.yul\":1400:1407   */\n  0x00\n    /* \"#utility.yul\":1440:1482   */\n  0xffffffffffffffffffffffffffffffffffffffff\n    /* \"#utility.yul\":1433:1438   */\n  dup3\n    /* \"#utility.yul\":1429:1483   */\n  and\n    /* \"#utility.yul\":1418:1483   */\n  swap1\n  pop\n    /* \"#utility.yul\":1363:1489   */\n  swap2\n  swap1\n  pop\n  jump\t// out\n    /* \"#utility.yul\":1495:1591   */\ntag_34:\n    /* \"#utility.yul\":1532:1539   */\n  0x00\n    /* \"#utility.yul\":1561:1585   */\n  tag_61\n    /* \"#utility.yul\":1579:1584   */\n  dup3\n    /* \"#utility.yul\":1561:1585   */\n  tag_33\n  jump\t// in\ntag_61:\n    /* \"#utility.yul\":1550:1585   */\n  swap1\n  pop\n    /* \"#utility.yul\":1495:1591   */\n  swap2\n  swap1\n  pop\n  jump\t// out\n    /* \"#utility.yul\":1597:1715   */\ntag_35:\n    /* \"#utility.yul\":1684:1708   */\n  tag_63\n    /* \"#utility.yul\":1702:1707   */\n  dup2\n    /* \"#utility.yul\":1684:1708   */\n  tag_34\n  jump\t// in\ntag_63:\n    /* \"#utility.yul\":1679:1682   */\n  dup3\n    /* \"#utility.yul\":1672:1709   */\n  mstore\n    /* \"#utility.yul\":1597:1715   */\n  pop\n  pop\n  jump\t// out\n    /* \"#utility.yul\":1721:1943   */\ntag_9:\n    /* \"#utility.yul\":1814:1818   */\n  0x00\n    /* \"#utility.yul\":1852:1854   */\n  0x20\n    /* \"#utility.yul\":1841:1850   */\n  dup3\n    /* \"#utility.yul\":1837:1855   */\n  add\n    /* \"#utility.yul\":1829:1855   */\n  swap1\n  pop\n    /* \"#utility.yul\":1865:1936   */\n  tag_65\n    /* \"#utility.yul\":1933:1934   */\n  0x00\n    /* \"#utility.yul\":1922:1931   */\n  dup4\n    /* \"#utility.yul\":1918:1935   */\n  add\n    /* \"#utility.yul\":1909:1915   */\n  dup5\n    /* \"#utility.yul\":1865:1936   */\n  tag_35\n  jump\t// in\ntag_65:\n    /* \"#utility.yul\":1721:1943   */\n  swap3\n  swap2\n  pop\n  pop\n  jump\t// out\n    /* \"#utility.yul\":1949:2118   */\ntag_36:\n    /* \"#utility.yul\":2033:2044   */\n  0x00\n    /* \"#utility.yul\":2067:2073   */\n  dup3\n    /* \"#utility.yul\":2062:2065   */\n  dup3\n    /* \"#utility.yul\":2055:2074   */\n  mstore\n    /* \"#utility.yul\":2107:2111   */\n  0x20\n    /* \"#utility.yul\":2102:2105   */\n  dup3\n    /* \"#utility.yul\":2098:2112   */\n  add\n    /* \"#utility.yul\":2083:2112   */\n  swap1\n  pop\n    /* \"#utility.yul\":1949:2118   */\n  swap3\n  swap2\n  pop\n  pop\n  jump\t// out\n    /* \"#utility.yul\":2124:2346   */\ntag_37:\n    /* \"#utility.yul\":2264:2298   */\n  0x5469636b6574207072696365206d757374206265206772656174657220746861\n    /* \"#utility.yul\":2260:2261   */\n  0x00\n    /* \"#utility.yul\":2252:2258   */\n  dup3\n    /* \"#utility.yul\":2248:2262   */\n  add\n    /* \"#utility.yul\":2241:2299   */\n  mstore\n    /* \"#utility.yul\":2333:2338   */\n  0x6e20300000000000000000000000000000000000000000000000000000000000\n    /* \"#utility.yul\":2328:2330   */\n  0x20\n    /* \"#utility.yul\":2320:2326   */\n  dup3\n    /* \"#utility.yul\":2316:2331   */\n  add\n    /* \"#utility.yul\":2309:2339   */\n  mstore\n    /* \"#utility.yul\":2124:2346   */\n  pop\n  jump\t// out\n    /* \"#utility.yul\":2352:2718   */\ntag_38:\n    /* \"#utility.yul\":2494:2497   */\n  0x00\n    /* \"#utility.yul\":2515:2582   */\n  tag_69\n    /* \"#utility.yul\":2579:2581   */\n  0x23\n    /* \"#utility.yul\":2574:2577   */\n  dup4\n    /* \"#utility.yul\":2515:2582   */\n  tag_36\n  jump\t// in\ntag_69:\n    /* \"#utility.yul\":2508:2582   */\n  swap2\n  pop\n    /* \"#utility.yul\":2591:2684   */\n  tag_70\n    /* \"#utility.yul\":2680:2683   */\n  dup3\n    /* \"#utility.yul\":2591:2684   */\n  tag_37\n  jump\t// in\ntag_70:\n    /* \"#utility.yul\":2709:2711   */\n  0x40\n    /* \"#utility.yul\":2704:2707   */\n  dup3\n    /* \"#utility.yul\":2700:2712   */\n  add\n    /* \"#utility.yul\":2693:2712   */\n  swap1\n  pop\n    /* \"#utility.yul\":2352:2718   */\n  swap2\n  swap1\n  pop\n  jump\t// out\n    /* \"#utility.yul\":2724:3143   */\ntag_15:\n    /* \"#utility.yul\":2890:2894   */\n  0x00\n    /* \"#utility.yul\":2928:2930   */\n  0x20\n    /* \"#utility.yul\":2917:2926   */\n  dup3\n    /* \"#utility.yul\":2913:2931   */\n  add\n    /* \"#utility.yul\":2905:2931   */\n  swap1\n  pop\n    /* \"#utility.yul\":2977:2986   */\n  dup2\n    /* \"#utility.yul\":2971:2975   */\n  dup2\n    /* \"#utility.yul\":2967:2987   */\n  sub\n    /* \"#utility.yul\":2963:2964   */\n  0x00\n    /* \"#utility.yul\":2952:2961   */\n  dup4\n    /* \"#utility.yul\":2948:2965   */\n  add\n    /* \"#utility.yul\":2941:2988   */\n  mstore\n    /* \"#utility.yul\":3005:3136   */\n  tag_72\n    /* \"#utility.yul\":3131:3135   */\n  dup2\n    /* \"#utility.yul\":3005:3136   */\n  tag_38\n  jump\t// in\ntag_72:\n    /* \"#utility.yul\":2997:3136   */\n  swap1\n  pop\n    /* \"#utility.yul\":2724:3143   */\n  swap2\n  swap1\n  pop\n  jump\t// out\n    /* \"#utility.yul\":3149:3375   */\ntag_39:\n    /* \"#utility.yul\":3289:3323   */\n  0x506c61796572207468726573686f6c64206d7573742062652067726561746572\n    /* \"#utility.yul\":3285:3286   */\n  0x00\n    /* \"#utility.yul\":3277:3283   */\n  dup3\n    /* \"#utility.yul\":3273:3287   */\n  add\n    /* \"#utility.yul\":3266:3324   */\n  mstore\n    /* \"#utility.yul\":3358:3367   */\n  0x207468616e203000000000000000000000000000000000000000000000000000\n    /* \"#utility.yul\":3353:3355   */\n  0x20\n    /* \"#utility.yul\":3345:3351   */\n  dup3\n    /* \"#utility.yul\":3341:3356   */\n  add\n    /* \"#utility.yul\":3334:3368   */\n  mstore\n    /* \"#utility.yul\":3149:3375   */\n  pop\n  jump\t// out\n    /* \"#utility.yul\":3381:3747   */\ntag_40:\n    /* \"#utility.yul\":3523:3526   */\n  0x00\n    /* \"#utility.yul\":3544:3611   */\n  tag_75\n    /* \"#utility.yul\":3608:3610   */\n  0x27\n    /* \"#utility.yul\":3603:3606   */\n  dup4\n    /* \"#utility.yul\":3544:3611   */\n  tag_36\n  jump\t// in\ntag_75:\n    /* \"#utility.yul\":3537:3611   */\n  swap2\n  pop\n    /* \"#utility.yul\":3620:3713   */\n  tag_76\n    /* \"#utility.yul\":3709:3712   */\n  dup3\n    /* \"#utility.yul\":3620:3713   */\n  tag_39\n  jump\t// in\ntag_76:\n    /* \"#utility.yul\":3738:3740   */\n  0x40\n    /* \"#utility.yul\":3733:3736   */\n  dup3\n    /* \"#utility.yul\":3729:3741   */\n  add\n    /* \"#utility.yul\":3722:3741   */\n  swap1\n  pop\n    /* \"#utility.yul\":3381:3747   */\n  swap2\n  swap1\n  pop\n  jump\t// out\n    /* \"#utility.yul\":3753:4172   */\ntag_18:\n    /* \"#utility.yul\":3919:3923   */\n  0x00\n    /* \"#utility.yul\":3957:3959   */\n  0x20\n    /* \"#utility.yul\":3946:3955   */\n  dup3\n    /* \"#utility.yul\":3942:3960   */\n  add\n    /* \"#utility.yul\":3934:3960   */\n  swap1\n  pop\n    /* \"#utility.yul\":4006:4015   */\n  dup2\n    /* \"#utility.yul\":4000:4004   */\n  dup2\n    /* \"#utility.yul\":3996:4016   */\n  sub\n    /* \"#utility.yul\":3992:3993   */\n  0x00\n    /* \"#utility.yul\":3981:3990   */\n  dup4\n    /* \"#utility.yul\":3977:3994   */\n  add\n    /* \"#utility.yul\":3970:4017   */\n  mstore\n    /* \"#utility.yul\":4034:4165   */\n  tag_78\n    /* \"#utility.yul\":4160:4164   */\n  dup2\n    /* \"#utility.yul\":4034:4165   */\n  tag_40\n  jump\t// in\ntag_78:\n    /* \"#utility.yul\":4026:4165   */\n  swap1\n  pop\n    /* \"#utility.yul\":3753:4172   */\n  swap2\n  swap1\n  pop\n  jump\t// out\n    /* \"#utility.yul\":4178:4358   */\ntag_41:\n    /* \"#utility.yul\":4226:4303   */\n  0x4e487b7100000000000000000000000000000000000000000000000000000000\n    /* \"#utility.yul\":4223:4224   */\n  0x00\n    /* \"#utility.yul\":4216:4304   */\n  mstore\n    /* \"#utility.yul\":4323:4327   */\n  0x11\n    /* \"#utility.yul\":4320:4321   */\n  0x04\n    /* \"#utility.yul\":4313:4328   */\n  mstore\n    /* \"#utility.yul\":4347:4351   */\n  0x24\n    /* \"#utility.yul\":4344:4345   */\n  0x00\n    /* \"#utility.yul\":4337:4352   */\n  revert\n    /* \"#utility.yul\":4364:4774   */\ntag_20:\n    /* \"#utility.yul\":4404:4411   */\n  0x00\n    /* \"#utility.yul\":4427:4447   */\n  tag_81\n    /* \"#utility.yul\":4445:4446   */\n  dup3\n    /* \"#utility.yul\":4427:4447   */\n  tag_30\n  jump\t// in\ntag_81:\n    /* \"#utility.yul\":4422:4447   */\n  swap2\n  pop\n    /* \"#utility.yul\":4461:4481   */\n  tag_82\n    /* \"#utility.yul\":4479:4480   */\n  dup4\n    /* \"#utility.yul\":4461:4481   */\n  tag_30\n  jump\t// in\ntag_82:\n    /* \"#utility.yul\":4456:4481   */\n  swap3\n  pop\n    /* \"#utility.yul\":4516:4517   */\n  dup3\n    /* \"#utility.yul\":4513:4514   */\n  dup3\n    /* \"#utility.yul\":4509:4518   */\n  mul\n    /* \"#utility.yul\":4538:4568   */\n  tag_83\n    /* \"#utility.yul\":4556:4567   */\n  dup2\n    /* \"#utility.yul\":4538:4568   */\n  tag_30\n  jump\t// in\ntag_83:\n    /* \"#utility.yul\":4527:4568   */\n  swap2\n  pop\n    /* \"#utility.yul\":4717:4718   */\n  dup3\n    /* \"#utility.yul\":4708:4715   */\n  dup3\n    /* \"#utility.yul\":4704:4719   */\n  div\n    /* \"#utility.yul\":4701:4702   */\n  dup5\n    /* \"#utility.yul\":4698:4720   */\n  eq\n    /* \"#utility.yul\":4678:4679   */\n  dup4\n    /* \"#utility.yul\":4671:4680   */\n  iszero\n    /* \"#utility.yul\":4651:4734   */\n  or\n    /* \"#utility.yul\":4628:4767   */\n  tag_84\n  jumpi\n    /* \"#utility.yul\":4747:4765   */\n  tag_85\n  tag_41\n  jump\t// in\ntag_85:\n    /* \"#utility.yul\":4628:4767   */\ntag_84:\n    /* \"#utility.yul\":4412:4774   */\n  pop\n    /* \"#utility.yul\":4364:4774   */\n  swap3\n  swap2\n  pop\n  pop\n  jump\t// out\n    /* \"#utility.yul\":4780:4960   */\ntag_42:\n    /* \"#utility.yul\":4828:4905   */\n  0x4e487b7100000000000000000000000000000000000000000000000000000000\n    /* \"#utility.yul\":4825:4826   */\n  0x00\n    /* \"#utility.yul\":4818:4906   */\n  mstore\n    /* \"#utility.yul\":4925:4929   */\n  0x12\n    /* \"#utility.yul\":4922:4923   */\n  0x04\n    /* \"#utility.yul\":4915:4930   */\n  mstore\n    /* \"#utility.yul\":4949:4953   */\n  0x24\n    /* \"#utility.yul\":4946:4947   */\n  0x00\n    /* \"#utility.yul\":4939:4954   */\n  revert\n    /* \"#utility.yul\":4966:5151   */\ntag_22:\n    /* \"#utility.yul\":5006:5007   */\n  0x00\n    /* \"#utility.yul\":5023:5043   */\n  tag_88\n    /* \"#utility.yul\":5041:5042   */\n  dup3\n    /* \"#utility.yul\":5023:5043   */\n  tag_30\n  jump\t// in\ntag_88:\n    /* \"#utility.yul\":5018:5043   */\n  swap2\n  pop\n    /* \"#utility.yul\":5057:5077   */\n  tag_89\n    /* \"#utility.yul\":5075:5076   */\n  dup4\n    /* \"#utility.yul\":5057:5077   */\n  tag_30\n  jump\t// in\ntag_89:\n    /* \"#utility.yul\":5052:5077   */\n  swap3\n  pop\n    /* \"#utility.yul\":5096:5097   */\n  dup3\n    /* \"#utility.yul\":5086:5121   */\n  tag_90\n  jumpi\n    /* \"#utility.yul\":5101:5119   */\n  tag_91\n  tag_42\n  jump\t// in\ntag_91:\n    /* \"#utility.yul\":5086:5121   */\ntag_90:\n    /* \"#utility.yul\":5143:5144   */\n  dup3\n    /* \"#utility.yul\":5140:5141   */\n  dup3\n    /* \"#utility.yul\":5136:5145   */\n  div\n    /* \"#utility.yul\":5131:5145   */\n  swap1\n  pop\n    /* \"#utility.yul\":4966:5151   */\n  swap3\n  swap2\n  pop\n  pop\n  jump\t// out\n    /* \"#utility.yul\":5157:5348   */\ntag_24:\n    /* \"#utility.yul\":5197:5200   */\n  0x00\n    /* \"#utility.yul\":5216:5236   */\n  tag_93\n    /* \"#utility.yul\":5234:5235   */\n  dup3\n    /* \"#utility.yul\":5216:5236   */\n  tag_30\n  jump\t// in\ntag_93:\n    /* \"#utility.yul\":5211:5236   */\n  swap2\n  pop\n    /* \"#utility.yul\":5250:5270   */\n  tag_94\n    /* \"#utility.yul\":5268:5269   */\n  dup4\n    /* \"#utility.yul\":5250:5270   */\n  tag_30\n  jump\t// in\ntag_94:\n    /* \"#utility.yul\":5245:5270   */\n  swap3\n  pop\n    /* \"#utility.yul\":5293:5294   */\n  dup3\n    /* \"#utility.yul\":5290:5291   */\n  dup3\n    /* \"#utility.yul\":5286:5295   */\n  add\n    /* \"#utility.yul\":5279:5295   */\n  swap1\n  pop\n    /* \"#utility.yul\":5314:5317   */\n  dup1\n    /* \"#utility.yul\":5311:5312   */\n  dup3\n    /* \"#utility.yul\":5308:5318   */\n  gt\n    /* \"#utility.yul\":5305:5341   */\n  iszero\n  tag_95\n  jumpi\n    /* \"#utility.yul\":5321:5339   */\n  tag_96\n  tag_41\n  jump\t// in\ntag_96:\n    /* \"#utility.yul\":5305:5341   */\ntag_95:\n    /* \"#utility.yul\":5157:5348   */\n  swap3\n  swap2\n  pop\n  pop\n  jump\t// out\n    /* \"contracts/lottery.sol\":150:4410  contract Lottery is Ownable {... */\ntag_25:\n  dataSize(sub_0)\n  dup1\n  dataOffset(sub_0)\n  0x00\n  codecopy\n  0x00\n  return\nstop\n\nsub_0: assembly {\n        /* \"contracts/lottery.sol\":150:4410  contract Lottery is Ownable {... */\n      mstore(0x40, 0x80)\n      jumpi(tag_1, lt(calldatasize, 0x04))\n      shr(0xe0, calldataload(0x00))\n      dup1\n      0xc315e864\n      gt\n      tag_16\n      jumpi\n      dup1\n      0xe580f47b\n      gt\n      tag_17\n      jumpi\n      dup1\n      0xe580f47b\n      eq\n      tag_12\n      jumpi\n      dup1\n      0xedca914c\n      eq\n      tag_13\n      jumpi\n      dup1\n      0xf2fde38b\n      eq\n      tag_14\n      jumpi\n      dup1\n      0xf71d96cb\n      eq\n      tag_15\n      jumpi\n      jump(tag_1)\n    tag_17:\n      dup1\n      0xc315e864\n      eq\n      tag_9\n      jumpi\n      dup1\n      0xc70dced4\n      eq\n      tag_10\n      jumpi\n      dup1\n      0xdfbf53ae\n      eq\n      tag_11\n      jumpi\n      jump(tag_1)\n    tag_16:\n      dup1\n      0x8da5cb5b\n      gt\n      tag_18\n      jumpi\n      dup1\n      0x8da5cb5b\n      eq\n      tag_5\n      jumpi\n      dup1\n      0x99f13066\n      eq\n      tag_6\n      jumpi\n      dup1\n      0xa1571114\n      eq\n      tag_7\n      jumpi\n      dup1\n      0xa76594bf\n      eq\n      tag_8\n      jumpi\n      jump(tag_1)\n    tag_18:\n      dup1\n      0x1209b1f6\n      eq\n      tag_2\n      jumpi\n      dup1\n      0x715018a6\n      eq\n      tag_3\n      jumpi\n      dup1\n      0x7bd9ddd4\n      eq\n      tag_4\n      jumpi\n    tag_1:\n      revert(0x00, 0x00)\n        /* \"contracts/lottery.sol\":314:340  uint256 public ticketPrice */\n    tag_2:\n      callvalue\n      dup1\n      iszero\n      tag_19\n      jumpi\n      revert(0x00, 0x00)\n    tag_19:\n      pop\n      tag_20\n      tag_21\n      jump\t// in\n    tag_20:\n      mload(0x40)\n      tag_22\n      swap2\n      swap1\n      tag_23\n      jump\t// in\n    tag_22:\n      mload(0x40)\n      dup1\n      swap2\n      sub\n      swap1\n      return\n        /* \"@openzeppelin/contracts/access/Ownable.sol\":2293:2394  function renounceOwnership() public virtual onlyOwner {... */\n    tag_3:\n      callvalue\n      dup1\n      iszero\n      tag_24\n      jumpi\n      revert(0x00, 0x00)\n    tag_24:\n      pop\n      tag_25\n      tag_26\n      jump\t// in\n    tag_25:\n      stop\n        /* \"contracts/lottery.sol\":737:767  uint256 public playerThreshold */\n    tag_4:\n      callvalue\n      dup1\n      iszero\n      tag_27\n      jumpi\n      revert(0x00, 0x00)\n    tag_27:\n      pop\n      tag_28\n      tag_29\n      jump\t// in\n    tag_28:\n      mload(0x40)\n      tag_30\n      swap2\n      swap1\n      tag_23\n      jump\t// in\n    tag_30:\n      mload(0x40)\n      dup1\n      swap2\n      sub\n      swap1\n      return\n        /* \"@openzeppelin/contracts/access/Ownable.sol\":1638:1723  function owner() public view virtual returns (address) {... */\n    tag_5:\n      callvalue\n      dup1\n      iszero\n      tag_31\n      jumpi\n      revert(0x00, 0x00)\n    tag_31:\n      pop\n      tag_32\n      tag_33\n      jump\t// in\n    tag_32:\n      mload(0x40)\n      tag_34\n      swap2\n      swap1\n      tag_35\n      jump\t// in\n    tag_34:\n      mload(0x40)\n      dup1\n      swap2\n      sub\n      swap1\n      return\n        /* \"contracts/lottery.sol\":428:461  uint256 public currentWinningPool */\n    tag_6:\n      callvalue\n      dup1\n      iszero\n      tag_36\n      jumpi\n      revert(0x00, 0x00)\n    tag_36:\n      pop\n      tag_37\n      tag_38\n      jump\t// in\n    tag_37:\n      mload(0x40)\n      tag_39\n      swap2\n      swap1\n      tag_23\n      jump\t// in\n    tag_39:\n      mload(0x40)\n      dup1\n      swap2\n      sub\n      swap1\n      return\n        /* \"contracts/lottery.sol\":634:683  uint256 public constant OWNER_CUT_PERCENTAGE = 80 */\n    tag_7:\n      callvalue\n      dup1\n      iszero\n      tag_40\n      jumpi\n      revert(0x00, 0x00)\n    tag_40:\n      pop\n      tag_41\n      tag_42\n      jump\t// in\n    tag_41:\n      mload(0x40)\n      tag_43\n      swap2\n      swap1\n      tag_23\n      jump\t// in\n    tag_43:\n      mload(0x40)\n      dup1\n      swap2\n      sub\n      swap1\n      return\n        /* \"contracts/lottery.sol\":3019:3114  function getPlayersCount() public view returns (uint256) {... */\n    tag_8:\n      callvalue\n      dup1\n      iszero\n      tag_44\n      jumpi\n      revert(0x00, 0x00)\n    tag_44:\n      pop\n      tag_45\n      tag_46\n      jump\t// in\n    tag_45:\n      mload(0x40)\n      tag_47\n      swap2\n      swap1\n      tag_23\n      jump\t// in\n    tag_47:\n      mload(0x40)\n      dup1\n      swap2\n      sub\n      swap1\n      return\n        /* \"contracts/lottery.sol\":229:262  uint256 public initialTicketPrice */\n    tag_9:\n      callvalue\n      dup1\n      iszero\n      tag_48\n      jumpi\n      revert(0x00, 0x00)\n    tag_48:\n      pop\n      tag_49\n      tag_50\n      jump\t// in\n    tag_49:\n      mload(0x40)\n      tag_51\n      swap2\n      swap1\n      tag_23\n      jump\t// in\n    tag_51:\n      mload(0x40)\n      dup1\n      swap2\n      sub\n      swap1\n      return\n        /* \"contracts/lottery.sol\":530:581  uint256 public constant JACKPOT_CUT_PERCENTAGE = 20 */\n    tag_10:\n      callvalue\n      dup1\n      iszero\n      tag_52\n      jumpi\n      revert(0x00, 0x00)\n    tag_52:\n      pop\n      tag_53\n      tag_54\n      jump\t// in\n    tag_53:\n      mload(0x40)\n      tag_55\n      swap2\n      swap1\n      tag_23\n      jump\t// in\n    tag_55:\n      mload(0x40)\n      dup1\n      swap2\n      sub\n      swap1\n      return\n        /* \"contracts/lottery.sol\":916:937  address public winner */\n    tag_11:\n      callvalue\n      dup1\n      iszero\n      tag_56\n      jumpi\n      revert(0x00, 0x00)\n    tag_56:\n      pop\n      tag_57\n      tag_58\n      jump\t// in\n    tag_57:\n      mload(0x40)\n      tag_59\n      swap2\n      swap1\n      tag_35\n      jump\t// in\n    tag_59:\n      mload(0x40)\n      dup1\n      swap2\n      sub\n      swap1\n      return\n        /* \"contracts/lottery.sol\":840:868  uint256 public lotteryId = 1 */\n    tag_12:\n      callvalue\n      dup1\n      iszero\n      tag_60\n      jumpi\n      revert(0x00, 0x00)\n    tag_60:\n      pop\n      tag_61\n      tag_62\n      jump\t// in\n    tag_61:\n      mload(0x40)\n      tag_63\n      swap2\n      swap1\n      tag_23\n      jump\t// in\n    tag_63:\n      mload(0x40)\n      dup1\n      swap2\n      sub\n      swap1\n      return\n        /* \"contracts/lottery.sol\":2104:2956  function buyTicket() public payable {... */\n    tag_13:\n      tag_64\n      tag_65\n      jump\t// in\n    tag_64:\n      stop\n        /* \"@openzeppelin/contracts/access/Ownable.sol\":2543:2758  function transferOwnership(address newOwner) public virtual onlyOwner {... */\n    tag_14:\n      callvalue\n      dup1\n      iszero\n      tag_66\n      jumpi\n      revert(0x00, 0x00)\n    tag_66:\n      pop\n      tag_67\n      0x04\n      dup1\n      calldatasize\n      sub\n      dup2\n      add\n      swap1\n      tag_68\n      swap2\n      swap1\n      tag_69\n      jump\t// in\n    tag_68:\n      tag_70\n      jump\t// in\n    tag_67:\n      stop\n        /* \"contracts/lottery.sol\":1006:1030  address[] public players */\n    tag_15:\n      callvalue\n      dup1\n      iszero\n      tag_71\n      jumpi\n      revert(0x00, 0x00)\n    tag_71:\n      pop\n      tag_72\n      0x04\n      dup1\n      calldatasize\n      sub\n      dup2\n      add\n      swap1\n      tag_73\n      swap2\n      swap1\n      tag_74\n      jump\t// in\n    tag_73:\n      tag_75\n      jump\t// in\n    tag_72:\n      mload(0x40)\n      tag_76\n      swap2\n      swap1\n      tag_35\n      jump\t// in\n    tag_76:\n      mload(0x40)\n      dup1\n      swap2\n      sub\n      swap1\n      return\n        /* \"contracts/lottery.sol\":314:340  uint256 public ticketPrice */\n    tag_21:\n      sload(0x02)\n      dup2\n      jump\t// out\n        /* \"@openzeppelin/contracts/access/Ownable.sol\":2293:2394  function renounceOwnership() public virtual onlyOwner {... */\n    tag_26:\n        /* \"@openzeppelin/contracts/access/Ownable.sol\":1531:1544  _checkOwner() */\n      tag_78\n        /* \"@openzeppelin/contracts/access/Ownable.sol\":1531:1542  _checkOwner */\n      tag_79\n        /* \"@openzeppelin/contracts/access/Ownable.sol\":1531:1544  _checkOwner() */\n      jump\t// in\n    tag_78:\n        /* \"@openzeppelin/contracts/access/Ownable.sol\":2357:2387  _transferOwnership(address(0)) */\n      tag_81\n        /* \"@openzeppelin/contracts/access/Ownable.sol\":2384:2385  0 */\n      0x00\n        /* \"@openzeppelin/contracts/access/Ownable.sol\":2357:2375  _transferOwnership */\n      tag_82\n        /* \"@openzeppelin/contracts/access/Ownable.sol\":2357:2387  _transferOwnership(address(0)) */\n      jump\t// in\n    tag_81:\n        /* \"@openzeppelin/contracts/access/Ownable.sol\":2293:2394  function renounceOwnership() public virtual onlyOwner {... */\n      jump\t// out\n        /* \"contracts/lottery.sol\":737:767  uint256 public playerThreshold */\n    tag_29:\n      sload(0x04)\n      dup2\n      jump\t// out\n        /* \"@openzeppelin/contracts/access/Ownable.sol\":1638:1723  function owner() public view virtual returns (address) {... */\n    tag_33:\n        /* \"@openzeppelin/contracts/access/Ownable.sol\":1684:1691  address */\n      0x00\n        /* \"@openzeppelin/contracts/access/Ownable.sol\":1710:1716  _owner */\n      0x00\n      0x00\n      swap1\n      sload\n      swap1\n      0x0100\n      exp\n      swap1\n      div\n      0xffffffffffffffffffffffffffffffffffffffff\n      and\n        /* \"@openzeppelin/contracts/access/Ownable.sol\":1703:1716  return _owner */\n      swap1\n      pop\n        /* \"@openzeppelin/contracts/access/Ownable.sol\":1638:1723  function owner() public view virtual returns (address) {... */\n      swap1\n      jump\t// out\n        /* \"contracts/lottery.sol\":428:461  uint256 public currentWinningPool */\n    tag_38:\n      sload(0x03)\n      dup2\n      jump\t// out\n        /* \"contracts/lottery.sol\":634:683  uint256 public constant OWNER_CUT_PERCENTAGE = 80 */\n    tag_42:\n        /* \"contracts/lottery.sol\":681:683  80 */\n      0x50\n        /* \"contracts/lottery.sol\":634:683  uint256 public constant OWNER_CUT_PERCENTAGE = 80 */\n      dup2\n      jump\t// out\n        /* \"contracts/lottery.sol\":3019:3114  function getPlayersCount() public view returns (uint256) {... */\n    tag_46:\n        /* \"contracts/lottery.sol\":3067:3074  uint256 */\n      0x00\n        /* \"contracts/lottery.sol\":3093:3100  players */\n      0x07\n        /* \"contracts/lottery.sol\":3093:3107  players.length */\n      dup1\n      sload\n      swap1\n      pop\n        /* \"contracts/lottery.sol\":3086:3107  return players.length */\n      swap1\n      pop\n        /* \"contracts/lottery.sol\":3019:3114  function getPlayersCount() public view returns (uint256) {... */\n      swap1\n      jump\t// out\n        /* \"contracts/lottery.sol\":229:262  uint256 public initialTicketPrice */\n    tag_50:\n      sload(0x01)\n      dup2\n      jump\t// out\n        /* \"contracts/lottery.sol\":530:581  uint256 public constant JACKPOT_CUT_PERCENTAGE = 20 */\n    tag_54:\n        /* \"contracts/lottery.sol\":579:581  20 */\n      0x14\n        /* \"contracts/lottery.sol\":530:581  uint256 public constant JACKPOT_CUT_PERCENTAGE = 20 */\n      dup2\n      jump\t// out\n        /* \"contracts/lottery.sol\":916:937  address public winner */\n    tag_58:\n      0x06\n      0x00\n      swap1\n      sload\n      swap1\n      0x0100\n      exp\n      swap1\n      div\n      0xffffffffffffffffffffffffffffffffffffffff\n      and\n      dup2\n      jump\t// out\n        /* \"contracts/lottery.sol\":840:868  uint256 public lotteryId = 1 */\n    tag_62:\n      sload(0x05)\n      dup2\n      jump\t// out\n        /* \"contracts/lottery.sol\":2104:2956  function buyTicket() public payable {... */\n    tag_65:\n        /* \"contracts/lottery.sol\":2230:2241  ticketPrice */\n      sload(0x02)\n        /* \"contracts/lottery.sol\":2217:2226  msg.value */\n      callvalue\n        /* \"contracts/lottery.sol\":2217:2241  msg.value == ticketPrice */\n      eq\n        /* \"contracts/lottery.sol\":2209:2273  require(msg.value == ticketPrice, \"Incorrect ticket price sent\") */\n      tag_86\n      jumpi\n      mload(0x40)\n      0x08c379a000000000000000000000000000000000000000000000000000000000\n      dup2\n      mstore\n      0x04\n      add\n      tag_87\n      swap1\n      tag_88\n      jump\t// in\n    tag_87:\n      mload(0x40)\n      dup1\n      swap2\n      sub\n      swap1\n      revert\n    tag_86:\n        /* \"contracts/lottery.sol\":2339:2346  players */\n      0x07\n        /* \"contracts/lottery.sol\":2352:2362  msg.sender */\n      caller\n        /* \"contracts/lottery.sol\":2339:2363  players.push(msg.sender) */\n      swap1\n      dup1\n      0x01\n      dup2\n      sload\n      add\n      dup1\n      dup3\n      sstore\n      dup1\n      swap2\n      pop\n      pop\n      0x01\n      swap1\n      sub\n      swap1\n      0x00\n      mstore\n      keccak256(0x00, 0x20)\n      add\n      0x00\n      swap1\n      swap2\n      swap1\n      swap2\n      swap1\n      swap2\n      0x0100\n      exp\n      dup2\n      sload\n      dup2\n      0xffffffffffffffffffffffffffffffffffffffff\n      mul\n      not\n      and\n      swap1\n      dup4\n      0xffffffffffffffffffffffffffffffffffffffff\n      and\n      mul\n      or\n      swap1\n      sstore\n      pop\n        /* \"contracts/lottery.sol\":2468:2484  uint256 ownerCut */\n      0x00\n        /* \"contracts/lottery.sol\":2524:2527  100 */\n      0x64\n        /* \"contracts/lottery.sol\":681:683  80 */\n      0x50\n        /* \"contracts/lottery.sol\":2488:2497  msg.value */\n      callvalue\n        /* \"contracts/lottery.sol\":2488:2520  msg.value * OWNER_CUT_PERCENTAGE */\n      tag_90\n      swap2\n      swap1\n      tag_91\n      jump\t// in\n    tag_90:\n        /* \"contracts/lottery.sol\":2487:2527  (msg.value * OWNER_CUT_PERCENTAGE) / 100 */\n      tag_92\n      swap2\n      swap1\n      tag_93\n      jump\t// in\n    tag_92:\n        /* \"contracts/lottery.sol\":2468:2527  uint256 ownerCut = (msg.value * OWNER_CUT_PERCENTAGE) / 100 */\n      swap1\n      pop\n        /* \"contracts/lottery.sol\":2545:2552  owner() */\n      tag_94\n        /* \"contracts/lottery.sol\":2545:2550  owner */\n      tag_33\n        /* \"contracts/lottery.sol\":2545:2552  owner() */\n      jump\t// in\n    tag_94:\n        /* \"contracts/lottery.sol\":2537:2562  payable(owner()).transfer */\n      0xffffffffffffffffffffffffffffffffffffffff\n      and\n        /* \"contracts/lottery.sol\":2537:2572  payable(owner()).transfer(ownerCut) */\n      0x08fc\n        /* \"contracts/lottery.sol\":2563:2571  ownerCut */\n      dup3\n        /* \"contracts/lottery.sol\":2537:2572  payable(owner()).transfer(ownerCut) */\n      swap1\n      dup2\n      iszero\n      mul\n      swap1\n      mload(0x40)\n      0x00\n      mload(0x40)\n      dup1\n      dup4\n      sub\n      dup2\n      dup6\n      dup9\n      dup9\n      call\n      swap4\n      pop\n      pop\n      pop\n      pop\n      iszero\n      dup1\n      iszero\n      tag_96\n      jumpi\n      returndatacopy(0x00, 0x00, returndatasize)\n      revert(0x00, returndatasize)\n    tag_96:\n      pop\n        /* \"contracts/lottery.sol\":2636:2654  uint256 jackpotCut */\n      0x00\n        /* \"contracts/lottery.sol\":2696:2699  100 */\n      0x64\n        /* \"contracts/lottery.sol\":579:581  20 */\n      0x14\n        /* \"contracts/lottery.sol\":2658:2667  msg.value */\n      callvalue\n        /* \"contracts/lottery.sol\":2658:2692  msg.value * JACKPOT_CUT_PERCENTAGE */\n      tag_97\n      swap2\n      swap1\n      tag_91\n      jump\t// in\n    tag_97:\n        /* \"contracts/lottery.sol\":2657:2699  (msg.value * JACKPOT_CUT_PERCENTAGE) / 100 */\n      tag_98\n      swap2\n      swap1\n      tag_93\n      jump\t// in\n    tag_98:\n        /* \"contracts/lottery.sol\":2636:2699  uint256 jackpotCut = (msg.value * JACKPOT_CUT_PERCENTAGE) / 100 */\n      swap1\n      pop\n        /* \"contracts/lottery.sol\":2731:2741  jackpotCut */\n      dup1\n        /* \"contracts/lottery.sol\":2709:2727  currentWinningPool */\n      0x03\n      0x00\n        /* \"contracts/lottery.sol\":2709:2741  currentWinningPool += jackpotCut */\n      dup3\n      dup3\n      sload\n      tag_99\n      swap2\n      swap1\n      tag_100\n      jump\t// in\n    tag_99:\n      swap3\n      pop\n      pop\n      dup2\n      swap1\n      sstore\n      pop\n        /* \"contracts/lottery.sol\":2770:2780  msg.sender */\n      caller\n        /* \"contracts/lottery.sol\":2757:2803  TicketBought(msg.sender, lotteryId, msg.value) */\n      0xffffffffffffffffffffffffffffffffffffffff\n      and\n      0x97fac0ce6558f4accbb4696915809c0ef7023ffe7ba9454e94d49fb652aae1d5\n        /* \"contracts/lottery.sol\":2782:2791  lotteryId */\n      sload(0x05)\n        /* \"contracts/lottery.sol\":2793:2802  msg.value */\n      callvalue\n        /* \"contracts/lottery.sol\":2757:2803  TicketBought(msg.sender, lotteryId, msg.value) */\n      mload(0x40)\n      tag_101\n      swap3\n      swap2\n      swap1\n      tag_102\n      jump\t// in\n    tag_101:\n      mload(0x40)\n      dup1\n      swap2\n      sub\n      swap1\n      log2\n        /* \"contracts/lottery.sol\":2895:2910  playerThreshold */\n      sload(0x04)\n        /* \"contracts/lottery.sol\":2877:2884  players */\n      0x07\n        /* \"contracts/lottery.sol\":2877:2891  players.length */\n      dup1\n      sload\n      swap1\n      pop\n        /* \"contracts/lottery.sol\":2877:2910  players.length >= playerThreshold */\n      lt\n        /* \"contracts/lottery.sol\":2873:2950  if (players.length >= playerThreshold) {... */\n      tag_103\n      jumpi\n        /* \"contracts/lottery.sol\":2926:2939  _drawWinner() */\n      tag_104\n        /* \"contracts/lottery.sol\":2926:2937  _drawWinner */\n      tag_105\n        /* \"contracts/lottery.sol\":2926:2939  _drawWinner() */\n      jump\t// in\n    tag_104:\n        /* \"contracts/lottery.sol\":2873:2950  if (players.length >= playerThreshold) {... */\n    tag_103:\n        /* \"contracts/lottery.sol\":2140:2956  {... */\n      pop\n      pop\n        /* \"contracts/lottery.sol\":2104:2956  function buyTicket() public payable {... */\n      jump\t// out\n        /* \"@openzeppelin/contracts/access/Ownable.sol\":2543:2758  function transferOwnership(address newOwner) public virtual onlyOwner {... */\n    tag_70:\n        /* \"@openzeppelin/contracts/access/Ownable.sol\":1531:1544  _checkOwner() */\n      tag_107\n        /* \"@openzeppelin/contracts/access/Ownable.sol\":1531:1542  _checkOwner */\n      tag_79\n        /* \"@openzeppelin/contracts/access/Ownable.sol\":1531:1544  _checkOwner() */\n      jump\t// in\n    tag_107:\n        /* \"@openzeppelin/contracts/access/Ownable.sol\":2647:2648  0 */\n      0x00\n        /* \"@openzeppelin/contracts/access/Ownable.sol\":2627:2649  newOwner == address(0) */\n      0xffffffffffffffffffffffffffffffffffffffff\n      and\n        /* \"@openzeppelin/contracts/access/Ownable.sol\":2627:2635  newOwner */\n      dup2\n        /* \"@openzeppelin/contracts/access/Ownable.sol\":2627:2649  newOwner == address(0) */\n      0xffffffffffffffffffffffffffffffffffffffff\n      and\n      sub\n        /* \"@openzeppelin/contracts/access/Ownable.sol\":2623:2714  if (newOwner == address(0)) {... */\n      tag_109\n      jumpi\n        /* \"@openzeppelin/contracts/access/Ownable.sol\":2700:2701  0 */\n      0x00\n        /* \"@openzeppelin/contracts/access/Ownable.sol\":2672:2703  OwnableInvalidOwner(address(0)) */\n      mload(0x40)\n      0x1e4fbdf700000000000000000000000000000000000000000000000000000000\n      dup2\n      mstore\n      0x04\n      add\n      tag_110\n      swap2\n      swap1\n      tag_35\n      jump\t// in\n    tag_110:\n      mload(0x40)\n      dup1\n      swap2\n      sub\n      swap1\n      revert\n        /* \"@openzeppelin/contracts/access/Ownable.sol\":2623:2714  if (newOwner == address(0)) {... */\n    tag_109:\n        /* \"@openzeppelin/contracts/access/Ownable.sol\":2723:2751  _transferOwnership(newOwner) */\n      tag_111\n        /* \"@openzeppelin/contracts/access/Ownable.sol\":2742:2750  newOwner */\n      dup2\n        /* \"@openzeppelin/contracts/access/Ownable.sol\":2723:2741  _transferOwnership */\n      tag_82\n        /* \"@openzeppelin/contracts/access/Ownable.sol\":2723:2751  _transferOwnership(newOwner) */\n      jump\t// in\n    tag_111:\n        /* \"@openzeppelin/contracts/access/Ownable.sol\":2543:2758  function transferOwnership(address newOwner) public virtual onlyOwner {... */\n      pop\n      jump\t// out\n        /* \"contracts/lottery.sol\":1006:1030  address[] public players */\n    tag_75:\n      0x07\n      dup2\n      dup2\n      sload\n      dup2\n      lt\n      tag_112\n      jumpi\n      0x00\n      dup1\n      revert\n    tag_112:\n      swap1\n      0x00\n      mstore\n      keccak256(0x00, 0x20)\n      add\n      0x00\n      swap2\n      pop\n      sload\n      swap1\n      0x0100\n      exp\n      swap1\n      div\n      0xffffffffffffffffffffffffffffffffffffffff\n      and\n      dup2\n      jump\t// out\n        /* \"@openzeppelin/contracts/access/Ownable.sol\":1796:1958  function _checkOwner() internal view virtual {... */\n    tag_79:\n        /* \"@openzeppelin/contracts/access/Ownable.sol\":1866:1878  _msgSender() */\n      tag_115\n        /* \"@openzeppelin/contracts/access/Ownable.sol\":1866:1876  _msgSender */\n      tag_116\n        /* \"@openzeppelin/contracts/access/Ownable.sol\":1866:1878  _msgSender() */\n      jump\t// in\n    tag_115:\n        /* \"@openzeppelin/contracts/access/Ownable.sol\":1855:1878  owner() != _msgSender() */\n      0xffffffffffffffffffffffffffffffffffffffff\n      and\n        /* \"@openzeppelin/contracts/access/Ownable.sol\":1855:1862  owner() */\n      tag_117\n        /* \"@openzeppelin/contracts/access/Ownable.sol\":1855:1860  owner */\n      tag_33\n        /* \"@openzeppelin/contracts/access/Ownable.sol\":1855:1862  owner() */\n      jump\t// in\n    tag_117:\n        /* \"@openzeppelin/contracts/access/Ownable.sol\":1855:1878  owner() != _msgSender() */\n      0xffffffffffffffffffffffffffffffffffffffff\n      and\n      eq\n        /* \"@openzeppelin/contracts/access/Ownable.sol\":1851:1952  if (owner() != _msgSender()) {... */\n      tag_118\n      jumpi\n        /* \"@openzeppelin/contracts/access/Ownable.sol\":1928:1940  _msgSender() */\n      tag_119\n        /* \"@openzeppelin/contracts/access/Ownable.sol\":1928:1938  _msgSender */\n      tag_116\n        /* \"@openzeppelin/contracts/access/Ownable.sol\":1928:1940  _msgSender() */\n      jump\t// in\n    tag_119:\n        /* \"@openzeppelin/contracts/access/Ownable.sol\":1901:1941  OwnableUnauthorizedAccount(_msgSender()) */\n      mload(0x40)\n      0x118cdaa700000000000000000000000000000000000000000000000000000000\n      dup2\n      mstore\n      0x04\n      add\n      tag_120\n      swap2\n      swap1\n      tag_35\n      jump\t// in\n    tag_120:\n      mload(0x40)\n      dup1\n      swap2\n      sub\n      swap1\n      revert\n        /* \"@openzeppelin/contracts/access/Ownable.sol\":1851:1952  if (owner() != _msgSender()) {... */\n    tag_118:\n        /* \"@openzeppelin/contracts/access/Ownable.sol\":1796:1958  function _checkOwner() internal view virtual {... */\n      jump\t// out\n        /* \"@openzeppelin/contracts/access/Ownable.sol\":2912:3099  function _transferOwnership(address newOwner) internal virtual {... */\n    tag_82:\n        /* \"@openzeppelin/contracts/access/Ownable.sol\":2985:3001  address oldOwner */\n      0x00\n        /* \"@openzeppelin/contracts/access/Ownable.sol\":3004:3010  _owner */\n      0x00\n      0x00\n      swap1\n      sload\n      swap1\n      0x0100\n      exp\n      swap1\n      div\n      0xffffffffffffffffffffffffffffffffffffffff\n      and\n        /* \"@openzeppelin/contracts/access/Ownable.sol\":2985:3010  address oldOwner = _owner */\n      swap1\n      pop\n        /* \"@openzeppelin/contracts/access/Ownable.sol\":3029:3037  newOwner */\n      dup2\n        /* \"@openzeppelin/contracts/access/Ownable.sol\":3020:3026  _owner */\n      0x00\n      0x00\n        /* \"@openzeppelin/contracts/access/Ownable.sol\":3020:3037  _owner = newOwner */\n      0x0100\n      exp\n      dup2\n      sload\n      dup2\n      0xffffffffffffffffffffffffffffffffffffffff\n      mul\n      not\n      and\n      swap1\n      dup4\n      0xffffffffffffffffffffffffffffffffffffffff\n      and\n      mul\n      or\n      swap1\n      sstore\n      pop\n        /* \"@openzeppelin/contracts/access/Ownable.sol\":3083:3091  newOwner */\n      dup2\n        /* \"@openzeppelin/contracts/access/Ownable.sol\":3052:3092  OwnershipTransferred(oldOwner, newOwner) */\n      0xffffffffffffffffffffffffffffffffffffffff\n      and\n        /* \"@openzeppelin/contracts/access/Ownable.sol\":3073:3081  oldOwner */\n      dup2\n        /* \"@openzeppelin/contracts/access/Ownable.sol\":3052:3092  OwnershipTransferred(oldOwner, newOwner) */\n      0xffffffffffffffffffffffffffffffffffffffff\n      and\n      0x8be0079c531659141344cd1fd0a4f28419497f9722a3daafe3b4186f6b6457e0\n      mload(0x40)\n      mload(0x40)\n      dup1\n      swap2\n      sub\n      swap1\n      log3\n        /* \"@openzeppelin/contracts/access/Ownable.sol\":2975:3099  {... */\n      pop\n        /* \"@openzeppelin/contracts/access/Ownable.sol\":2912:3099  function _transferOwnership(address newOwner) internal virtual {... */\n      pop\n      jump\t// out\n        /* \"contracts/lottery.sol\":3187:4062  function _drawWinner() private {... */\n    tag_105:\n        /* \"contracts/lottery.sol\":3543:3563  uint256 randomNumber */\n      0x00\n        /* \"contracts/lottery.sol\":3601:3616  block.timestamp */\n      timestamp\n        /* \"contracts/lottery.sol\":3618:3634  block.difficulty */\n      prevrandao\n        /* \"contracts/lottery.sol\":3636:3643  players */\n      0x07\n        /* \"contracts/lottery.sol\":3636:3650  players.length */\n      dup1\n      sload\n      swap1\n      pop\n        /* \"contracts/lottery.sol\":3652:3661  lotteryId */\n      sload(0x05)\n        /* \"contracts/lottery.sol\":3584:3662  abi.encodePacked(block.timestamp, block.difficulty, players.length, lotteryId) */\n      add(0x20, mload(0x40))\n      tag_123\n      swap5\n      swap4\n      swap3\n      swap2\n      swap1\n      tag_124\n      jump\t// in\n    tag_123:\n      mload(0x40)\n      0x20\n      dup2\n      dup4\n      sub\n      sub\n      dup2\n      mstore\n      swap1\n      0x40\n      mstore\n        /* \"contracts/lottery.sol\":3574:3663  keccak256(abi.encodePacked(block.timestamp, block.difficulty, players.length, lotteryId)) */\n      dup1\n      mload\n      swap1\n      0x20\n      add\n      keccak256\n        /* \"contracts/lottery.sol\":3566:3664  uint256(keccak256(abi.encodePacked(block.timestamp, block.difficulty, players.length, lotteryId))) */\n      0x00\n      shr\n        /* \"contracts/lottery.sol\":3543:3664  uint256 randomNumber = uint256(keccak256(abi.encodePacked(block.timestamp, block.difficulty, players.length, lotteryId))) */\n      swap1\n      pop\n        /* \"contracts/lottery.sol\":3674:3693  uint256 winnerIndex */\n      0x00\n        /* \"contracts/lottery.sol\":3711:3718  players */\n      0x07\n        /* \"contracts/lottery.sol\":3711:3725  players.length */\n      dup1\n      sload\n      swap1\n      pop\n        /* \"contracts/lottery.sol\":3696:3708  randomNumber */\n      dup3\n        /* \"contracts/lottery.sol\":3696:3725  randomNumber % players.length */\n      tag_125\n      swap2\n      swap1\n      tag_126\n      jump\t// in\n    tag_125:\n        /* \"contracts/lottery.sol\":3674:3725  uint256 winnerIndex = randomNumber % players.length */\n      swap1\n      pop\n        /* \"contracts/lottery.sol\":3745:3752  players */\n      0x07\n        /* \"contracts/lottery.sol\":3753:3764  winnerIndex */\n      dup2\n        /* \"contracts/lottery.sol\":3745:3765  players[winnerIndex] */\n      dup2\n      sload\n      dup2\n      lt\n      tag_127\n      jumpi\n      tag_128\n      tag_129\n      jump\t// in\n    tag_128:\n    tag_127:\n      swap1\n      0x00\n      mstore\n      keccak256(0x00, 0x20)\n      add\n      0x00\n      swap1\n      sload\n      swap1\n      0x0100\n      exp\n      swap1\n      div\n      0xffffffffffffffffffffffffffffffffffffffff\n      and\n        /* \"contracts/lottery.sol\":3736:3742  winner */\n      0x06\n      0x00\n        /* \"contracts/lottery.sol\":3736:3765  winner = players[winnerIndex] */\n      0x0100\n      exp\n      dup2\n      sload\n      dup2\n      0xffffffffffffffffffffffffffffffffffffffff\n      mul\n      not\n      and\n      swap1\n      dup4\n      0xffffffffffffffffffffffffffffffffffffffff\n      and\n      mul\n      or\n      swap1\n      sstore\n      pop\n        /* \"contracts/lottery.sol\":3849:3855  winner */\n      0x06\n      0x00\n      swap1\n      sload\n      swap1\n      0x0100\n      exp\n      swap1\n      div\n      0xffffffffffffffffffffffffffffffffffffffff\n      and\n        /* \"contracts/lottery.sol\":3841:3865  payable(winner).transfer */\n      0xffffffffffffffffffffffffffffffffffffffff\n      and\n        /* \"contracts/lottery.sol\":3841:3885  payable(winner).transfer(currentWinningPool) */\n      0x08fc\n        /* \"contracts/lottery.sol\":3866:3884  currentWinningPool */\n      sload(0x03)\n        /* \"contracts/lottery.sol\":3841:3885  payable(winner).transfer(currentWinningPool) */\n      swap1\n      dup2\n      iszero\n      mul\n      swap1\n      mload(0x40)\n      0x00\n      mload(0x40)\n      dup1\n      dup4\n      sub\n      dup2\n      dup6\n      dup9\n      dup9\n      call\n      swap4\n      pop\n      pop\n      pop\n      pop\n      iszero\n      dup1\n      iszero\n      tag_132\n      jumpi\n      returndatacopy(0x00, 0x00, returndatasize)\n      revert(0x00, returndatasize)\n    tag_132:\n      pop\n        /* \"contracts/lottery.sol\":3992:3998  winner */\n      0x06\n      0x00\n      swap1\n      sload\n      swap1\n      0x0100\n      exp\n      swap1\n      div\n      0xffffffffffffffffffffffffffffffffffffffff\n      and\n        /* \"contracts/lottery.sol\":3980:4030  WinnerDrawn(winner, currentWinningPool, lotteryId) */\n      0xffffffffffffffffffffffffffffffffffffffff\n      and\n      0x32804edb90d6a988a75e0ab375c90f92354ea0534bbbedb460028c6b26eaf57f\n        /* \"contracts/lottery.sol\":4000:4018  currentWinningPool */\n      sload(0x03)\n        /* \"contracts/lottery.sol\":4020:4029  lotteryId */\n      sload(0x05)\n        /* \"contracts/lottery.sol\":3980:4030  WinnerDrawn(winner, currentWinningPool, lotteryId) */\n      mload(0x40)\n      tag_133\n      swap3\n      swap2\n      swap1\n      tag_102\n      jump\t// in\n    tag_133:\n      mload(0x40)\n      dup1\n      swap2\n      sub\n      swap1\n      log2\n        /* \"contracts/lottery.sol\":4040:4055  _resetLottery() */\n      tag_134\n        /* \"contracts/lottery.sol\":4040:4053  _resetLottery */\n      tag_135\n        /* \"contracts/lottery.sol\":4040:4055  _resetLottery() */\n      jump\t// in\n    tag_134:\n        /* \"contracts/lottery.sol\":3218:4062  {... */\n      pop\n      pop\n        /* \"contracts/lottery.sol\":3187:4062  function _drawWinner() private {... */\n      jump\t// out\n        /* \"@openzeppelin/contracts/utils/Context.sol\":656:752  function _msgSender() internal view virtual returns (address) {... */\n    tag_116:\n        /* \"@openzeppelin/contracts/utils/Context.sol\":709:716  address */\n      0x00\n        /* \"@openzeppelin/contracts/utils/Context.sol\":735:745  msg.sender */\n      caller\n        /* \"@openzeppelin/contracts/utils/Context.sol\":728:745  return msg.sender */\n      swap1\n      pop\n        /* \"@openzeppelin/contracts/utils/Context.sol\":656:752  function _msgSender() internal view virtual returns (address) {... */\n      swap1\n      jump\t// out\n        /* \"contracts/lottery.sol\":4141:4408  function _resetLottery() private {... */\n    tag_135:\n        /* \"contracts/lottery.sol\":4208:4209  0 */\n      0x00\n        /* \"contracts/lottery.sol\":4194:4210  new address[](0) */\n      0xffffffffffffffff\n      dup2\n      gt\n      iszero\n      tag_138\n      jumpi\n      tag_139\n      tag_140\n      jump\t// in\n    tag_139:\n    tag_138:\n      mload(0x40)\n      swap1\n      dup1\n      dup3\n      mstore\n      dup1\n      0x20\n      mul\n      0x20\n      add\n      dup3\n      add\n      0x40\n      mstore\n      dup1\n      iszero\n      tag_141\n      jumpi\n      dup2\n      0x20\n      add\n      0x20\n      dup3\n      mul\n      dup1\n      calldatasize\n      dup4\n      calldatacopy\n      dup1\n      dup3\n      add\n      swap2\n      pop\n      pop\n      swap1\n      pop\n    tag_141:\n      pop\n        /* \"contracts/lottery.sol\":4184:4191  players */\n      0x07\n        /* \"contracts/lottery.sol\":4184:4210  players = new address[](0) */\n      swap1\n      dup1\n      mload\n      swap1\n      0x20\n      add\n      swap1\n      tag_142\n      swap3\n      swap2\n      swap1\n      tag_143\n      jump\t// in\n    tag_142:\n      pop\n        /* \"contracts/lottery.sol\":4310:4313  100 */\n      0x64\n        /* \"contracts/lottery.sol\":579:581  20 */\n      0x14\n        /* \"contracts/lottery.sol\":4263:4281  initialTicketPrice */\n      sload(0x01)\n        /* \"contracts/lottery.sol\":4263:4306  initialTicketPrice * JACKPOT_CUT_PERCENTAGE */\n      tag_144\n      swap2\n      swap1\n      tag_91\n      jump\t// in\n    tag_144:\n        /* \"contracts/lottery.sol\":4262:4313  (initialTicketPrice * JACKPOT_CUT_PERCENTAGE) / 100 */\n      tag_145\n      swap2\n      swap1\n      tag_93\n      jump\t// in\n    tag_145:\n        /* \"contracts/lottery.sol\":4241:4259  initialTicketPrice */\n      sload(0x01)\n        /* \"contracts/lottery.sol\":4241:4313  initialTicketPrice + (initialTicketPrice * JACKPOT_CUT_PERCENTAGE) / 100 */\n      tag_146\n      swap2\n      swap1\n      tag_100\n      jump\t// in\n    tag_146:\n        /* \"contracts/lottery.sol\":4220:4238  currentWinningPool */\n      0x03\n        /* \"contracts/lottery.sol\":4220:4313  currentWinningPool = initialTicketPrice + (initialTicketPrice * JACKPOT_CUT_PERCENTAGE) / 100 */\n      dup2\n      swap1\n      sstore\n      pop\n        /* \"contracts/lottery.sol\":4323:4332  lotteryId */\n      0x05\n      0x00\n        /* \"contracts/lottery.sol\":4323:4334  lotteryId++ */\n      dup2\n      sload\n      dup1\n      swap3\n      swap2\n      swap1\n      tag_147\n      swap1\n      tag_148\n      jump\t// in\n    tag_147:\n      swap2\n      swap1\n      pop\n      sstore\n      pop\n        /* \"contracts/lottery.sol\":4361:4362  0 */\n      0x00\n        /* \"contracts/lottery.sol\":4344:4350  winner */\n      0x06\n      0x00\n        /* \"contracts/lottery.sol\":4344:4363  winner = address(0) */\n      0x0100\n      exp\n      dup2\n      sload\n      dup2\n      0xffffffffffffffffffffffffffffffffffffffff\n      mul\n      not\n      and\n      swap1\n      dup4\n      0xffffffffffffffffffffffffffffffffffffffff\n      and\n      mul\n      or\n      swap1\n      sstore\n      pop\n        /* \"contracts/lottery.sol\":4378:4401  LotteryReset(lotteryId) */\n      0x6564d21026f38ac4bc4ef082b01864f3ae6869e139a373fdf664a27a6c6dbebb\n        /* \"contracts/lottery.sol\":4391:4400  lotteryId */\n      sload(0x05)\n        /* \"contracts/lottery.sol\":4378:4401  LotteryReset(lotteryId) */\n      mload(0x40)\n      tag_149\n      swap2\n      swap1\n      tag_23\n      jump\t// in\n    tag_149:\n      mload(0x40)\n      dup1\n      swap2\n      sub\n      swap1\n      log1\n        /* \"contracts/lottery.sol\":4141:4408  function _resetLottery() private {... */\n      jump\t// out\n    tag_143:\n      dup3\n      dup1\n      sload\n      dup3\n      dup3\n      sstore\n      swap1\n      0x00\n      mstore\n      keccak256(0x00, 0x20)\n      swap1\n      dup2\n      add\n      swap3\n      dup3\n      iszero\n      tag_150\n      jumpi\n      swap2\n      0x20\n      mul\n      dup3\n      add\n    tag_151:\n      dup3\n      dup2\n      gt\n      iszero\n      tag_152\n      jumpi\n      dup3\n      mload\n      dup3\n      exp(0x0100, 0x00)\n      dup2\n      sload\n      dup2\n      0xffffffffffffffffffffffffffffffffffffffff\n      mul\n      not\n      and\n      swap1\n      dup4\n      0xffffffffffffffffffffffffffffffffffffffff\n      and\n      mul\n      or\n      swap1\n      sstore\n      pop\n      swap2\n      0x20\n      add\n      swap2\n      swap1\n      0x01\n      add\n      swap1\n      jump(tag_151)\n    tag_152:\n    tag_150:\n      pop\n      swap1\n      pop\n      tag_153\n      swap2\n      swap1\n      tag_154\n      jump\t// in\n    tag_153:\n      pop\n      swap1\n      jump\t// out\n    tag_154:\n    tag_155:\n      dup1\n      dup3\n      gt\n      iszero\n      tag_156\n      jumpi\n      0x00\n      dup2\n      0x00\n      swap1\n      sstore\n      pop\n      0x01\n      add\n      jump(tag_155)\n    tag_156:\n      pop\n      swap1\n      jump\t// out\n        /* \"#utility.yul\":7:84   */\n    tag_157:\n        /* \"#utility.yul\":44:51   */\n      0x00\n        /* \"#utility.yul\":73:78   */\n      dup2\n        /* \"#utility.yul\":62:78   */\n      swap1\n      pop\n        /* \"#utility.yul\":7:84   */\n      swap2\n      swap1\n      pop\n      jump\t// out\n        /* \"#utility.yul\":90:208   */\n    tag_158:\n        /* \"#utility.yul\":177:201   */\n      tag_179\n        /* \"#utility.yul\":195:200   */\n      dup2\n        /* \"#utility.yul\":177:201   */\n      tag_157\n      jump\t// in\n    tag_179:\n        /* \"#utility.yul\":172:175   */\n      dup3\n        /* \"#utility.yul\":165:202   */\n      mstore\n        /* \"#utility.yul\":90:208   */\n      pop\n      pop\n      jump\t// out\n        /* \"#utility.yul\":214:436   */\n    tag_23:\n        /* \"#utility.yul\":307:311   */\n      0x00\n        /* \"#utility.yul\":345:347   */\n      0x20\n        /* \"#utility.yul\":334:343   */\n      dup3\n        /* \"#utility.yul\":330:348   */\n      add\n        /* \"#utility.yul\":322:348   */\n      swap1\n      pop\n        /* \"#utility.yul\":358:429   */\n      tag_181\n        /* \"#utility.yul\":426:427   */\n      0x00\n        /* \"#utility.yul\":415:424   */\n      dup4\n        /* \"#utility.yul\":411:428   */\n      add\n        /* \"#utility.yul\":402:408   */\n      dup5\n        /* \"#utility.yul\":358:429   */\n      tag_158\n      jump\t// in\n    tag_181:\n        /* \"#utility.yul\":214:436   */\n      swap3\n      swap2\n      pop\n      pop\n      jump\t// out\n        /* \"#utility.yul\":442:568   */\n    tag_159:\n        /* \"#utility.yul\":479:486   */\n      0x00\n        /* \"#utility.yul\":519:561   */\n      0xffffffffffffffffffffffffffffffffffffffff\n        /* \"#utility.yul\":512:517   */\n      dup3\n        /* \"#utility.yul\":508:562   */\n      and\n        /* \"#utility.yul\":497:562   */\n      swap1\n      pop\n        /* \"#utility.yul\":442:568   */\n      swap2\n      swap1\n      pop\n      jump\t// out\n        /* \"#utility.yul\":574:670   */\n    tag_160:\n        /* \"#utility.yul\":611:618   */\n      0x00\n        /* \"#utility.yul\":640:664   */\n      tag_184\n        /* \"#utility.yul\":658:663   */\n      dup3\n        /* \"#utility.yul\":640:664   */\n      tag_159\n      jump\t// in\n    tag_184:\n        /* \"#utility.yul\":629:664   */\n      swap1\n      pop\n        /* \"#utility.yul\":574:670   */\n      swap2\n      swap1\n      pop\n      jump\t// out\n        /* \"#utility.yul\":676:794   */\n    tag_161:\n        /* \"#utility.yul\":763:787   */\n      tag_186\n        /* \"#utility.yul\":781:786   */\n      dup2\n        /* \"#utility.yul\":763:787   */\n      tag_160\n      jump\t// in\n    tag_186:\n        /* \"#utility.yul\":758:761   */\n      dup3\n        /* \"#utility.yul\":751:788   */\n      mstore\n        /* \"#utility.yul\":676:794   */\n      pop\n      pop\n      jump\t// out\n        /* \"#utility.yul\":800:1022   */\n    tag_35:\n        /* \"#utility.yul\":893:897   */\n      0x00\n        /* \"#utility.yul\":931:933   */\n      0x20\n        /* \"#utility.yul\":920:929   */\n      dup3\n        /* \"#utility.yul\":916:934   */\n      add\n        /* \"#utility.yul\":908:934   */\n      swap1\n      pop\n        /* \"#utility.yul\":944:1015   */\n      tag_188\n        /* \"#utility.yul\":1012:1013   */\n      0x00\n        /* \"#utility.yul\":1001:1010   */\n      dup4\n        /* \"#utility.yul\":997:1014   */\n      add\n        /* \"#utility.yul\":988:994   */\n      dup5\n        /* \"#utility.yul\":944:1015   */\n      tag_161\n      jump\t// in\n    tag_188:\n        /* \"#utility.yul\":800:1022   */\n      swap3\n      swap2\n      pop\n      pop\n      jump\t// out\n        /* \"#utility.yul\":1109:1226   */\n    tag_163:\n        /* \"#utility.yul\":1218:1219   */\n      0x00\n        /* \"#utility.yul\":1215:1216   */\n      0x00\n        /* \"#utility.yul\":1208:1220   */\n      revert\n        /* \"#utility.yul\":1355:1477   */\n    tag_165:\n        /* \"#utility.yul\":1428:1452   */\n      tag_193\n        /* \"#utility.yul\":1446:1451   */\n      dup2\n        /* \"#utility.yul\":1428:1452   */\n      tag_160\n      jump\t// in\n    tag_193:\n        /* \"#utility.yul\":1421:1426   */\n      dup2\n        /* \"#utility.yul\":1418:1453   */\n      eq\n        /* \"#utility.yul\":1408:1471   */\n      tag_194\n      jumpi\n        /* \"#utility.yul\":1467:1468   */\n      0x00\n        /* \"#utility.yul\":1464:1465   */\n      0x00\n        /* \"#utility.yul\":1457:1469   */\n      revert\n        /* \"#utility.yul\":1408:1471   */\n    tag_194:\n        /* \"#utility.yul\":1355:1477   */\n      pop\n      jump\t// out\n        /* \"#utility.yul\":1483:1622   */\n    tag_166:\n        /* \"#utility.yul\":1529:1534   */\n      0x00\n        /* \"#utility.yul\":1567:1573   */\n      dup2\n        /* \"#utility.yul\":1554:1574   */\n      calldataload\n        /* \"#utility.yul\":1545:1574   */\n      swap1\n      pop\n        /* \"#utility.yul\":1583:1616   */\n      tag_196\n        /* \"#utility.yul\":1610:1615   */\n      dup2\n        /* \"#utility.yul\":1583:1616   */\n      tag_165\n      jump\t// in\n    tag_196:\n        /* \"#utility.yul\":1483:1622   */\n      swap3\n      swap2\n      pop\n      pop\n      jump\t// out\n        /* \"#utility.yul\":1628:1957   */\n    tag_69:\n        /* \"#utility.yul\":1687:1693   */\n      0x00\n        /* \"#utility.yul\":1736:1738   */\n      0x20\n        /* \"#utility.yul\":1724:1733   */\n      dup3\n        /* \"#utility.yul\":1715:1722   */\n      dup5\n        /* \"#utility.yul\":1711:1734   */\n      sub\n        /* \"#utility.yul\":1707:1739   */\n      slt\n        /* \"#utility.yul\":1704:1823   */\n      iszero\n      tag_198\n      jumpi\n        /* \"#utility.yul\":1742:1821   */\n      tag_199\n      tag_163\n      jump\t// in\n    tag_199:\n        /* \"#utility.yul\":1704:1823   */\n    tag_198:\n        /* \"#utility.yul\":1862:1863   */\n      0x00\n        /* \"#utility.yul\":1887:1940   */\n      tag_200\n        /* \"#utility.yul\":1932:1939   */\n      dup5\n        /* \"#utility.yul\":1923:1929   */\n      dup3\n        /* \"#utility.yul\":1912:1921   */\n      dup6\n        /* \"#utility.yul\":1908:1930   */\n      add\n        /* \"#utility.yul\":1887:1940   */\n      tag_166\n      jump\t// in\n    tag_200:\n        /* \"#utility.yul\":1877:1940   */\n      swap2\n      pop\n        /* \"#utility.yul\":1833:1950   */\n      pop\n        /* \"#utility.yul\":1628:1957   */\n      swap3\n      swap2\n      pop\n      pop\n      jump\t// out\n        /* \"#utility.yul\":1963:2085   */\n    tag_167:\n        /* \"#utility.yul\":2036:2060   */\n      tag_202\n        /* \"#utility.yul\":2054:2059   */\n      dup2\n        /* \"#utility.yul\":2036:2060   */\n      tag_157\n      jump\t// in\n    tag_202:\n        /* \"#utility.yul\":2029:2034   */\n      dup2\n        /* \"#utility.yul\":2026:2061   */\n      eq\n        /* \"#utility.yul\":2016:2079   */\n      tag_203\n      jumpi\n        /* \"#utility.yul\":2075:2076   */\n      0x00\n        /* \"#utility.yul\":2072:2073   */\n      0x00\n        /* \"#utility.yul\":2065:2077   */\n      revert\n        /* \"#utility.yul\":2016:2079   */\n    tag_203:\n        /* \"#utility.yul\":1963:2085   */\n      pop\n      jump\t// out\n        /* \"#utility.yul\":2091:2230   */\n    tag_168:\n        /* \"#utility.yul\":2137:2142   */\n      0x00\n        /* \"#utility.yul\":2175:2181   */\n      dup2\n        /* \"#utility.yul\":2162:2182   */\n      calldataload\n        /* \"#utility.yul\":2153:2182   */\n      swap1\n      pop\n        /* \"#utility.yul\":2191:2224   */\n      tag_205\n        /* \"#utility.yul\":2218:2223   */\n      dup2\n        /* \"#utility.yul\":2191:2224   */\n      tag_167\n      jump\t// in\n    tag_205:\n        /* \"#utility.yul\":2091:2230   */\n      swap3\n      swap2\n      pop\n      pop\n      jump\t// out\n        /* \"#utility.yul\":2236:2565   */\n    tag_74:\n        /* \"#utility.yul\":2295:2301   */\n      0x00\n        /* \"#utility.yul\":2344:2346   */\n      0x20\n        /* \"#utility.yul\":2332:2341   */\n      dup3\n        /* \"#utility.yul\":2323:2330   */\n      dup5\n        /* \"#utility.yul\":2319:2342   */\n      sub\n        /* \"#utility.yul\":2315:2347   */\n      slt\n        /* \"#utility.yul\":2312:2431   */\n      iszero\n      tag_207\n      jumpi\n        /* \"#utility.yul\":2350:2429   */\n      tag_208\n      tag_163\n      jump\t// in\n    tag_208:\n        /* \"#utility.yul\":2312:2431   */\n    tag_207:\n        /* \"#utility.yul\":2470:2471   */\n      0x00\n        /* \"#utility.yul\":2495:2548   */\n      tag_209\n        /* \"#utility.yul\":2540:2547   */\n      dup5\n        /* \"#utility.yul\":2531:2537   */\n      dup3\n        /* \"#utility.yul\":2520:2529   */\n      dup6\n        /* \"#utility.yul\":2516:2538   */\n      add\n        /* \"#utility.yul\":2495:2548   */\n      tag_168\n      jump\t// in\n    tag_209:\n        /* \"#utility.yul\":2485:2548   */\n      swap2\n      pop\n        /* \"#utility.yul\":2441:2558   */\n      pop\n        /* \"#utility.yul\":2236:2565   */\n      swap3\n      swap2\n      pop\n      pop\n      jump\t// out\n        /* \"#utility.yul\":2571:2740   */\n    tag_169:\n        /* \"#utility.yul\":2655:2666   */\n      0x00\n        /* \"#utility.yul\":2689:2695   */\n      dup3\n        /* \"#utility.yul\":2684:2687   */\n      dup3\n        /* \"#utility.yul\":2677:2696   */\n      mstore\n        /* \"#utility.yul\":2729:2733   */\n      0x20\n        /* \"#utility.yul\":2724:2727   */\n      dup3\n        /* \"#utility.yul\":2720:2734   */\n      add\n        /* \"#utility.yul\":2705:2734   */\n      swap1\n      pop\n        /* \"#utility.yul\":2571:2740   */\n      swap3\n      swap2\n      pop\n      pop\n      jump\t// out\n        /* \"#utility.yul\":2746:2923   */\n    tag_170:\n        /* \"#utility.yul\":2886:2915   */\n      0x496e636f7272656374207469636b65742070726963652073656e740000000000\n        /* \"#utility.yul\":2882:2883   */\n      0x00\n        /* \"#utility.yul\":2874:2880   */\n      dup3\n        /* \"#utility.yul\":2870:2884   */\n      add\n        /* \"#utility.yul\":2863:2916   */\n      mstore\n        /* \"#utility.yul\":2746:2923   */\n      pop\n      jump\t// out\n        /* \"#utility.yul\":2929:3295   */\n    tag_171:\n        /* \"#utility.yul\":3071:3074   */\n      0x00\n        /* \"#utility.yul\":3092:3159   */\n      tag_213\n        /* \"#utility.yul\":3156:3158   */\n      0x1b\n        /* \"#utility.yul\":3151:3154   */\n      dup4\n        /* \"#utility.yul\":3092:3159   */\n      tag_169\n      jump\t// in\n    tag_213:\n        /* \"#utility.yul\":3085:3159   */\n      swap2\n      pop\n        /* \"#utility.yul\":3168:3261   */\n      tag_214\n        /* \"#utility.yul\":3257:3260   */\n      dup3\n        /* \"#utility.yul\":3168:3261   */\n      tag_170\n      jump\t// in\n    tag_214:\n        /* \"#utility.yul\":3286:3288   */\n      0x20\n        /* \"#utility.yul\":3281:3284   */\n      dup3\n        /* \"#utility.yul\":3277:3289   */\n      add\n        /* \"#utility.yul\":3270:3289   */\n      swap1\n      pop\n        /* \"#utility.yul\":2929:3295   */\n      swap2\n      swap1\n      pop\n      jump\t// out\n        /* \"#utility.yul\":3301:3720   */\n    tag_88:\n        /* \"#utility.yul\":3467:3471   */\n      0x00\n        /* \"#utility.yul\":3505:3507   */\n      0x20\n        /* \"#utility.yul\":3494:3503   */\n      dup3\n        /* \"#utility.yul\":3490:3508   */\n      add\n        /* \"#utility.yul\":3482:3508   */\n      swap1\n      pop\n        /* \"#utility.yul\":3554:3563   */\n      dup2\n        /* \"#utility.yul\":3548:3552   */\n      dup2\n        /* \"#utility.yul\":3544:3564   */\n      sub\n        /* \"#utility.yul\":3540:3541   */\n      0x00\n        /* \"#utility.yul\":3529:3538   */\n      dup4\n        /* \"#utility.yul\":3525:3542   */\n      add\n        /* \"#utility.yul\":3518:3565   */\n      mstore\n        /* \"#utility.yul\":3582:3713   */\n      tag_216\n        /* \"#utility.yul\":3708:3712   */\n      dup2\n        /* \"#utility.yul\":3582:3713   */\n      tag_171\n      jump\t// in\n    tag_216:\n        /* \"#utility.yul\":3574:3713   */\n      swap1\n      pop\n        /* \"#utility.yul\":3301:3720   */\n      swap2\n      swap1\n      pop\n      jump\t// out\n        /* \"#utility.yul\":3726:3906   */\n    tag_172:\n        /* \"#utility.yul\":3774:3851   */\n      0x4e487b7100000000000000000000000000000000000000000000000000000000\n        /* \"#utility.yul\":3771:3772   */\n      0x00\n        /* \"#utility.yul\":3764:3852   */\n      mstore\n        /* \"#utility.yul\":3871:3875   */\n      0x11\n        /* \"#utility.yul\":3868:3869   */\n      0x04\n        /* \"#utility.yul\":3861:3876   */\n      mstore\n        /* \"#utility.yul\":3895:3899   */\n      0x24\n        /* \"#utility.yul\":3892:3893   */\n      0x00\n        /* \"#utility.yul\":3885:3900   */\n      revert\n        /* \"#utility.yul\":3912:4322   */\n    tag_91:\n        /* \"#utility.yul\":3952:3959   */\n      0x00\n        /* \"#utility.yul\":3975:3995   */\n      tag_219\n        /* \"#utility.yul\":3993:3994   */\n      dup3\n        /* \"#utility.yul\":3975:3995   */\n      tag_157\n      jump\t// in\n    tag_219:\n        /* \"#utility.yul\":3970:3995   */\n      swap2\n      pop\n        /* \"#utility.yul\":4009:4029   */\n      tag_220\n        /* \"#utility.yul\":4027:4028   */\n      dup4\n        /* \"#utility.yul\":4009:4029   */\n      tag_157\n      jump\t// in\n    tag_220:\n        /* \"#utility.yul\":4004:4029   */\n      swap3\n      pop\n        /* \"#utility.yul\":4064:4065   */\n      dup3\n        /* \"#utility.yul\":4061:4062   */\n      dup3\n        /* \"#utility.yul\":4057:4066   */\n      mul\n        /* \"#utility.yul\":4086:4116   */\n      tag_221\n        /* \"#utility.yul\":4104:4115   */\n      dup2\n        /* \"#utility.yul\":4086:4116   */\n      tag_157\n      jump\t// in\n    tag_221:\n        /* \"#utility.yul\":4075:4116   */\n      swap2\n      pop\n        /* \"#utility.yul\":4265:4266   */\n      dup3\n        /* \"#utility.yul\":4256:4263   */\n      dup3\n        /* \"#utility.yul\":4252:4267   */\n      div\n        /* \"#utility.yul\":4249:4250   */\n      dup5\n        /* \"#utility.yul\":4246:4268   */\n      eq\n        /* \"#utility.yul\":4226:4227   */\n      dup4\n        /* \"#utility.yul\":4219:4228   */\n      iszero\n        /* \"#utility.yul\":4199:4282   */\n      or\n        /* \"#utility.yul\":4176:4315   */\n      tag_222\n      jumpi\n        /* \"#utility.yul\":4295:4313   */\n      tag_223\n      tag_172\n      jump\t// in\n    tag_223:\n        /* \"#utility.yul\":4176:4315   */\n    tag_222:\n        /* \"#utility.yul\":3960:4322   */\n      pop\n        /* \"#utility.yul\":3912:4322   */\n      swap3\n      swap2\n      pop\n      pop\n      jump\t// out\n        /* \"#utility.yul\":4328:4508   */\n    tag_173:\n        /* \"#utility.yul\":4376:4453   */\n      0x4e487b7100000000000000000000000000000000000000000000000000000000\n        /* \"#utility.yul\":4373:4374   */\n      0x00\n        /* \"#utility.yul\":4366:4454   */\n      mstore\n        /* \"#utility.yul\":4473:4477   */\n      0x12\n        /* \"#utility.yul\":4470:4471   */\n      0x04\n        /* \"#utility.yul\":4463:4478   */\n      mstore\n        /* \"#utility.yul\":4497:4501   */\n      0x24\n        /* \"#utility.yul\":4494:4495   */\n      0x00\n        /* \"#utility.yul\":4487:4502   */\n      revert\n        /* \"#utility.yul\":4514:4699   */\n    tag_93:\n        /* \"#utility.yul\":4554:4555   */\n      0x00\n        /* \"#utility.yul\":4571:4591   */\n      tag_226\n        /* \"#utility.yul\":4589:4590   */\n      dup3\n        /* \"#utility.yul\":4571:4591   */\n      tag_157\n      jump\t// in\n    tag_226:\n        /* \"#utility.yul\":4566:4591   */\n      swap2\n      pop\n        /* \"#utility.yul\":4605:4625   */\n      tag_227\n        /* \"#utility.yul\":4623:4624   */\n      dup4\n        /* \"#utility.yul\":4605:4625   */\n      tag_157\n      jump\t// in\n    tag_227:\n        /* \"#utility.yul\":4600:4625   */\n      swap3\n      pop\n        /* \"#utility.yul\":4644:4645   */\n      dup3\n        /* \"#utility.yul\":4634:4669   */\n      tag_228\n      jumpi\n        /* \"#utility.yul\":4649:4667   */\n      tag_229\n      tag_173\n      jump\t// in\n    tag_229:\n        /* \"#utility.yul\":4634:4669   */\n    tag_228:\n        /* \"#utility.yul\":4691:4692   */\n      dup3\n        /* \"#utility.yul\":4688:4689   */\n      dup3\n        /* \"#utility.yul\":4684:4693   */\n      div\n        /* \"#utility.yul\":4679:4693   */\n      swap1\n      pop\n        /* \"#utility.yul\":4514:4699   */\n      swap3\n      swap2\n      pop\n      pop\n      jump\t// out\n        /* \"#utility.yul\":4705:4896   */\n    tag_100:\n        /* \"#utility.yul\":4745:4748   */\n      0x00\n        /* \"#utility.yul\":4764:4784   */\n      tag_231\n        /* \"#utility.yul\":4782:4783   */\n      dup3\n        /* \"#utility.yul\":4764:4784   */\n      tag_157\n      jump\t// in\n    tag_231:\n        /* \"#utility.yul\":4759:4784   */\n      swap2\n      pop\n        /* \"#utility.yul\":4798:4818   */\n      tag_232\n        /* \"#utility.yul\":4816:4817   */\n      dup4\n        /* \"#utility.yul\":4798:4818   */\n      tag_157\n      jump\t// in\n    tag_232:\n        /* \"#utility.yul\":4793:4818   */\n      swap3\n      pop\n        /* \"#utility.yul\":4841:4842   */\n      dup3\n        /* \"#utility.yul\":4838:4839   */\n      dup3\n        /* \"#utility.yul\":4834:4843   */\n      add\n        /* \"#utility.yul\":4827:4843   */\n      swap1\n      pop\n        /* \"#utility.yul\":4862:4865   */\n      dup1\n        /* \"#utility.yul\":4859:4860   */\n      dup3\n        /* \"#utility.yul\":4856:4866   */\n      gt\n        /* \"#utility.yul\":4853:4889   */\n      iszero\n      tag_233\n      jumpi\n        /* \"#utility.yul\":4869:4887   */\n      tag_234\n      tag_172\n      jump\t// in\n    tag_234:\n        /* \"#utility.yul\":4853:4889   */\n    tag_233:\n        /* \"#utility.yul\":4705:4896   */\n      swap3\n      swap2\n      pop\n      pop\n      jump\t// out\n        /* \"#utility.yul\":4902:5234   */\n    tag_102:\n        /* \"#utility.yul\":5023:5027   */\n      0x00\n        /* \"#utility.yul\":5061:5063   */\n      0x40\n        /* \"#utility.yul\":5050:5059   */\n      dup3\n        /* \"#utility.yul\":5046:5064   */\n      add\n        /* \"#utility.yul\":5038:5064   */\n      swap1\n      pop\n        /* \"#utility.yul\":5074:5145   */\n      tag_236\n        /* \"#utility.yul\":5142:5143   */\n      0x00\n        /* \"#utility.yul\":5131:5140   */\n      dup4\n        /* \"#utility.yul\":5127:5144   */\n      add\n        /* \"#utility.yul\":5118:5124   */\n      dup6\n        /* \"#utility.yul\":5074:5145   */\n      tag_158\n      jump\t// in\n    tag_236:\n        /* \"#utility.yul\":5155:5227   */\n      tag_237\n        /* \"#utility.yul\":5223:5225   */\n      0x20\n        /* \"#utility.yul\":5212:5221   */\n      dup4\n        /* \"#utility.yul\":5208:5226   */\n      add\n        /* \"#utility.yul\":5199:5205   */\n      dup5\n        /* \"#utility.yul\":5155:5227   */\n      tag_158\n      jump\t// in\n    tag_237:\n        /* \"#utility.yul\":4902:5234   */\n      swap4\n      swap3\n      pop\n      pop\n      pop\n      jump\t// out\n        /* \"#utility.yul\":5240:5319   */\n    tag_174:\n        /* \"#utility.yul\":5279:5286   */\n      0x00\n        /* \"#utility.yul\":5308:5313   */\n      dup2\n        /* \"#utility.yul\":5297:5313   */\n      swap1\n      pop\n        /* \"#utility.yul\":5240:5319   */\n      swap2\n      swap1\n      pop\n      jump\t// out\n        /* \"#utility.yul\":5325:5482   */\n    tag_175:\n        /* \"#utility.yul\":5430:5475   */\n      tag_240\n        /* \"#utility.yul\":5450:5474   */\n      tag_241\n        /* \"#utility.yul\":5468:5473   */\n      dup3\n        /* \"#utility.yul\":5450:5474   */\n      tag_157\n      jump\t// in\n    tag_241:\n        /* \"#utility.yul\":5430:5475   */\n      tag_174\n      jump\t// in\n    tag_240:\n        /* \"#utility.yul\":5425:5428   */\n      dup3\n        /* \"#utility.yul\":5418:5476   */\n      mstore\n        /* \"#utility.yul\":5325:5482   */\n      pop\n      pop\n      jump\t// out\n        /* \"#utility.yul\":5488:6167   */\n    tag_124:\n        /* \"#utility.yul\":5684:5687   */\n      0x00\n        /* \"#utility.yul\":5699:5774   */\n      tag_243\n        /* \"#utility.yul\":5770:5773   */\n      dup3\n        /* \"#utility.yul\":5761:5767   */\n      dup8\n        /* \"#utility.yul\":5699:5774   */\n      tag_175\n      jump\t// in\n    tag_243:\n        /* \"#utility.yul\":5799:5801   */\n      0x20\n        /* \"#utility.yul\":5794:5797   */\n      dup3\n        /* \"#utility.yul\":5790:5802   */\n      add\n        /* \"#utility.yul\":5783:5802   */\n      swap2\n      pop\n        /* \"#utility.yul\":5812:5887   */\n      tag_244\n        /* \"#utility.yul\":5883:5886   */\n      dup3\n        /* \"#utility.yul\":5874:5880   */\n      dup7\n        /* \"#utility.yul\":5812:5887   */\n      tag_175\n      jump\t// in\n    tag_244:\n        /* \"#utility.yul\":5912:5914   */\n      0x20\n        /* \"#utility.yul\":5907:5910   */\n      dup3\n        /* \"#utility.yul\":5903:5915   */\n      add\n        /* \"#utility.yul\":5896:5915   */\n      swap2\n      pop\n        /* \"#utility.yul\":5925:6000   */\n      tag_245\n        /* \"#utility.yul\":5996:5999   */\n      dup3\n        /* \"#utility.yul\":5987:5993   */\n      dup6\n        /* \"#utility.yul\":5925:6000   */\n      tag_175\n      jump\t// in\n    tag_245:\n        /* \"#utility.yul\":6025:6027   */\n      0x20\n        /* \"#utility.yul\":6020:6023   */\n      dup3\n        /* \"#utility.yul\":6016:6028   */\n      add\n        /* \"#utility.yul\":6009:6028   */\n      swap2\n      pop\n        /* \"#utility.yul\":6038:6113   */\n      tag_246\n        /* \"#utility.yul\":6109:6112   */\n      dup3\n        /* \"#utility.yul\":6100:6106   */\n      dup5\n        /* \"#utility.yul\":6038:6113   */\n      tag_175\n      jump\t// in\n    tag_246:\n        /* \"#utility.yul\":6138:6140   */\n      0x20\n        /* \"#utility.yul\":6133:6136   */\n      dup3\n        /* \"#utility.yul\":6129:6141   */\n      add\n        /* \"#utility.yul\":6122:6141   */\n      swap2\n      pop\n        /* \"#utility.yul\":6158:6161   */\n      dup2\n        /* \"#utility.yul\":6151:6161   */\n      swap1\n      pop\n        /* \"#utility.yul\":5488:6167   */\n      swap6\n      swap5\n      pop\n      pop\n      pop\n      pop\n      pop\n      jump\t// out\n        /* \"#utility.yul\":6173:6349   */\n    tag_126:\n        /* \"#utility.yul\":6205:6206   */\n      0x00\n        /* \"#utility.yul\":6222:6242   */\n      tag_248\n        /* \"#utility.yul\":6240:6241   */\n      dup3\n        /* \"#utility.yul\":6222:6242   */\n      tag_157\n      jump\t// in\n    tag_248:\n        /* \"#utility.yul\":6217:6242   */\n      swap2\n      pop\n        /* \"#utility.yul\":6256:6276   */\n      tag_249\n        /* \"#utility.yul\":6274:6275   */\n      dup4\n        /* \"#utility.yul\":6256:6276   */\n      tag_157\n      jump\t// in\n    tag_249:\n        /* \"#utility.yul\":6251:6276   */\n      swap3\n      pop\n        /* \"#utility.yul\":6295:6296   */\n      dup3\n        /* \"#utility.yul\":6285:6320   */\n      tag_250\n      jumpi\n        /* \"#utility.yul\":6300:6318   */\n      tag_251\n      tag_173\n      jump\t// in\n    tag_251:\n        /* \"#utility.yul\":6285:6320   */\n    tag_250:\n        /* \"#utility.yul\":6341:6342   */\n      dup3\n        /* \"#utility.yul\":6338:6339   */\n      dup3\n        /* \"#utility.yul\":6334:6343   */\n      mod\n        /* \"#utility.yul\":6329:6343   */\n      swap1\n      pop\n        /* \"#utility.yul\":6173:6349   */\n      swap3\n      swap2\n      pop\n      pop\n      jump\t// out\n        /* \"#utility.yul\":6355:6535   */\n    tag_129:\n        /* \"#utility.yul\":6403:6480   */\n      0x4e487b7100000000000000000000000000000000000000000000000000000000\n        /* \"#utility.yul\":6400:6401   */\n      0x00\n        /* \"#utility.yul\":6393:6481   */\n      mstore\n        /* \"#utility.yul\":6500:6504   */\n      0x32\n        /* \"#utility.yul\":6497:6498   */\n      0x04\n        /* \"#utility.yul\":6490:6505   */\n      mstore\n        /* \"#utility.yul\":6524:6528   */\n      0x24\n        /* \"#utility.yul\":6521:6522   */\n      0x00\n        /* \"#utility.yul\":6514:6529   */\n      revert\n        /* \"#utility.yul\":6541:6721   */\n    tag_140:\n        /* \"#utility.yul\":6589:6666   */\n      0x4e487b7100000000000000000000000000000000000000000000000000000000\n        /* \"#utility.yul\":6586:6587   */\n      0x00\n        /* \"#utility.yul\":6579:6667   */\n      mstore\n        /* \"#utility.yul\":6686:6690   */\n      0x41\n        /* \"#utility.yul\":6683:6684   */\n      0x04\n        /* \"#utility.yul\":6676:6691   */\n      mstore\n        /* \"#utility.yul\":6710:6714   */\n      0x24\n        /* \"#utility.yul\":6707:6708   */\n      0x00\n        /* \"#utility.yul\":6700:6715   */\n      revert\n        /* \"#utility.yul\":6727:6960   */\n    tag_148:\n        /* \"#utility.yul\":6766:6769   */\n      0x00\n        /* \"#utility.yul\":6789:6813   */\n      tag_255\n        /* \"#utility.yul\":6807:6812   */\n      dup3\n        /* \"#utility.yul\":6789:6813   */\n      tag_157\n      jump\t// in\n    tag_255:\n        /* \"#utility.yul\":6780:6813   */\n      swap2\n      pop\n        /* \"#utility.yul\":6835:6901   */\n      0xffffffffffffffffffffffffffffffffffffffffffffffffffffffffffffffff\n        /* \"#utility.yul\":6828:6833   */\n      dup3\n        /* \"#utility.yul\":6825:6902   */\n      sub\n        /* \"#utility.yul\":6822:6925   */\n      tag_256\n      jumpi\n        /* \"#utility.yul\":6905:6923   */\n      tag_257\n      tag_172\n      jump\t// in\n    tag_257:\n        /* \"#utility.yul\":6822:6925   */\n    tag_256:\n        /* \"#utility.yul\":6952:6953   */\n      0x01\n        /* \"#utility.yul\":6945:6950   */\n      dup3\n        /* \"#utility.yul\":6941:6954   */\n      add\n        /* \"#utility.yul\":6934:6954   */\n      swap1\n      pop\n        /* \"#utility.yul\":6727:6960   */\n      swap2\n      swap1\n      pop\n      jump\t// out\n\n    auxdata: 0xa26469706673582212207f8be52b6ab8d1e9ed5958f932f3cb7972002bc952cbff1d668b8aa3bfcc4a3664736f6c634300081e0033\n}\n",
				"bytecode": {
					"linkReferences": {},
					"object": "60806040526001600555348015610014575f5ffd5b5060405161146b38038061146b8339818101604052810190610036919061027e565b335f73ffffffffffffffffffffffffffffffffffffffff168173ffffffffffffffffffffffffffffffffffffffff16036100a7575f6040517f1e4fbdf700000000000000000000000000000000000000000000000000000000815260040161009e919061030d565b60405180910390fd5b6100b68161018660201b60201c565b505f83116100f9576040517f08c379a00000000000000000000000000000000000000000000000000000000081526004016100f0906103a6565b60405180910390fd5b5f811161013b576040517f08c379a000000000000000000000000000000000000000000000000000000000815260040161013290610434565b60405180910390fd5b82600181905550806004819055508160038190555060646014600154610161919061047f565b61016b91906104ed565b600154610178919061051d565b600281905550505050610550565b5f5f5f9054906101000a900473ffffffffffffffffffffffffffffffffffffffff169050815f5f6101000a81548173ffffffffffffffffffffffffffffffffffffffff021916908373ffffffffffffffffffffffffffffffffffffffff1602179055508173ffffffffffffffffffffffffffffffffffffffff168173ffffffffffffffffffffffffffffffffffffffff167f8be0079c531659141344cd1fd0a4f28419497f9722a3daafe3b4186f6b6457e060405160405180910390a35050565b5f5ffd5b5f819050919050565b61025d8161024b565b8114610267575f5ffd5b50565b5f8151905061027881610254565b92915050565b5f5f5f6060848603121561029557610294610247565b5b5f6102a28682870161026a565b93505060206102b38682870161026a565b92505060406102c48682870161026a565b9150509250925092565b5f73ffffffffffffffffffffffffffffffffffffffff82169050919050565b5f6102f7826102ce565b9050919050565b610307816102ed565b82525050565b5f6020820190506103205f8301846102fe565b92915050565b5f82825260208201905092915050565b7f5469636b6574207072696365206d7573742062652067726561746572207468615f8201527f6e20300000000000000000000000000000000000000000000000000000000000602082015250565b5f610390602383610326565b915061039b82610336565b604082019050919050565b5f6020820190508181035f8301526103bd81610384565b9050919050565b7f506c61796572207468726573686f6c64206d75737420626520677265617465725f8201527f207468616e203000000000000000000000000000000000000000000000000000602082015250565b5f61041e602783610326565b9150610429826103c4565b604082019050919050565b5f6020820190508181035f83015261044b81610412565b9050919050565b7f4e487b71000000000000000000000000000000000000000000000000000000005f52601160045260245ffd5b5f6104898261024b565b91506104948361024b565b92508282026104a28161024b565b915082820484148315176104b9576104b8610452565b5b5092915050565b7f4e487b71000000000000000000000000000000000000000000000000000000005f52601260045260245ffd5b5f6104f78261024b565b91506105028361024b565b925082610512576105116104c0565b5b828204905092915050565b5f6105278261024b565b91506105328361024b565b925082820190508082111561054a57610549610452565b5b92915050565b610f0e8061055d5f395ff3fe6080604052600436106100dc575f3560e01c8063c315e8641161007e578063e580f47b11610058578063e580f47b14610270578063edca914c1461029a578063f2fde38b146102a4578063f71d96cb146102cc576100dc565b8063c315e864146101f2578063c70dced41461021c578063dfbf53ae14610246576100dc565b80638da5cb5b116100ba5780638da5cb5b1461014a57806399f1306614610174578063a15711141461019e578063a76594bf146101c8576100dc565b80631209b1f6146100e0578063715018a61461010a5780637bd9ddd414610120575b5f5ffd5b3480156100eb575f5ffd5b506100f4610308565b6040516101019190610ade565b60405180910390f35b348015610115575f5ffd5b5061011e61030e565b005b34801561012b575f5ffd5b50610134610321565b6040516101419190610ade565b60405180910390f35b348015610155575f5ffd5b5061015e610327565b60405161016b9190610b36565b60405180910390f35b34801561017f575f5ffd5b5061018861034e565b6040516101959190610ade565b60405180910390f35b3480156101a9575f5ffd5b506101b2610354565b6040516101bf9190610ade565b60405180910390f35b3480156101d3575f5ffd5b506101dc610359565b6040516101e99190610ade565b60405180910390f35b3480156101fd575f5ffd5b50610206610365565b6040516102139190610ade565b60405180910390f35b348015610227575f5ffd5b5061023061036b565b60405161023d9190610ade565b60405180910390f35b348015610251575f5ffd5b5061025a610370565b6040516102679190610b36565b60405180910390f35b34801561027b575f5ffd5b50610284610395565b6040516102919190610ade565b60405180910390f35b6102a261039b565b005b3480156102af575f5ffd5b506102ca60048036038101906102c59190610b7d565b610547565b005b3480156102d7575f5ffd5b506102f260048036038101906102ed9190610bd2565b6105cb565b6040516102ff9190610b36565b60405180910390f35b60025481565b610316610606565b61031f5f61068d565b565b60045481565b5f5f5f9054906101000a900473ffffffffffffffffffffffffffffffffffffffff16905090565b60035481565b605081565b5f600780549050905090565b60015481565b601481565b60065f9054906101000a900473ffffffffffffffffffffffffffffffffffffffff1681565b60055481565b60025434146103df576040517f08c379a00000000000000000000000000000000000000000000000000000000081526004016103d690610c57565b60405180910390fd5b600733908060018154018082558091505060019003905f5260205f20015f9091909190916101000a81548173ffffffffffffffffffffffffffffffffffffffff021916908373ffffffffffffffffffffffffffffffffffffffff1602179055505f606460503461044f9190610ca2565b6104599190610d10565b9050610463610327565b73ffffffffffffffffffffffffffffffffffffffff166108fc8290811502906040515f60405180830381858888f193505050501580156104a5573d5f5f3e3d5ffd5b505f60646014346104b69190610ca2565b6104c09190610d10565b90508060035f8282546104d39190610d40565b925050819055503373ffffffffffffffffffffffffffffffffffffffff167f97fac0ce6558f4accbb4696915809c0ef7023ffe7ba9454e94d49fb652aae1d560055434604051610524929190610d73565b60405180910390a2600454600780549050106105435761054261074e565b5b5050565b61054f610606565b5f73ffffffffffffffffffffffffffffffffffffffff168173ffffffffffffffffffffffffffffffffffffffff16036105bf575f6040517f1e4fbdf70000000000000000000000000000000000000000000000000000000081526004016105b69190610b36565b60405180910390fd5b6105c88161068d565b50565b600781815481106105da575f80fd5b905f5260205f20015f915054906101000a900473ffffffffffffffffffffffffffffffffffffffff1681565b61060e6108fe565b73ffffffffffffffffffffffffffffffffffffffff1661062c610327565b73ffffffffffffffffffffffffffffffffffffffff161461068b5761064f6108fe565b6040517f118cdaa70000000000000000000000000000000000000000000000000000000081526004016106829190610b36565b60405180910390fd5b565b5f5f5f9054906101000a900473ffffffffffffffffffffffffffffffffffffffff169050815f5f6101000a81548173ffffffffffffffffffffffffffffffffffffffff021916908373ffffffffffffffffffffffffffffffffffffffff1602179055508173ffffffffffffffffffffffffffffffffffffffff168173ffffffffffffffffffffffffffffffffffffffff167f8be0079c531659141344cd1fd0a4f28419497f9722a3daafe3b4186f6b6457e060405160405180910390a35050565b5f424460078054905060055460405160200161076d9493929190610dba565b604051602081830303815290604052805190602001205f1c90505f600780549050826107999190610e07565b9050600781815481106107af576107ae610e37565b5b905f5260205f20015f9054906101000a900473ffffffffffffffffffffffffffffffffffffffff1660065f6101000a81548173ffffffffffffffffffffffffffffffffffffffff021916908373ffffffffffffffffffffffffffffffffffffffff16021790555060065f9054906101000a900473ffffffffffffffffffffffffffffffffffffffff1673ffffffffffffffffffffffffffffffffffffffff166108fc60035490811502906040515f60405180830381858888f1935050505015801561087c573d5f5f3e3d5ffd5b5060065f9054906101000a900473ffffffffffffffffffffffffffffffffffffffff1673ffffffffffffffffffffffffffffffffffffffff167f32804edb90d6a988a75e0ab375c90f92354ea0534bbbedb460028c6b26eaf57f6003546005546040516108ea929190610d73565b60405180910390a26108fa610905565b5050565b5f33905090565b5f67ffffffffffffffff81111561091f5761091e610e64565b5b60405190808252806020026020018201604052801561094d5781602001602082028036833780820191505090505b5060079080519060200190610963929190610a24565b50606460146001546109759190610ca2565b61097f9190610d10565b60015461098c9190610d40565b60038190555060055f8154809291906109a490610e91565b91905055505f60065f6101000a81548173ffffffffffffffffffffffffffffffffffffffff021916908373ffffffffffffffffffffffffffffffffffffffff1602179055507f6564d21026f38ac4bc4ef082b01864f3ae6869e139a373fdf664a27a6c6dbebb600554604051610a1a9190610ade565b60405180910390a1565b828054828255905f5260205f20908101928215610a9a579160200282015b82811115610a99578251825f6101000a81548173ffffffffffffffffffffffffffffffffffffffff021916908373ffffffffffffffffffffffffffffffffffffffff16021790555091602001919060010190610a42565b5b509050610aa79190610aab565b5090565b5b80821115610ac2575f815f905550600101610aac565b5090565b5f819050919050565b610ad881610ac6565b82525050565b5f602082019050610af15f830184610acf565b92915050565b5f73ffffffffffffffffffffffffffffffffffffffff82169050919050565b5f610b2082610af7565b9050919050565b610b3081610b16565b82525050565b5f602082019050610b495f830184610b27565b92915050565b5f5ffd5b610b5c81610b16565b8114610b66575f5ffd5b50565b5f81359050610b7781610b53565b92915050565b5f60208284031215610b9257610b91610b4f565b5b5f610b9f84828501610b69565b91505092915050565b610bb181610ac6565b8114610bbb575f5ffd5b50565b5f81359050610bcc81610ba8565b92915050565b5f60208284031215610be757610be6610b4f565b5b5f610bf484828501610bbe565b91505092915050565b5f82825260208201905092915050565b7f496e636f7272656374207469636b65742070726963652073656e7400000000005f82015250565b5f610c41601b83610bfd565b9150610c4c82610c0d565b602082019050919050565b5f6020820190508181035f830152610c6e81610c35565b9050919050565b7f4e487b71000000000000000000000000000000000000000000000000000000005f52601160045260245ffd5b5f610cac82610ac6565b9150610cb783610ac6565b9250828202610cc581610ac6565b91508282048414831517610cdc57610cdb610c75565b5b5092915050565b7f4e487b71000000000000000000000000000000000000000000000000000000005f52601260045260245ffd5b5f610d1a82610ac6565b9150610d2583610ac6565b925082610d3557610d34610ce3565b5b828204905092915050565b5f610d4a82610ac6565b9150610d5583610ac6565b9250828201905080821115610d6d57610d6c610c75565b5b92915050565b5f604082019050610d865f830185610acf565b610d936020830184610acf565b9392505050565b5f819050919050565b610db4610daf82610ac6565b610d9a565b82525050565b5f610dc58287610da3565b602082019150610dd58286610da3565b602082019150610de58285610da3565b602082019150610df58284610da3565b60208201915081905095945050505050565b5f610e1182610ac6565b9150610e1c83610ac6565b925082610e2c57610e2b610ce3565b5b828206905092915050565b7f4e487b71000000000000000000000000000000000000000000000000000000005f52603260045260245ffd5b7f4e487b71000000000000000000000000000000000000000000000000000000005f52604160045260245ffd5b5f610e9b82610ac6565b91507fffffffffffffffffffffffffffffffffffffffffffffffffffffffffffffffff8203610ecd57610ecc610c75565b5b60018201905091905056fea26469706673582212207f8be52b6ab8d1e9ed5958f932f3cb7972002bc952cbff1d668b8aa3bfcc4a3664736f6c634300081e0033",
					"opcodes": "PUSH1 0x80 PUSH1 0x40 MSTORE PUSH1 0x1 PUSH1 0x5 SSTORE CALLVALUE DUP1 ISZERO PUSH2 0x14 JUMPI PUSH0 PUSH0 REVERT JUMPDEST POP PUSH1 0x40 MLOAD PUSH2 0x146B CODESIZE SUB DUP1 PUSH2 0x146B DUP4 CODECOPY DUP2 DUP2 ADD PUSH1 0x40 MSTORE DUP2 ADD SWAP1 PUSH2 0x36 SWAP2 SWAP1 PUSH2 0x27E JUMP JUMPDEST CALLER PUSH0 PUSH20 0xFFFFFFFFFFFFFFFFFFFFFFFFFFFFFFFFFFFFFFFF AND DUP2 PUSH20 0xFFFFFFFFFFFFFFFFFFFFFFFFFFFFFFFFFFFFFFFF AND SUB PUSH2 0xA7 JUMPI PUSH0 PUSH1 0x40 MLOAD PUSH32 0x1E4FBDF700000000000000000000000000000000000000000000000000000000 DUP2 MSTORE PUSH1 0x4 ADD PUSH2 0x9E SWAP2 SWAP1 PUSH2 0x30D JUMP JUMPDEST PUSH1 0x40 MLOAD DUP1 SWAP2 SUB SWAP1 REVERT JUMPDEST PUSH2 0xB6 DUP2 PUSH2 0x186 PUSH1 0x20 SHL PUSH1 0x20 SHR JUMP JUMPDEST POP PUSH0 DUP4 GT PUSH2 0xF9 JUMPI PUSH1 0x40 MLOAD PUSH32 0x8C379A000000000000000000000000000000000000000000000000000000000 DUP2 MSTORE PUSH1 0x4 ADD PUSH2 0xF0 SWAP1 PUSH2 0x3A6 JUMP JUMPDEST PUSH1 0x40 MLOAD DUP1 SWAP2 SUB SWAP1 REVERT JUMPDEST PUSH0 DUP2 GT PUSH2 0x13B JUMPI PUSH1 0x40 MLOAD PUSH32 0x8C379A000000000000000000000000000000000000000000000000000000000 DUP2 MSTORE PUSH1 0x4 ADD PUSH2 0x132 SWAP1 PUSH2 0x434 JUMP JUMPDEST PUSH1 0x40 MLOAD DUP1 SWAP2 SUB SWAP1 REVERT JUMPDEST DUP3 PUSH1 0x1 DUP2 SWAP1 SSTORE POP DUP1 PUSH1 0x4 DUP2 SWAP1 SSTORE POP DUP2 PUSH1 0x3 DUP2 SWAP1 SSTORE POP PUSH1 0x64 PUSH1 0x14 PUSH1 0x1 SLOAD PUSH2 0x161 SWAP2 SWAP1 PUSH2 0x47F JUMP JUMPDEST PUSH2 0x16B SWAP2 SWAP1 PUSH2 0x4ED JUMP JUMPDEST PUSH1 0x1 SLOAD PUSH2 0x178 SWAP2 SWAP1 PUSH2 0x51D JUMP JUMPDEST PUSH1 0x2 DUP2 SWAP1 SSTORE POP POP POP POP PUSH2 0x550 JUMP JUMPDEST PUSH0 PUSH0 PUSH0 SWAP1 SLOAD SWAP1 PUSH2 0x100 EXP SWAP1 DIV PUSH20 0xFFFFFFFFFFFFFFFFFFFFFFFFFFFFFFFFFFFFFFFF AND SWAP1 POP DUP2 PUSH0 PUSH0 PUSH2 0x100 EXP DUP2 SLOAD DUP2 PUSH20 0xFFFFFFFFFFFFFFFFFFFFFFFFFFFFFFFFFFFFFFFF MUL NOT AND SWAP1 DUP4 PUSH20 0xFFFFFFFFFFFFFFFFFFFFFFFFFFFFFFFFFFFFFFFF AND MUL OR SWAP1 SSTORE POP DUP2 PUSH20 0xFFFFFFFFFFFFFFFFFFFFFFFFFFFFFFFFFFFFFFFF AND DUP2 PUSH20 0xFFFFFFFFFFFFFFFFFFFFFFFFFFFFFFFFFFFFFFFF AND PUSH32 0x8BE0079C531659141344CD1FD0A4F28419497F9722A3DAAFE3B4186F6B6457E0 PUSH1 0x40 MLOAD PUSH1 0x40 MLOAD DUP1 SWAP2 SUB SWAP1 LOG3 POP POP JUMP JUMPDEST PUSH0 PUSH0 REVERT JUMPDEST PUSH0 DUP2 SWAP1 POP SWAP2 SWAP1 POP JUMP JUMPDEST PUSH2 0x25D DUP2 PUSH2 0x24B JUMP JUMPDEST DUP2 EQ PUSH2 0x267 JUMPI PUSH0 PUSH0 REVERT JUMPDEST POP JUMP JUMPDEST PUSH0 DUP2 MLOAD SWAP1 POP PUSH2 0x278 DUP2 PUSH2 0x254 JUMP JUMPDEST SWAP3 SWAP2 POP POP JUMP JUMPDEST PUSH0 PUSH0 PUSH0 PUSH1 0x60 DUP5 DUP7 SUB SLT ISZERO PUSH2 0x295 JUMPI PUSH2 0x294 PUSH2 0x247 JUMP JUMPDEST JUMPDEST PUSH0 PUSH2 0x2A2 DUP7 DUP3 DUP8 ADD PUSH2 0x26A JUMP JUMPDEST SWAP4 POP POP PUSH1 0x20 PUSH2 0x2B3 DUP7 DUP3 DUP8 ADD PUSH2 0x26A JUMP JUMPDEST SWAP3 POP POP PUSH1 0x40 PUSH2 0x2C4 DUP7 DUP3 DUP8 ADD PUSH2 0x26A JUMP JUMPDEST SWAP2 POP POP SWAP3 POP SWAP3 POP SWAP3 JUMP JUMPDEST PUSH0 PUSH20 0xFFFFFFFFFFFFFFFFFFFFFFFFFFFFFFFFFFFFFFFF DUP3 AND SWAP1 POP SWAP2 SWAP1 POP JUMP JUMPDEST PUSH0 PUSH2 0x2F7 DUP3 PUSH2 0x2CE JUMP JUMPDEST SWAP1 POP SWAP2 SWAP1 POP JUMP JUMPDEST PUSH2 0x307 DUP2 PUSH2 0x2ED JUMP JUMPDEST DUP3 MSTORE POP POP JUMP JUMPDEST PUSH0 PUSH1 0x20 DUP3 ADD SWAP1 POP PUSH2 0x320 PUSH0 DUP4 ADD DUP5 PUSH2 0x2FE JUMP JUMPDEST SWAP3 SWAP2 POP POP JUMP JUMPDEST PUSH0 DUP3 DUP3 MSTORE PUSH1 0x20 DUP3 ADD SWAP1 POP SWAP3 SWAP2 POP POP JUMP JUMPDEST PUSH32 0x5469636B6574207072696365206D757374206265206772656174657220746861 PUSH0 DUP3 ADD MSTORE PUSH32 0x6E20300000000000000000000000000000000000000000000000000000000000 PUSH1 0x20 DUP3 ADD MSTORE POP JUMP JUMPDEST PUSH0 PUSH2 0x390 PUSH1 0x23 DUP4 PUSH2 0x326 JUMP JUMPDEST SWAP2 POP PUSH2 0x39B DUP3 PUSH2 0x336 JUMP JUMPDEST PUSH1 0x40 DUP3 ADD SWAP1 POP SWAP2 SWAP1 POP JUMP JUMPDEST PUSH0 PUSH1 0x20 DUP3 ADD SWAP1 POP DUP2 DUP2 SUB PUSH0 DUP4 ADD MSTORE PUSH2 0x3BD DUP2 PUSH2 0x384 JUMP JUMPDEST SWAP1 POP SWAP2 SWAP1 POP JUMP JUMPDEST PUSH32 0x506C61796572207468726573686F6C64206D7573742062652067726561746572 PUSH0 DUP3 ADD MSTORE PUSH32 0x207468616E203000000000000000000000000000000000000000000000000000 PUSH1 0x20 DUP3 ADD MSTORE POP JUMP JUMPDEST PUSH0 PUSH2 0x41E PUSH1 0x27 DUP4 PUSH2 0x326 JUMP JUMPDEST SWAP2 POP PUSH2 0x429 DUP3 PUSH2 0x3C4 JUMP JUMPDEST PUSH1 0x40 DUP3 ADD SWAP1 POP SWAP2 SWAP1 POP JUMP JUMPDEST PUSH0 PUSH1 0x20 DUP3 ADD SWAP1 POP DUP2 DUP2 SUB PUSH0 DUP4 ADD MSTORE PUSH2 0x44B DUP2 PUSH2 0x412 JUMP JUMPDEST SWAP1 POP SWAP2 SWAP1 POP JUMP JUMPDEST PUSH32 0x4E487B7100000000000000000000000000000000000000000000000000000000 PUSH0 MSTORE PUSH1 0x11 PUSH1 0x4 MSTORE PUSH1 0x24 PUSH0 REVERT JUMPDEST PUSH0 PUSH2 0x489 DUP3 PUSH2 0x24B JUMP JUMPDEST SWAP2 POP PUSH2 0x494 DUP4 PUSH2 0x24B JUMP JUMPDEST SWAP3 POP DUP3 DUP3 MUL PUSH2 0x4A2 DUP2 PUSH2 0x24B JUMP JUMPDEST SWAP2 POP DUP3 DUP3 DIV DUP5 EQ DUP4 ISZERO OR PUSH2 0x4B9 JUMPI PUSH2 0x4B8 PUSH2 0x452 JUMP JUMPDEST JUMPDEST POP SWAP3 SWAP2 POP POP JUMP JUMPDEST PUSH32 0x4E487B7100000000000000000000000000000000000000000000000000000000 PUSH0 MSTORE PUSH1 0x12 PUSH1 0x4 MSTORE PUSH1 0x24 PUSH0 REVERT JUMPDEST PUSH0 PUSH2 0x4F7 DUP3 PUSH2 0x24B JUMP JUMPDEST SWAP2 POP PUSH2 0x502 DUP4 PUSH2 0x24B JUMP JUMPDEST SWAP3 POP DUP3 PUSH2 0x512 JUMPI PUSH2 0x511 PUSH2 0x4C0 JUMP JUMPDEST JUMPDEST DUP3 DUP3 DIV SWAP1 POP SWAP3 SWAP2 POP POP JUMP JUMPDEST PUSH0 PUSH2 0x527 DUP3 PUSH2 0x24B JUMP JUMPDEST SWAP2 POP PUSH2 0x532 DUP4 PUSH2 0x24B JUMP JUMPDEST SWAP3 POP DUP3 DUP3 ADD SWAP1 POP DUP1 DUP3 GT ISZERO PUSH2 0x54A JUMPI PUSH2 0x549 PUSH2 0x452 JUMP JUMPDEST JUMPDEST SWAP3 SWAP2 POP POP JUMP JUMPDEST PUSH2 0xF0E DUP1 PUSH2 0x55D PUSH0 CODECOPY PUSH0 RETURN INVALID PUSH1 0x80 PUSH1 0x40 MSTORE PUSH1 0x4 CALLDATASIZE LT PUSH2 0xDC JUMPI PUSH0 CALLDATALOAD PUSH1 0xE0 SHR DUP1 PUSH4 0xC315E864 GT PUSH2 0x7E JUMPI DUP1 PUSH4 0xE580F47B GT PUSH2 0x58 JUMPI DUP1 PUSH4 0xE580F47B EQ PUSH2 0x270 JUMPI DUP1 PUSH4 0xEDCA914C EQ PUSH2 0x29A JUMPI DUP1 PUSH4 0xF2FDE38B EQ PUSH2 0x2A4 JUMPI DUP1 PUSH4 0xF71D96CB EQ PUSH2 0x2CC JUMPI PUSH2 0xDC JUMP JUMPDEST DUP1 PUSH4 0xC315E864 EQ PUSH2 0x1F2 JUMPI DUP1 PUSH4 0xC70DCED4 EQ PUSH2 0x21C JUMPI DUP1 PUSH4 0xDFBF53AE EQ PUSH2 0x246 JUMPI PUSH2 0xDC JUMP JUMPDEST DUP1 PUSH4 0x8DA5CB5B GT PUSH2 0xBA JUMPI DUP1 PUSH4 0x8DA5CB5B EQ PUSH2 0x14A JUMPI DUP1 PUSH4 0x99F13066 EQ PUSH2 0x174 JUMPI DUP1 PUSH4 0xA1571114 EQ PUSH2 0x19E JUMPI DUP1 PUSH4 0xA76594BF EQ PUSH2 0x1C8 JUMPI PUSH2 0xDC JUMP JUMPDEST DUP1 PUSH4 0x1209B1F6 EQ PUSH2 0xE0 JUMPI DUP1 PUSH4 0x715018A6 EQ PUSH2 0x10A JUMPI DUP1 PUSH4 0x7BD9DDD4 EQ PUSH2 0x120 JUMPI JUMPDEST PUSH0 PUSH0 REVERT JUMPDEST CALLVALUE DUP1 ISZERO PUSH2 0xEB JUMPI PUSH0 PUSH0 REVERT JUMPDEST POP PUSH2 0xF4 PUSH2 0x308 JUMP JUMPDEST PUSH1 0x40 MLOAD PUSH2 0x101 SWAP2 SWAP1 PUSH2 0xADE JUMP JUMPDEST PUSH1 0x40 MLOAD DUP1 SWAP2 SUB SWAP1 RETURN JUMPDEST CALLVALUE DUP1 ISZERO PUSH2 0x115 JUMPI PUSH0 PUSH0 REVERT JUMPDEST POP PUSH2 0x11E PUSH2 0x30E JUMP JUMPDEST STOP JUMPDEST CALLVALUE DUP1 ISZERO PUSH2 0x12B JUMPI PUSH0 PUSH0 REVERT JUMPDEST POP PUSH2 0x134 PUSH2 0x321 JUMP JUMPDEST PUSH1 0x40 MLOAD PUSH2 0x141 SWAP2 SWAP1 PUSH2 0xADE JUMP JUMPDEST PUSH1 0x40 MLOAD DUP1 SWAP2 SUB SWAP1 RETURN JUMPDEST CALLVALUE DUP1 ISZERO PUSH2 0x155 JUMPI PUSH0 PUSH0 REVERT JUMPDEST POP PUSH2 0x15E PUSH2 0x327 JUMP JUMPDEST PUSH1 0x40 MLOAD PUSH2 0x16B SWAP2 SWAP1 PUSH2 0xB36 JUMP JUMPDEST PUSH1 0x40 MLOAD DUP1 SWAP2 SUB SWAP1 RETURN JUMPDEST CALLVALUE DUP1 ISZERO PUSH2 0x17F JUMPI PUSH0 PUSH0 REVERT JUMPDEST POP PUSH2 0x188 PUSH2 0x34E JUMP JUMPDEST PUSH1 0x40 MLOAD PUSH2 0x195 SWAP2 SWAP1 PUSH2 0xADE JUMP JUMPDEST PUSH1 0x40 MLOAD DUP1 SWAP2 SUB SWAP1 RETURN JUMPDEST CALLVALUE DUP1 ISZERO PUSH2 0x1A9 JUMPI PUSH0 PUSH0 REVERT JUMPDEST POP PUSH2 0x1B2 PUSH2 0x354 JUMP JUMPDEST PUSH1 0x40 MLOAD PUSH2 0x1BF SWAP2 SWAP1 PUSH2 0xADE JUMP JUMPDEST PUSH1 0x40 MLOAD DUP1 SWAP2 SUB SWAP1 RETURN JUMPDEST CALLVALUE DUP1 ISZERO PUSH2 0x1D3 JUMPI PUSH0 PUSH0 REVERT JUMPDEST POP PUSH2 0x1DC PUSH2 0x359 JUMP JUMPDEST PUSH1 0x40 MLOAD PUSH2 0x1E9 SWAP2 SWAP1 PUSH2 0xADE JUMP JUMPDEST PUSH1 0x40 MLOAD DUP1 SWAP2 SUB SWAP1 RETURN JUMPDEST CALLVALUE DUP1 ISZERO PUSH2 0x1FD JUMPI PUSH0 PUSH0 REVERT JUMPDEST POP PUSH2 0x206 PUSH2 0x365 JUMP JUMPDEST PUSH1 0x40 MLOAD PUSH2 0x213 SWAP2 SWAP1 PUSH2 0xADE JUMP JUMPDEST PUSH1 0x40 MLOAD DUP1 SWAP2 SUB SWAP1 RETURN JUMPDEST CALLVALUE DUP1 ISZERO PUSH2 0x227 JUMPI PUSH0 PUSH0 REVERT JUMPDEST POP PUSH2 0x230 PUSH2 0x36B JUMP JUMPDEST PUSH1 0x40 MLOAD PUSH2 0x23D SWAP2 SWAP1 PUSH2 0xADE JUMP JUMPDEST PUSH1 0x40 MLOAD DUP1 SWAP2 SUB SWAP1 RETURN JUMPDEST CALLVALUE DUP1 ISZERO PUSH2 0x251 JUMPI PUSH0 PUSH0 REVERT JUMPDEST POP PUSH2 0x25A PUSH2 0x370 JUMP JUMPDEST PUSH1 0x40 MLOAD PUSH2 0x267 SWAP2 SWAP1 PUSH2 0xB36 JUMP JUMPDEST PUSH1 0x40 MLOAD DUP1 SWAP2 SUB SWAP1 RETURN JUMPDEST CALLVALUE DUP1 ISZERO PUSH2 0x27B JUMPI PUSH0 PUSH0 REVERT JUMPDEST POP PUSH2 0x284 PUSH2 0x395 JUMP JUMPDEST PUSH1 0x40 MLOAD PUSH2 0x291 SWAP2 SWAP1 PUSH2 0xADE JUMP JUMPDEST PUSH1 0x40 MLOAD DUP1 SWAP2 SUB SWAP1 RETURN JUMPDEST PUSH2 0x2A2 PUSH2 0x39B JUMP JUMPDEST STOP JUMPDEST CALLVALUE DUP1 ISZERO PUSH2 0x2AF JUMPI PUSH0 PUSH0 REVERT JUMPDEST POP PUSH2 0x2CA PUSH1 0x4 DUP1 CALLDATASIZE SUB DUP2 ADD SWAP1 PUSH2 0x2C5 SWAP2 SWAP1 PUSH2 0xB7D JUMP JUMPDEST PUSH2 0x547 JUMP JUMPDEST STOP JUMPDEST CALLVALUE DUP1 ISZERO PUSH2 0x2D7 JUMPI PUSH0 PUSH0 REVERT JUMPDEST POP PUSH2 0x2F2 PUSH1 0x4 DUP1 CALLDATASIZE SUB DUP2 ADD SWAP1 PUSH2 0x2ED SWAP2 SWAP1 PUSH2 0xBD2 JUMP JUMPDEST PUSH2 0x5CB JUMP JUMPDEST PUSH1 0x40 MLOAD PUSH2 0x2FF SWAP2 SWAP1 PUSH2 0xB36 JUMP JUMPDEST PUSH1 0x40 MLOAD DUP1 SWAP2 SUB SWAP1 RETURN JUMPDEST PUSH1 0x2 SLOAD DUP2 JUMP JUMPDEST PUSH2 0x316 PUSH2 0x606 JUMP JUMPDEST PUSH2 0x31F PUSH0 PUSH2 0x68D JUMP JUMPDEST JUMP JUMPDEST PUSH1 0x4 SLOAD DUP2 JUMP JUMPDEST PUSH0 PUSH0 PUSH0 SWAP1 SLOAD SWAP1 PUSH2 0x100 EXP SWAP1 DIV PUSH20 0xFFFFFFFFFFFFFFFFFFFFFFFFFFFFFFFFFFFFFFFF AND SWAP1 POP SWAP1 JUMP JUMPDEST PUSH1 0x3 SLOAD DUP2 JUMP JUMPDEST PUSH1 0x50 DUP2 JUMP JUMPDEST PUSH0 PUSH1 0x7 DUP1 SLOAD SWAP1 POP SWAP1 POP SWAP1 JUMP JUMPDEST PUSH1 0x1 SLOAD DUP2 JUMP JUMPDEST PUSH1 0x14 DUP2 JUMP JUMPDEST PUSH1 0x6 PUSH0 SWAP1 SLOAD SWAP1 PUSH2 0x100 EXP SWAP1 DIV PUSH20 0xFFFFFFFFFFFFFFFFFFFFFFFFFFFFFFFFFFFFFFFF AND DUP2 JUMP JUMPDEST PUSH1 0x5 SLOAD DUP2 JUMP JUMPDEST PUSH1 0x2 SLOAD CALLVALUE EQ PUSH2 0x3DF JUMPI PUSH1 0x40 MLOAD PUSH32 0x8C379A000000000000000000000000000000000000000000000000000000000 DUP2 MSTORE PUSH1 0x4 ADD PUSH2 0x3D6 SWAP1 PUSH2 0xC57 JUMP JUMPDEST PUSH1 0x40 MLOAD DUP1 SWAP2 SUB SWAP1 REVERT JUMPDEST PUSH1 0x7 CALLER SWAP1 DUP1 PUSH1 0x1 DUP2 SLOAD ADD DUP1 DUP3 SSTORE DUP1 SWAP2 POP POP PUSH1 0x1 SWAP1 SUB SWAP1 PUSH0 MSTORE PUSH1 0x20 PUSH0 KECCAK256 ADD PUSH0 SWAP1 SWAP2 SWAP1 SWAP2 SWAP1 SWAP2 PUSH2 0x100 EXP DUP2 SLOAD DUP2 PUSH20 0xFFFFFFFFFFFFFFFFFFFFFFFFFFFFFFFFFFFFFFFF MUL NOT AND SWAP1 DUP4 PUSH20 0xFFFFFFFFFFFFFFFFFFFFFFFFFFFFFFFFFFFFFFFF AND MUL OR SWAP1 SSTORE POP PUSH0 PUSH1 0x64 PUSH1 0x50 CALLVALUE PUSH2 0x44F SWAP2 SWAP1 PUSH2 0xCA2 JUMP JUMPDEST PUSH2 0x459 SWAP2 SWAP1 PUSH2 0xD10 JUMP JUMPDEST SWAP1 POP PUSH2 0x463 PUSH2 0x327 JUMP JUMPDEST PUSH20 0xFFFFFFFFFFFFFFFFFFFFFFFFFFFFFFFFFFFFFFFF AND PUSH2 0x8FC DUP3 SWAP1 DUP2 ISZERO MUL SWAP1 PUSH1 0x40 MLOAD PUSH0 PUSH1 0x40 MLOAD DUP1 DUP4 SUB DUP2 DUP6 DUP9 DUP9 CALL SWAP4 POP POP POP POP ISZERO DUP1 ISZERO PUSH2 0x4A5 JUMPI RETURNDATASIZE PUSH0 PUSH0 RETURNDATACOPY RETURNDATASIZE PUSH0 REVERT JUMPDEST POP PUSH0 PUSH1 0x64 PUSH1 0x14 CALLVALUE PUSH2 0x4B6 SWAP2 SWAP1 PUSH2 0xCA2 JUMP JUMPDEST PUSH2 0x4C0 SWAP2 SWAP1 PUSH2 0xD10 JUMP JUMPDEST SWAP1 POP DUP1 PUSH1 0x3 PUSH0 DUP3 DUP3 SLOAD PUSH2 0x4D3 SWAP2 SWAP1 PUSH2 0xD40 JUMP JUMPDEST SWAP3 POP POP DUP2 SWAP1 SSTORE POP CALLER PUSH20 0xFFFFFFFFFFFFFFFFFFFFFFFFFFFFFFFFFFFFFFFF AND PUSH32 0x97FAC0CE6558F4ACCBB4696915809C0EF7023FFE7BA9454E94D49FB652AAE1D5 PUSH1 0x5 SLOAD CALLVALUE PUSH1 0x40 MLOAD PUSH2 0x524 SWAP3 SWAP2 SWAP1 PUSH2 0xD73 JUMP JUMPDEST PUSH1 0x40 MLOAD DUP1 SWAP2 SUB SWAP1 LOG2 PUSH1 0x4 SLOAD PUSH1 0x7 DUP1 SLOAD SWAP1 POP LT PUSH2 0x543 JUMPI PUSH2 0x542 PUSH2 0x74E JUMP JUMPDEST JUMPDEST POP POP JUMP JUMPDEST PUSH2 0x54F PUSH2 0x606 JUMP JUMPDEST PUSH0 PUSH20 0xFFFFFFFFFFFFFFFFFFFFFFFFFFFFFFFFFFFFFFFF AND DUP2 PUSH20 0xFFFFFFFFFFFFFFFFFFFFFFFFFFFFFFFFFFFFFFFF AND SUB PUSH2 0x5BF JUMPI PUSH0 PUSH1 0x40 MLOAD PUSH32 0x1E4FBDF700000000000000000000000000000000000000000000000000000000 DUP2 MSTORE PUSH1 0x4 ADD PUSH2 0x5B6 SWAP2 SWAP1 PUSH2 0xB36 JUMP JUMPDEST PUSH1 0x40 MLOAD DUP1 SWAP2 SUB SWAP1 REVERT JUMPDEST PUSH2 0x5C8 DUP2 PUSH2 0x68D JUMP JUMPDEST POP JUMP JUMPDEST PUSH1 0x7 DUP2 DUP2 SLOAD DUP2 LT PUSH2 0x5DA JUMPI PUSH0 DUP1 REVERT JUMPDEST SWAP1 PUSH0 MSTORE PUSH1 0x20 PUSH0 KECCAK256 ADD PUSH0 SWAP2 POP SLOAD SWAP1 PUSH2 0x100 EXP SWAP1 DIV PUSH20 0xFFFFFFFFFFFFFFFFFFFFFFFFFFFFFFFFFFFFFFFF AND DUP2 JUMP JUMPDEST PUSH2 0x60E PUSH2 0x8FE JUMP JUMPDEST PUSH20 0xFFFFFFFFFFFFFFFFFFFFFFFFFFFFFFFFFFFFFFFF AND PUSH2 0x62C PUSH2 0x327 JUMP JUMPDEST PUSH20 0xFFFFFFFFFFFFFFFFFFFFFFFFFFFFFFFFFFFFFFFF AND EQ PUSH2 0x68B JUMPI PUSH2 0x64F PUSH2 0x8FE JUMP JUMPDEST PUSH1 0x40 MLOAD PUSH32 0x118CDAA700000000000000000000000000000000000000000000000000000000 DUP2 MSTORE PUSH1 0x4 ADD PUSH2 0x682 SWAP2 SWAP1 PUSH2 0xB36 JUMP JUMPDEST PUSH1 0x40 MLOAD DUP1 SWAP2 SUB SWAP1 REVERT JUMPDEST JUMP JUMPDEST PUSH0 PUSH0 PUSH0 SWAP1 SLOAD SWAP1 PUSH2 0x100 EXP SWAP1 DIV PUSH20 0xFFFFFFFFFFFFFFFFFFFFFFFFFFFFFFFFFFFFFFFF AND SWAP1 POP DUP2 PUSH0 PUSH0 PUSH2 0x100 EXP DUP2 SLOAD DUP2 PUSH20 0xFFFFFFFFFFFFFFFFFFFFFFFFFFFFFFFFFFFFFFFF MUL NOT AND SWAP1 DUP4 PUSH20 0xFFFFFFFFFFFFFFFFFFFFFFFFFFFFFFFFFFFFFFFF AND MUL OR SWAP1 SSTORE POP DUP2 PUSH20 0xFFFFFFFFFFFFFFFFFFFFFFFFFFFFFFFFFFFFFFFF AND DUP2 PUSH20 0xFFFFFFFFFFFFFFFFFFFFFFFFFFFFFFFFFFFFFFFF AND PUSH32 0x8BE0079C531659141344CD1FD0A4F28419497F9722A3DAAFE3B4186F6B6457E0 PUSH1 0x40 MLOAD PUSH1 0x40 MLOAD DUP1 SWAP2 SUB SWAP1 LOG3 POP POP JUMP JUMPDEST PUSH0 TIMESTAMP PREVRANDAO PUSH1 0x7 DUP1 SLOAD SWAP1 POP PUSH1 0x5 SLOAD PUSH1 0x40 MLOAD PUSH1 0x20 ADD PUSH2 0x76D SWAP5 SWAP4 SWAP3 SWAP2 SWAP1 PUSH2 0xDBA JUMP JUMPDEST PUSH1 0x40 MLOAD PUSH1 0x20 DUP2 DUP4 SUB SUB DUP2 MSTORE SWAP1 PUSH1 0x40 MSTORE DUP1 MLOAD SWAP1 PUSH1 0x20 ADD KECCAK256 PUSH0 SHR SWAP1 POP PUSH0 PUSH1 0x7 DUP1 SLOAD SWAP1 POP DUP3 PUSH2 0x799 SWAP2 SWAP1 PUSH2 0xE07 JUMP JUMPDEST SWAP1 POP PUSH1 0x7 DUP2 DUP2 SLOAD DUP2 LT PUSH2 0x7AF JUMPI PUSH2 0x7AE PUSH2 0xE37 JUMP JUMPDEST JUMPDEST SWAP1 PUSH0 MSTORE PUSH1 0x20 PUSH0 KECCAK256 ADD PUSH0 SWAP1 SLOAD SWAP1 PUSH2 0x100 EXP SWAP1 DIV PUSH20 0xFFFFFFFFFFFFFFFFFFFFFFFFFFFFFFFFFFFFFFFF AND PUSH1 0x6 PUSH0 PUSH2 0x100 EXP DUP2 SLOAD DUP2 PUSH20 0xFFFFFFFFFFFFFFFFFFFFFFFFFFFFFFFFFFFFFFFF MUL NOT AND SWAP1 DUP4 PUSH20 0xFFFFFFFFFFFFFFFFFFFFFFFFFFFFFFFFFFFFFFFF AND MUL OR SWAP1 SSTORE POP PUSH1 0x6 PUSH0 SWAP1 SLOAD SWAP1 PUSH2 0x100 EXP SWAP1 DIV PUSH20 0xFFFFFFFFFFFFFFFFFFFFFFFFFFFFFFFFFFFFFFFF AND PUSH20 0xFFFFFFFFFFFFFFFFFFFFFFFFFFFFFFFFFFFFFFFF AND PUSH2 0x8FC PUSH1 0x3 SLOAD SWAP1 DUP2 ISZERO MUL SWAP1 PUSH1 0x40 MLOAD PUSH0 PUSH1 0x40 MLOAD DUP1 DUP4 SUB DUP2 DUP6 DUP9 DUP9 CALL SWAP4 POP POP POP POP ISZERO DUP1 ISZERO PUSH2 0x87C JUMPI RETURNDATASIZE PUSH0 PUSH0 RETURNDATACOPY RETURNDATASIZE PUSH0 REVERT JUMPDEST POP PUSH1 0x6 PUSH0 SWAP1 SLOAD SWAP1 PUSH2 0x100 EXP SWAP1 DIV PUSH20 0xFFFFFFFFFFFFFFFFFFFFFFFFFFFFFFFFFFFFFFFF AND PUSH20 0xFFFFFFFFFFFFFFFFFFFFFFFFFFFFFFFFFFFFFFFF AND PUSH32 0x32804EDB90D6A988A75E0AB375C90F92354EA0534BBBEDB460028C6B26EAF57F PUSH1 0x3 SLOAD PUSH1 0x5 SLOAD PUSH1 0x40 MLOAD PUSH2 0x8EA SWAP3 SWAP2 SWAP1 PUSH2 0xD73 JUMP JUMPDEST PUSH1 0x40 MLOAD DUP1 SWAP2 SUB SWAP1 LOG2 PUSH2 0x8FA PUSH2 0x905 JUMP JUMPDEST POP POP JUMP JUMPDEST PUSH0 CALLER SWAP1 POP SWAP1 JUMP JUMPDEST PUSH0 PUSH8 0xFFFFFFFFFFFFFFFF DUP2 GT ISZERO PUSH2 0x91F JUMPI PUSH2 0x91E PUSH2 0xE64 JUMP JUMPDEST JUMPDEST PUSH1 0x40 MLOAD SWAP1 DUP1 DUP3 MSTORE DUP1 PUSH1 0x20 MUL PUSH1 0x20 ADD DUP3 ADD PUSH1 0x40 MSTORE DUP1 ISZERO PUSH2 0x94D JUMPI DUP2 PUSH1 0x20 ADD PUSH1 0x20 DUP3 MUL DUP1 CALLDATASIZE DUP4 CALLDATACOPY DUP1 DUP3 ADD SWAP2 POP POP SWAP1 POP JUMPDEST POP PUSH1 0x7 SWAP1 DUP1 MLOAD SWAP1 PUSH1 0x20 ADD SWAP1 PUSH2 0x963 SWAP3 SWAP2 SWAP1 PUSH2 0xA24 JUMP JUMPDEST POP PUSH1 0x64 PUSH1 0x14 PUSH1 0x1 SLOAD PUSH2 0x975 SWAP2 SWAP1 PUSH2 0xCA2 JUMP JUMPDEST PUSH2 0x97F SWAP2 SWAP1 PUSH2 0xD10 JUMP JUMPDEST PUSH1 0x1 SLOAD PUSH2 0x98C SWAP2 SWAP1 PUSH2 0xD40 JUMP JUMPDEST PUSH1 0x3 DUP2 SWAP1 SSTORE POP PUSH1 0x5 PUSH0 DUP2 SLOAD DUP1 SWAP3 SWAP2 SWAP1 PUSH2 0x9A4 SWAP1 PUSH2 0xE91 JUMP JUMPDEST SWAP2 SWAP1 POP SSTORE POP PUSH0 PUSH1 0x6 PUSH0 PUSH2 0x100 EXP DUP2 SLOAD DUP2 PUSH20 0xFFFFFFFFFFFFFFFFFFFFFFFFFFFFFFFFFFFFFFFF MUL NOT AND SWAP1 DUP4 PUSH20 0xFFFFFFFFFFFFFFFFFFFFFFFFFFFFFFFFFFFFFFFF AND MUL OR SWAP1 SSTORE POP PUSH32 0x6564D21026F38AC4BC4EF082B01864F3AE6869E139A373FDF664A27A6C6DBEBB PUSH1 0x5 SLOAD PUSH1 0x40 MLOAD PUSH2 0xA1A SWAP2 SWAP1 PUSH2 0xADE JUMP JUMPDEST PUSH1 0x40 MLOAD DUP1 SWAP2 SUB SWAP1 LOG1 JUMP JUMPDEST DUP3 DUP1 SLOAD DUP3 DUP3 SSTORE SWAP1 PUSH0 MSTORE PUSH1 0x20 PUSH0 KECCAK256 SWAP1 DUP2 ADD SWAP3 DUP3 ISZERO PUSH2 0xA9A JUMPI SWAP2 PUSH1 0x20 MUL DUP3 ADD JUMPDEST DUP3 DUP2 GT ISZERO PUSH2 0xA99 JUMPI DUP3 MLOAD DUP3 PUSH0 PUSH2 0x100 EXP DUP2 SLOAD DUP2 PUSH20 0xFFFFFFFFFFFFFFFFFFFFFFFFFFFFFFFFFFFFFFFF MUL NOT AND SWAP1 DUP4 PUSH20 0xFFFFFFFFFFFFFFFFFFFFFFFFFFFFFFFFFFFFFFFF AND MUL OR SWAP1 SSTORE POP SWAP2 PUSH1 0x20 ADD SWAP2 SWAP1 PUSH1 0x1 ADD SWAP1 PUSH2 0xA42 JUMP JUMPDEST JUMPDEST POP SWAP1 POP PUSH2 0xAA7 SWAP2 SWAP1 PUSH2 0xAAB JUMP JUMPDEST POP SWAP1 JUMP JUMPDEST JUMPDEST DUP1 DUP3 GT ISZERO PUSH2 0xAC2 JUMPI PUSH0 DUP2 PUSH0 SWAP1 SSTORE POP PUSH1 0x1 ADD PUSH2 0xAAC JUMP JUMPDEST POP SWAP1 JUMP JUMPDEST PUSH0 DUP2 SWAP1 POP SWAP2 SWAP1 POP JUMP JUMPDEST PUSH2 0xAD8 DUP2 PUSH2 0xAC6 JUMP JUMPDEST DUP3 MSTORE POP POP JUMP JUMPDEST PUSH0 PUSH1 0x20 DUP3 ADD SWAP1 POP PUSH2 0xAF1 PUSH0 DUP4 ADD DUP5 PUSH2 0xACF JUMP JUMPDEST SWAP3 SWAP2 POP POP JUMP JUMPDEST PUSH0 PUSH20 0xFFFFFFFFFFFFFFFFFFFFFFFFFFFFFFFFFFFFFFFF DUP3 AND SWAP1 POP SWAP2 SWAP1 POP JUMP JUMPDEST PUSH0 PUSH2 0xB20 DUP3 PUSH2 0xAF7 JUMP JUMPDEST SWAP1 POP SWAP2 SWAP1 POP JUMP JUMPDEST PUSH2 0xB30 DUP2 PUSH2 0xB16 JUMP JUMPDEST DUP3 MSTORE POP POP JUMP JUMPDEST PUSH0 PUSH1 0x20 DUP3 ADD SWAP1 POP PUSH2 0xB49 PUSH0 DUP4 ADD DUP5 PUSH2 0xB27 JUMP JUMPDEST SWAP3 SWAP2 POP POP JUMP JUMPDEST PUSH0 PUSH0 REVERT JUMPDEST PUSH2 0xB5C DUP2 PUSH2 0xB16 JUMP JUMPDEST DUP2 EQ PUSH2 0xB66 JUMPI PUSH0 PUSH0 REVERT JUMPDEST POP JUMP JUMPDEST PUSH0 DUP2 CALLDATALOAD SWAP1 POP PUSH2 0xB77 DUP2 PUSH2 0xB53 JUMP JUMPDEST SWAP3 SWAP2 POP POP JUMP JUMPDEST PUSH0 PUSH1 0x20 DUP3 DUP5 SUB SLT ISZERO PUSH2 0xB92 JUMPI PUSH2 0xB91 PUSH2 0xB4F JUMP JUMPDEST JUMPDEST PUSH0 PUSH2 0xB9F DUP5 DUP3 DUP6 ADD PUSH2 0xB69 JUMP JUMPDEST SWAP2 POP POP SWAP3 SWAP2 POP POP JUMP JUMPDEST PUSH2 0xBB1 DUP2 PUSH2 0xAC6 JUMP JUMPDEST DUP2 EQ PUSH2 0xBBB JUMPI PUSH0 PUSH0 REVERT JUMPDEST POP JUMP JUMPDEST PUSH0 DUP2 CALLDATALOAD SWAP1 POP PUSH2 0xBCC DUP2 PUSH2 0xBA8 JUMP JUMPDEST SWAP3 SWAP2 POP POP JUMP JUMPDEST PUSH0 PUSH1 0x20 DUP3 DUP5 SUB SLT ISZERO PUSH2 0xBE7 JUMPI PUSH2 0xBE6 PUSH2 0xB4F JUMP JUMPDEST JUMPDEST PUSH0 PUSH2 0xBF4 DUP5 DUP3 DUP6 ADD PUSH2 0xBBE JUMP JUMPDEST SWAP2 POP POP SWAP3 SWAP2 POP POP JUMP JUMPDEST PUSH0 DUP3 DUP3 MSTORE PUSH1 0x20 DUP3 ADD SWAP1 POP SWAP3 SWAP2 POP POP JUMP JUMPDEST PUSH32 0x496E636F7272656374207469636B65742070726963652073656E740000000000 PUSH0 DUP3 ADD MSTORE POP JUMP JUMPDEST PUSH0 PUSH2 0xC41 PUSH1 0x1B DUP4 PUSH2 0xBFD JUMP JUMPDEST SWAP2 POP PUSH2 0xC4C DUP3 PUSH2 0xC0D JUMP JUMPDEST PUSH1 0x20 DUP3 ADD SWAP1 POP SWAP2 SWAP1 POP JUMP JUMPDEST PUSH0 PUSH1 0x20 DUP3 ADD SWAP1 POP DUP2 DUP2 SUB PUSH0 DUP4 ADD MSTORE PUSH2 0xC6E DUP2 PUSH2 0xC35 JUMP JUMPDEST SWAP1 POP SWAP2 SWAP1 POP JUMP JUMPDEST PUSH32 0x4E487B7100000000000000000000000000000000000000000000000000000000 PUSH0 MSTORE PUSH1 0x11 PUSH1 0x4 MSTORE PUSH1 0x24 PUSH0 REVERT JUMPDEST PUSH0 PUSH2 0xCAC DUP3 PUSH2 0xAC6 JUMP JUMPDEST SWAP2 POP PUSH2 0xCB7 DUP4 PUSH2 0xAC6 JUMP JUMPDEST SWAP3 POP DUP3 DUP3 MUL PUSH2 0xCC5 DUP2 PUSH2 0xAC6 JUMP JUMPDEST SWAP2 POP DUP3 DUP3 DIV DUP5 EQ DUP4 ISZERO OR PUSH2 0xCDC JUMPI PUSH2 0xCDB PUSH2 0xC75 JUMP JUMPDEST JUMPDEST POP SWAP3 SWAP2 POP POP JUMP JUMPDEST PUSH32 0x4E487B7100000000000000000000000000000000000000000000000000000000 PUSH0 MSTORE PUSH1 0x12 PUSH1 0x4 MSTORE PUSH1 0x24 PUSH0 REVERT JUMPDEST PUSH0 PUSH2 0xD1A DUP3 PUSH2 0xAC6 JUMP JUMPDEST SWAP2 POP PUSH2 0xD25 DUP4 PUSH2 0xAC6 JUMP JUMPDEST SWAP3 POP DUP3 PUSH2 0xD35 JUMPI PUSH2 0xD34 PUSH2 0xCE3 JUMP JUMPDEST JUMPDEST DUP3 DUP3 DIV SWAP1 POP SWAP3 SWAP2 POP POP JUMP JUMPDEST PUSH0 PUSH2 0xD4A DUP3 PUSH2 0xAC6 JUMP JUMPDEST SWAP2 POP PUSH2 0xD55 DUP4 PUSH2 0xAC6 JUMP JUMPDEST SWAP3 POP DUP3 DUP3 ADD SWAP1 POP DUP1 DUP3 GT ISZERO PUSH2 0xD6D JUMPI PUSH2 0xD6C PUSH2 0xC75 JUMP JUMPDEST JUMPDEST SWAP3 SWAP2 POP POP JUMP JUMPDEST PUSH0 PUSH1 0x40 DUP3 ADD SWAP1 POP PUSH2 0xD86 PUSH0 DUP4 ADD DUP6 PUSH2 0xACF JUMP JUMPDEST PUSH2 0xD93 PUSH1 0x20 DUP4 ADD DUP5 PUSH2 0xACF JUMP JUMPDEST SWAP4 SWAP3 POP POP POP JUMP JUMPDEST PUSH0 DUP2 SWAP1 POP SWAP2 SWAP1 POP JUMP JUMPDEST PUSH2 0xDB4 PUSH2 0xDAF DUP3 PUSH2 0xAC6 JUMP JUMPDEST PUSH2 0xD9A JUMP JUMPDEST DUP3 MSTORE POP POP JUMP JUMPDEST PUSH0 PUSH2 0xDC5 DUP3 DUP8 PUSH2 0xDA3 JUMP JUMPDEST PUSH1 0x20 DUP3 ADD SWAP2 POP PUSH2 0xDD5 DUP3 DUP7 PUSH2 0xDA3 JUMP JUMPDEST PUSH1 0x20 DUP3 ADD SWAP2 POP PUSH2 0xDE5 DUP3 DUP6 PUSH2 0xDA3 JUMP JUMPDEST PUSH1 0x20 DUP3 ADD SWAP2 POP PUSH2 0xDF5 DUP3 DUP5 PUSH2 0xDA3 JUMP JUMPDEST PUSH1 0x20 DUP3 ADD SWAP2 POP DUP2 SWAP1 POP SWAP6 SWAP5 POP POP POP POP POP JUMP JUMPDEST PUSH0 PUSH2 0xE11 DUP3 PUSH2 0xAC6 JUMP JUMPDEST SWAP2 POP PUSH2 0xE1C DUP4 PUSH2 0xAC6 JUMP JUMPDEST SWAP3 POP DUP3 PUSH2 0xE2C JUMPI PUSH2 0xE2B PUSH2 0xCE3 JUMP JUMPDEST JUMPDEST DUP3 DUP3 MOD SWAP1 POP SWAP3 SWAP2 POP POP JUMP JUMPDEST PUSH32 0x4E487B7100000000000000000000000000000000000000000000000000000000 PUSH0 MSTORE PUSH1 0x32 PUSH1 0x4 MSTORE PUSH1 0x24 PUSH0 REVERT JUMPDEST PUSH32 0x4E487B7100000000000000000000000000000000000000000000000000000000 PUSH0 MSTORE PUSH1 0x41 PUSH1 0x4 MSTORE PUSH1 0x24 PUSH0 REVERT JUMPDEST PUSH0 PUSH2 0xE9B DUP3 PUSH2 0xAC6 JUMP JUMPDEST SWAP2 POP PUSH32 0xFFFFFFFFFFFFFFFFFFFFFFFFFFFFFFFFFFFFFFFFFFFFFFFFFFFFFFFFFFFFFFFF DUP3 SUB PUSH2 0xECD JUMPI PUSH2 0xECC PUSH2 0xC75 JUMP JUMPDEST JUMPDEST PUSH1 0x1 DUP3 ADD SWAP1 POP SWAP2 SWAP1 POP JUMP INVALID LOG2 PUSH5 0x6970667358 0x22 SLT KECCAK256 PUSH32 0x8BE52B6AB8D1E9ED5958F932F3CB7972002BC952CBFF1D668B8AA3BFCC4A3664 PUSH20 0x6F6C634300081E00330000000000000000000000 "
				},
				"gasEstimates": {
					"creation": {
						"codeDepositCost": "770800",
						"executionCost": "infinite",
						"totalCost": "infinite"
					},
					"external": {
						"JACKPOT_CUT_PERCENTAGE()": "370",
						"OWNER_CUT_PERCENTAGE()": "392",
						"buyTicket()": "infinite",
						"currentWinningPool()": "2470",
						"getPlayersCount()": "2529",
						"initialTicketPrice()": "2448",
						"lotteryId()": "2447",
						"owner()": "2537",
						"playerThreshold()": "2493",
						"players(uint256)": "5032",
						"renounceOwnership()": "infinite",
						"ticketPrice()": "2449",
						"transferOwnership(address)": "infinite",
						"winner()": "2575"
					},
					"internal": {
						"_drawWinner()": "infinite",
						"_resetLottery()": "infinite"
					}
				},
				"methodIdentifiers": {
					"JACKPOT_CUT_PERCENTAGE()": "c70dced4",
					"OWNER_CUT_PERCENTAGE()": "a1571114",
					"buyTicket()": "edca914c",
					"currentWinningPool()": "99f13066",
					"getPlayersCount()": "a76594bf",
					"initialTicketPrice()": "c315e864",
					"lotteryId()": "e580f47b",
					"owner()": "8da5cb5b",
					"playerThreshold()": "7bd9ddd4",
					"players(uint256)": "f71d96cb",
					"renounceOwnership()": "715018a6",
					"ticketPrice()": "1209b1f6",
					"transferOwnership(address)": "f2fde38b",
					"winner()": "dfbf53ae"
				}
			},
			"storageLayout": {
				"storage": [
					{
						"astId": 8,
						"contract": "contracts/lottery.sol:Lottery",
						"label": "_owner",
						"offset": 0,
						"slot": "0",
						"type": "t_address"
					},
					{
						"astId": 184,
						"contract": "contracts/lottery.sol:Lottery",
						"label": "initialTicketPrice",
						"offset": 0,
						"slot": "1",
						"type": "t_uint256"
					},
					{
						"astId": 186,
						"contract": "contracts/lottery.sol:Lottery",
						"label": "ticketPrice",
						"offset": 0,
						"slot": "2",
						"type": "t_uint256"
					},
					{
						"astId": 188,
						"contract": "contracts/lottery.sol:Lottery",
						"label": "currentWinningPool",
						"offset": 0,
						"slot": "3",
						"type": "t_uint256"
					},
					{
						"astId": 196,
						"contract": "contracts/lottery.sol:Lottery",
						"label": "playerThreshold",
						"offset": 0,
						"slot": "4",
						"type": "t_uint256"
					},
					{
						"astId": 199,
						"contract": "contracts/lottery.sol:Lottery",
						"label": "lotteryId",
						"offset": 0,
						"slot": "5",
						"type": "t_uint256"
					},
					{
						"astId": 201,
						"contract": "contracts/lottery.sol:Lottery",
						"label": "winner",
						"offset": 0,
						"slot": "6",
						"type": "t_address"
					},
					{
						"astId": 204,
						"contract": "contracts/lottery.sol:Lottery",
						"label": "players",
						"offset": 0,
						"slot": "7",
						"type": "t_array(t_address)dyn_storage"
					}
				],
				"types": {
					"t_address": {
						"encoding": "inplace",
						"label": "address",
						"numberOfBytes": "20"
					},
					"t_array(t_address)dyn_storage": {
						"base": "t_address",
						"encoding": "dynamic_array",
						"label": "address[]",
						"numberOfBytes": "32"
					},
					"t_uint256": {
						"encoding": "inplace",
						"label": "uint256",
						"numberOfBytes": "32"
					}
				}
			},
			"userdoc": {
				"kind": "user",
				"methods": {},
				"version": 1
			}
		}
	}
}