{
	"contracts/viewKeyword.sol": {
		"View": {
			"abi": [
				{
					"inputs": [],
					"name": "getResult",
					"outputs": [
						{
							"internalType": "uint256",
							"name": "",
							"type": "uint256"
						},
						{
							"internalType": "uint256",
							"name": "",
							"type": "uint256"
						}
					],
					"stateMutability": "view",
					"type": "function"
				},
				{
					"inputs": [],
					"name": "setValue",
					"outputs": [
						{
							"internalType": "uint256",
							"name": "product",
							"type": "uint256"
						},
						{
							"internalType": "uint256",
							"name": "total",
							"type": "uint256"
						}
					],
					"stateMutability": "view",
					"type": "function"
				}
			],
			"devdoc": {
				"kind": "dev",
				"methods": {},
				"version": 1
			},
			"evm": {
				"assembly": "    /* \"contracts/viewKeyword.sol\":70:516  contract View{... */\n  mstore(0x40, 0x80)\n    /* \"contracts/viewKeyword.sol\":102:103  2 */\n  0x02\n    /* \"contracts/viewKeyword.sol\":89:103  uint256 Num1=2 */\n  0x00\n  sstore\n    /* \"contracts/viewKeyword.sol\":122:123  7 */\n  0x07\n    /* \"contracts/viewKeyword.sol\":109:123  uint256 Num2=7 */\n  0x01\n  sstore\n    /* \"contracts/viewKeyword.sol\":70:516  contract View{... */\n  callvalue\n  dup1\n  iszero\n  tag_1\n  jumpi\n  revert(0x00, 0x00)\ntag_1:\n  pop\n  dataSize(sub_0)\n  dup1\n  dataOffset(sub_0)\n  0x00\n  codecopy\n  0x00\n  return\nstop\n\nsub_0: assembly {\n        /* \"contracts/viewKeyword.sol\":70:516  contract View{... */\n      mstore(0x40, 0x80)\n      callvalue\n      dup1\n      iszero\n      tag_1\n      jumpi\n      revert(0x00, 0x00)\n    tag_1:\n      pop\n      jumpi(tag_2, lt(calldatasize, 0x04))\n      shr(0xe0, calldataload(0x00))\n      dup1\n      0x4fa519fa\n      eq\n      tag_3\n      jumpi\n      dup1\n      0xde292789\n      eq\n      tag_4\n      jumpi\n    tag_2:\n      revert(0x00, 0x00)\n        /* \"contracts/viewKeyword.sol\":323:514  function setValue() public view returns(uint256 product,uint256 total) {... */\n    tag_3:\n      tag_5\n      tag_6\n      jump\t// in\n    tag_5:\n      mload(0x40)\n      tag_7\n      swap3\n      swap2\n      swap1\n      tag_8\n      jump\t// in\n    tag_7:\n      mload(0x40)\n      dup1\n      swap2\n      sub\n      swap1\n      return\n        /* \"contracts/viewKeyword.sol\":179:271  function getResult() public view returns(uint256,uint256){... */\n    tag_4:\n      tag_9\n      tag_10\n      jump\t// in\n    tag_9:\n      mload(0x40)\n      tag_11\n      swap3\n      swap2\n      swap1\n      tag_8\n      jump\t// in\n    tag_11:\n      mload(0x40)\n      dup1\n      swap2\n      sub\n      swap1\n      return\n        /* \"contracts/viewKeyword.sol\":323:514  function setValue() public view returns(uint256 product,uint256 total) {... */\n    tag_6:\n        /* \"contracts/viewKeyword.sol\":363:378  uint256 product */\n      0x00\n        /* \"contracts/viewKeyword.sol\":379:392  uint256 total */\n      0x00\n        /* \"contracts/viewKeyword.sol\":404:416  uint256 num1 */\n      0x00\n        /* \"contracts/viewKeyword.sol\":417:419  20 */\n      0x14\n        /* \"contracts/viewKeyword.sol\":404:419  uint256 num1=20 */\n      swap1\n      pop\n        /* \"contracts/viewKeyword.sol\":429:441  uint256 num2 */\n      0x00\n        /* \"contracts/viewKeyword.sol\":442:444  34 */\n      0x22\n        /* \"contracts/viewKeyword.sol\":429:444  uint256 num2=34 */\n      swap1\n      pop\n        /* \"contracts/viewKeyword.sol\":468:472  num2 */\n      dup1\n        /* \"contracts/viewKeyword.sol\":463:467  num1 */\n      dup3\n        /* \"contracts/viewKeyword.sol\":463:472  num1*num2 */\n      tag_13\n      swap2\n      swap1\n      tag_14\n      jump\t// in\n    tag_13:\n        /* \"contracts/viewKeyword.sol\":455:472  product=num1*num2 */\n      swap4\n      pop\n        /* \"contracts/viewKeyword.sol\":494:498  Num2 */\n      sload(0x01)\n        /* \"contracts/viewKeyword.sol\":489:493  Num1 */\n      sload(0x00)\n        /* \"contracts/viewKeyword.sol\":489:498  Num1+Num2 */\n      tag_15\n      swap2\n      swap1\n      tag_16\n      jump\t// in\n    tag_15:\n        /* \"contracts/viewKeyword.sol\":483:498  total=Num1+Num2 */\n      swap3\n      pop\n        /* \"contracts/viewKeyword.sol\":394:514  {... */\n      pop\n      pop\n        /* \"contracts/viewKeyword.sol\":323:514  function setValue() public view returns(uint256 product,uint256 total) {... */\n      swap1\n      swap2\n      jump\t// out\n        /* \"contracts/viewKeyword.sol\":179:271  function getResult() public view returns(uint256,uint256){... */\n    tag_10:\n        /* \"contracts/viewKeyword.sol\":220:227  uint256 */\n      0x00\n        /* \"contracts/viewKeyword.sol\":228:235  uint256 */\n      0x00\n        /* \"contracts/viewKeyword.sol\":254:258  Num1 */\n      sload(0x00)\n        /* \"contracts/viewKeyword.sol\":259:263  Num2 */\n      sload(0x01)\n        /* \"contracts/viewKeyword.sol\":246:264  return (Num1,Num2) */\n      swap2\n      pop\n      swap2\n      pop\n        /* \"contracts/viewKeyword.sol\":179:271  function getResult() public view returns(uint256,uint256){... */\n      swap1\n      swap2\n      jump\t// out\n        /* \"#utility.yul\":7:84   */\n    tag_18:\n        /* \"#utility.yul\":44:51   */\n      0x00\n        /* \"#utility.yul\":73:78   */\n      dup2\n        /* \"#utility.yul\":62:78   */\n      swap1\n      pop\n        /* \"#utility.yul\":7:84   */\n      swap2\n      swap1\n      pop\n      jump\t// out\n        /* \"#utility.yul\":90:208   */\n    tag_19:\n        /* \"#utility.yul\":177:201   */\n      tag_24\n        /* \"#utility.yul\":195:200   */\n      dup2\n        /* \"#utility.yul\":177:201   */\n      tag_18\n      jump\t// in\n    tag_24:\n        /* \"#utility.yul\":172:175   */\n      dup3\n        /* \"#utility.yul\":165:202   */\n      mstore\n        /* \"#utility.yul\":90:208   */\n      pop\n      pop\n      jump\t// out\n        /* \"#utility.yul\":214:546   */\n    tag_8:\n        /* \"#utility.yul\":335:339   */\n      0x00\n        /* \"#utility.yul\":373:375   */\n      0x40\n        /* \"#utility.yul\":362:371   */\n      dup3\n        /* \"#utility.yul\":358:376   */\n      add\n        /* \"#utility.yul\":350:376   */\n      swap1\n      pop\n        /* \"#utility.yul\":386:457   */\n      tag_26\n        /* \"#utility.yul\":454:455   */\n      0x00\n        /* \"#utility.yul\":443:452   */\n      dup4\n        /* \"#utility.yul\":439:456   */\n      add\n        /* \"#utility.yul\":430:436   */\n      dup6\n        /* \"#utility.yul\":386:457   */\n      tag_19\n      jump\t// in\n    tag_26:\n        /* \"#utility.yul\":467:539   */\n      tag_27\n        /* \"#utility.yul\":535:537   */\n      0x20\n        /* \"#utility.yul\":524:533   */\n      dup4\n        /* \"#utility.yul\":520:538   */\n      add\n        /* \"#utility.yul\":511:517   */\n      dup5\n        /* \"#utility.yul\":467:539   */\n      tag_19\n      jump\t// in\n    tag_27:\n        /* \"#utility.yul\":214:546   */\n      swap4\n      swap3\n      pop\n      pop\n      pop\n      jump\t// out\n        /* \"#utility.yul\":552:732   */\n    tag_20:\n        /* \"#utility.yul\":600:677   */\n      0x4e487b7100000000000000000000000000000000000000000000000000000000\n        /* \"#utility.yul\":597:598   */\n      0x00\n        /* \"#utility.yul\":590:678   */\n      mstore\n        /* \"#utility.yul\":697:701   */\n      0x11\n        /* \"#utility.yul\":694:695   */\n      0x04\n        /* \"#utility.yul\":687:702   */\n      mstore\n        /* \"#utility.yul\":721:725   */\n      0x24\n        /* \"#utility.yul\":718:719   */\n      0x00\n        /* \"#utility.yul\":711:726   */\n      revert\n        /* \"#utility.yul\":738:1148   */\n    tag_14:\n        /* \"#utility.yul\":778:785   */\n      0x00\n        /* \"#utility.yul\":801:821   */\n      tag_30\n        /* \"#utility.yul\":819:820   */\n      dup3\n        /* \"#utility.yul\":801:821   */\n      tag_18\n      jump\t// in\n    tag_30:\n        /* \"#utility.yul\":796:821   */\n      swap2\n      pop\n        /* \"#utility.yul\":835:855   */\n      tag_31\n        /* \"#utility.yul\":853:854   */\n      dup4\n        /* \"#utility.yul\":835:855   */\n      tag_18\n      jump\t// in\n    tag_31:\n        /* \"#utility.yul\":830:855   */\n      swap3\n      pop\n        /* \"#utility.yul\":890:891   */\n      dup3\n        /* \"#utility.yul\":887:888   */\n      dup3\n        /* \"#utility.yul\":883:892   */\n      mul\n        /* \"#utility.yul\":912:942   */\n      tag_32\n        /* \"#utility.yul\":930:941   */\n      dup2\n        /* \"#utility.yul\":912:942   */\n      tag_18\n      jump\t// in\n    tag_32:\n        /* \"#utility.yul\":901:942   */\n      swap2\n      pop\n        /* \"#utility.yul\":1091:1092   */\n      dup3\n        /* \"#utility.yul\":1082:1089   */\n      dup3\n        /* \"#utility.yul\":1078:1093   */\n      div\n        /* \"#utility.yul\":1075:1076   */\n      dup5\n        /* \"#utility.yul\":1072:1094   */\n      eq\n        /* \"#utility.yul\":1052:1053   */\n      dup4\n        /* \"#utility.yul\":1045:1054   */\n      iszero\n        /* \"#utility.yul\":1025:1108   */\n      or\n        /* \"#utility.yul\":1002:1141   */\n      tag_33\n      jumpi\n        /* \"#utility.yul\":1121:1139   */\n      tag_34\n      tag_20\n      jump\t// in\n    tag_34:\n        /* \"#utility.yul\":1002:1141   */\n    tag_33:\n        /* \"#utility.yul\":786:1148   */\n      pop\n        /* \"#utility.yul\":738:1148   */\n      swap3\n      swap2\n      pop\n      pop\n      jump\t// out\n        /* \"#utility.yul\":1154:1345   */\n    tag_16:\n        /* \"#utility.yul\":1194:1197   */\n      0x00\n        /* \"#utility.yul\":1213:1233   */\n      tag_36\n        /* \"#utility.yul\":1231:1232   */\n      dup3\n        /* \"#utility.yul\":1213:1233   */\n      tag_18\n      jump\t// in\n    tag_36:\n        /* \"#utility.yul\":1208:1233   */\n      swap2\n      pop\n        /* \"#utility.yul\":1247:1267   */\n      tag_37\n        /* \"#utility.yul\":1265:1266   */\n      dup4\n        /* \"#utility.yul\":1247:1267   */\n      tag_18\n      jump\t// in\n    tag_37:\n        /* \"#utility.yul\":1242:1267   */\n      swap3\n      pop\n        /* \"#utility.yul\":1290:1291   */\n      dup3\n        /* \"#utility.yul\":1287:1288   */\n      dup3\n        /* \"#utility.yul\":1283:1292   */\n      add\n        /* \"#utility.yul\":1276:1292   */\n      swap1\n      pop\n        /* \"#utility.yul\":1311:1314   */\n      dup1\n        /* \"#utility.yul\":1308:1309   */\n      dup3\n        /* \"#utility.yul\":1305:1315   */\n      gt\n        /* \"#utility.yul\":1302:1338   */\n      iszero\n      tag_38\n      jumpi\n        /* \"#utility.yul\":1318:1336   */\n      tag_39\n      tag_20\n      jump\t// in\n    tag_39:\n        /* \"#utility.yul\":1302:1338   */\n    tag_38:\n        /* \"#utility.yul\":1154:1345   */\n      swap3\n      swap2\n      pop\n      pop\n      jump\t// out\n\n    auxdata: 0xa2646970667358221220731699261a41105afda78738b05d0ae160a446025f671c9deca31c2ac8bd9a3264736f6c634300081e0033\n}\n",
				"bytecode": {
					"linkReferences": {},
					"object": "608060405260025f5560076001553480156017575f5ffd5b506101cc806100255f395ff3fe608060405234801561000f575f5ffd5b5060043610610034575f3560e01c80634fa519fa14610038578063de29278914610057575b5f5ffd5b610040610076565b60405161004e9291906100ce565b60405180910390f35b61005f6100a7565b60405161006d9291906100ce565b60405180910390f35b5f5f5f601490505f60229050808261008e9190610122565b93506001545f5461009f9190610163565b925050509091565b5f5f5f54600154915091509091565b5f819050919050565b6100c8816100b6565b82525050565b5f6040820190506100e15f8301856100bf565b6100ee60208301846100bf565b9392505050565b7f4e487b71000000000000000000000000000000000000000000000000000000005f52601160045260245ffd5b5f61012c826100b6565b9150610137836100b6565b9250828202610145816100b6565b9150828204841483151761015c5761015b6100f5565b5b5092915050565b5f61016d826100b6565b9150610178836100b6565b92508282019050808211156101905761018f6100f5565b5b9291505056fea2646970667358221220731699261a41105afda78738b05d0ae160a446025f671c9deca31c2ac8bd9a3264736f6c634300081e0033",
					"opcodes": "PUSH1 0x80 PUSH1 0x40 MSTORE PUSH1 0x2 PUSH0 SSTORE PUSH1 0x7 PUSH1 0x1 SSTORE CALLVALUE DUP1 ISZERO PUSH1 0x17 JUMPI PUSH0 PUSH0 REVERT JUMPDEST POP PUSH2 0x1CC DUP1 PUSH2 0x25 PUSH0 CODECOPY PUSH0 RETURN INVALID PUSH1 0x80 PUSH1 0x40 MSTORE CALLVALUE DUP1 ISZERO PUSH2 0xF JUMPI PUSH0 PUSH0 REVERT JUMPDEST POP PUSH1 0x4 CALLDATASIZE LT PUSH2 0x34 JUMPI PUSH0 CALLDATALOAD PUSH1 0xE0 SHR DUP1 PUSH4 0x4FA519FA EQ PUSH2 0x38 JUMPI DUP1 PUSH4 0xDE292789 EQ PUSH2 0x57 JUMPI JUMPDEST PUSH0 PUSH0 REVERT JUMPDEST PUSH2 0x40 PUSH2 0x76 JUMP JUMPDEST PUSH1 0x40 MLOAD PUSH2 0x4E SWAP3 SWAP2 SWAP1 PUSH2 0xCE JUMP JUMPDEST PUSH1 0x40 MLOAD DUP1 SWAP2 SUB SWAP1 RETURN JUMPDEST PUSH2 0x5F PUSH2 0xA7 JUMP JUMPDEST PUSH1 0x40 MLOAD PUSH2 0x6D SWAP3 SWAP2 SWAP1 PUSH2 0xCE JUMP JUMPDEST PUSH1 0x40 MLOAD DUP1 SWAP2 SUB SWAP1 RETURN JUMPDEST PUSH0 PUSH0 PUSH0 PUSH1 0x14 SWAP1 POP PUSH0 PUSH1 0x22 SWAP1 POP DUP1 DUP3 PUSH2 0x8E SWAP2 SWAP1 PUSH2 0x122 JUMP JUMPDEST SWAP4 POP PUSH1 0x1 SLOAD PUSH0 SLOAD PUSH2 0x9F SWAP2 SWAP1 PUSH2 0x163 JUMP JUMPDEST SWAP3 POP POP POP SWAP1 SWAP2 JUMP JUMPDEST PUSH0 PUSH0 PUSH0 SLOAD PUSH1 0x1 SLOAD SWAP2 POP SWAP2 POP SWAP1 SWAP2 JUMP JUMPDEST PUSH0 DUP2 SWAP1 POP SWAP2 SWAP1 POP JUMP JUMPDEST PUSH2 0xC8 DUP2 PUSH2 0xB6 JUMP JUMPDEST DUP3 MSTORE POP POP JUMP JUMPDEST PUSH0 PUSH1 0x40 DUP3 ADD SWAP1 POP PUSH2 0xE1 PUSH0 DUP4 ADD DUP6 PUSH2 0xBF JUMP JUMPDEST PUSH2 0xEE PUSH1 0x20 DUP4 ADD DUP5 PUSH2 0xBF JUMP JUMPDEST SWAP4 SWAP3 POP POP POP JUMP JUMPDEST PUSH32 0x4E487B7100000000000000000000000000000000000000000000000000000000 PUSH0 MSTORE PUSH1 0x11 PUSH1 0x4 MSTORE PUSH1 0x24 PUSH0 REVERT JUMPDEST PUSH0 PUSH2 0x12C DUP3 PUSH2 0xB6 JUMP JUMPDEST SWAP2 POP PUSH2 0x137 DUP4 PUSH2 0xB6 JUMP JUMPDEST SWAP3 POP DUP3 DUP3 MUL PUSH2 0x145 DUP2 PUSH2 0xB6 JUMP JUMPDEST SWAP2 POP DUP3 DUP3 DIV DUP5 EQ DUP4 ISZERO OR PUSH2 0x15C JUMPI PUSH2 0x15B PUSH2 0xF5 JUMP JUMPDEST JUMPDEST POP SWAP3 SWAP2 POP POP JUMP JUMPDEST PUSH0 PUSH2 0x16D DUP3 PUSH2 0xB6 JUMP JUMPDEST SWAP2 POP PUSH2 0x178 DUP4 PUSH2 0xB6 JUMP JUMPDEST SWAP3 POP DUP3 DUP3 ADD SWAP1 POP DUP1 DUP3 GT ISZERO PUSH2 0x190 JUMPI PUSH2 0x18F PUSH2 0xF5 JUMP JUMPDEST JUMPDEST SWAP3 SWAP2 POP POP JUMP INVALID LOG2 PUSH5 0x6970667358 0x22 SLT KECCAK256 PUSH20 0x1699261A41105AFDA78738B05D0AE160A446025F PUSH8 0x1C9DECA31C2AC8BD SWAP11 ORIGIN PUSH5 0x736F6C6343 STOP ADDMOD 0x1E STOP CALLER "
				},
				"gasEstimates": {
					"creation": {
						"codeDepositCost": "92000",
						"executionCost": "44350",
						"totalCost": "136350"
					},
					"external": {
						"getResult()": "infinite",
						"setValue()": "infinite"
					}
				},
				"methodIdentifiers": {
					"getResult()": "de292789",
					"setValue()": "4fa519fa"
				}
			},
			"storageLayout": {
				"storage": [
					{
						"astId": 4,
						"contract": "contracts/viewKeyword.sol:View",
						"label": "Num1",
						"offset": 0,
						"slot": "0",
						"type": "t_uint256"
					},
					{
						"astId": 7,
						"contract": "contracts/viewKeyword.sol:View",
						"label": "Num2",
						"offset": 0,
						"slot": "1",
						"type": "t_uint256"
					}
				],
				"types": {
					"t_uint256": {
						"encoding": "inplace",
						"label": "uint256",
						"numberOfBytes": "32"
					}
				}
			},
			"userdoc": {
				"kind": "user",
				"methods": {},
				"version": 1
			}
		}
	}
}