{
	"contracts/stateVariable.sol": {
		"StateVariables": {
			"abi": [
				{
					"inputs": [
						{
							"internalType": "string",
							"name": "_text",
							"type": "string"
						},
						{
							"internalType": "uint256",
							"name": "_number",
							"type": "uint256"
						}
					],
					"stateMutability": "nonpayable",
					"type": "constructor"
				},
				{
					"inputs": [],
					"name": "defaultNum",
					"outputs": [
						{
							"internalType": "uint256",
							"name": "",
							"type": "uint256"
						}
					],
					"stateMutability": "view",
					"type": "function"
				},
				{
					"inputs": [],
					"name": "defaultText",
					"outputs": [
						{
							"internalType": "string",
							"name": "",
							"type": "string"
						}
					],
					"stateMutability": "view",
					"type": "function"
				},
				{
					"inputs": [],
					"name": "defaultbytes",
					"outputs": [
						{
							"internalType": "bytes",
							"name": "",
							"type": "bytes"
						}
					],
					"stateMutability": "view",
					"type": "function"
				},
				{
					"inputs": [],
					"name": "defaultbytesNo",
					"outputs": [
						{
							"internalType": "bytes",
							"name": "",
							"type": "bytes"
						}
					],
					"stateMutability": "view",
					"type": "function"
				},
				{
					"inputs": [
						{
							"internalType": "uint256",
							"name": "",
							"type": "uint256"
						}
					],
					"name": "myNuber",
					"outputs": [
						{
							"internalType": "uint256",
							"name": "",
							"type": "uint256"
						}
					],
					"stateMutability": "view",
					"type": "function"
				},
				{
					"inputs": [],
					"name": "myNum",
					"outputs": [
						{
							"internalType": "uint256",
							"name": "",
							"type": "uint256"
						}
					],
					"stateMutability": "view",
					"type": "function"
				},
				{
					"inputs": [],
					"name": "mystate",
					"outputs": [
						{
							"internalType": "string",
							"name": "",
							"type": "string"
						}
					],
					"stateMutability": "view",
					"type": "function"
				},
				{
					"inputs": [
						{
							"internalType": "string",
							"name": "_text",
							"type": "string"
						},
						{
							"internalType": "uint256",
							"name": "_num",
							"type": "uint256"
						}
					],
					"name": "update",
					"outputs": [],
					"stateMutability": "nonpayable",
					"type": "function"
				}
			],
			"devdoc": {
				"kind": "dev",
				"methods": {},
				"version": 1
			},
			"evm": {
				"assembly": "    /* \"contracts/stateVariable.sol\":70:704  contract StateVariables{... */\n  mstore(0x40, 0x80)\n    /* \"contracts/stateVariable.sol\":208:255  string public defaultText=\"Hello World default\" */\n  mload(0x40)\n  dup1\n  0x40\n  add\n  0x40\n  mstore\n  dup1\n  0x13\n  dup2\n  mstore\n  0x20\n  add\n  0x48656c6c6f20576f726c642064656661756c7400000000000000000000000000\n  dup2\n  mstore\n  pop\n  0x02\n  swap1\n  dup2\n  tag_1\n  swap2\n  swap1\n  tag_2\n  jump\t// in\ntag_1:\n  pop\n    /* \"contracts/stateVariable.sol\":287:288  5 */\n  0x05\n    /* \"contracts/stateVariable.sol\":261:288  uint256 public defaultNum=5 */\n  0x03\n  sstore\n    /* \"contracts/stateVariable.sol\":295:334  bytes public defaultbytes=\"vivek rawat\" */\n  mload(0x40)\n  dup1\n  0x40\n  add\n  0x40\n  mstore\n  dup1\n  0x0b\n  dup2\n  mstore\n  0x20\n  add\n  0x766976656b207261776174000000000000000000000000000000000000000000\n  dup2\n  mstore\n  pop\n  0x04\n  swap1\n  dup2\n  tag_3\n  swap2\n  swap1\n  tag_4\n  jump\t// in\ntag_3:\n  pop\n    /* \"contracts/stateVariable.sol\":405:590  constructor(string memory _text,uint256 _number){... */\n  callvalue\n  dup1\n  iszero\n  tag_5\n  jumpi\n  revert(0x00, 0x00)\ntag_5:\n  pop\n  mload(0x40)\n  sub(codesize, bytecodeSize)\n  dup1\n  bytecodeSize\n  dup4\n  codecopy\n  dup2\n  dup2\n  add\n  0x40\n  mstore\n  dup2\n  add\n  swap1\n  tag_6\n  swap2\n  swap1\n  tag_7\n  jump\t// in\ntag_6:\n    /* \"contracts/stateVariable.sol\":471:476  _text */\n  dup2\n    /* \"contracts/stateVariable.sol\":463:470  mystate */\n  0x00\n    /* \"contracts/stateVariable.sol\":463:476  mystate=_text */\n  swap1\n  dup2\n  tag_10\n  swap2\n  swap1\n  tag_2\n  jump\t// in\ntag_10:\n  pop\n    /* \"contracts/stateVariable.sol\":492:499  _number */\n  dup1\n    /* \"contracts/stateVariable.sol\":486:491  myNum */\n  0x01\n    /* \"contracts/stateVariable.sol\":486:499  myNum=_number */\n  dup2\n  swap1\n  sstore\n  pop\n    /* \"contracts/stateVariable.sol\":570:582  defaultbytes */\n  0x04\n    /* \"contracts/stateVariable.sol\":548:562  defaultbytesNo */\n  0x05\n    /* \"contracts/stateVariable.sol\":548:583  defaultbytesNo =bytes(defaultbytes) */\n  swap1\n  dup2\n  tag_11\n  swap2\n  swap1\n  tag_12\n  jump\t// in\ntag_11:\n  pop\n    /* \"contracts/stateVariable.sol\":405:590  constructor(string memory _text,uint256 _number){... */\n  pop\n  pop\n    /* \"contracts/stateVariable.sol\":70:704  contract StateVariables{... */\n  jump(tag_13)\n    /* \"#utility.yul\":7:106   */\ntag_14:\n    /* \"#utility.yul\":59:65   */\n  0x00\n    /* \"#utility.yul\":93:98   */\n  dup2\n    /* \"#utility.yul\":87:99   */\n  mload\n    /* \"#utility.yul\":77:99   */\n  swap1\n  pop\n    /* \"#utility.yul\":7:106   */\n  swap2\n  swap1\n  pop\n  jump\t// out\n    /* \"#utility.yul\":112:292   */\ntag_15:\n    /* \"#utility.yul\":160:237   */\n  0x4e487b7100000000000000000000000000000000000000000000000000000000\n    /* \"#utility.yul\":157:158   */\n  0x00\n    /* \"#utility.yul\":150:238   */\n  mstore\n    /* \"#utility.yul\":257:261   */\n  0x41\n    /* \"#utility.yul\":254:255   */\n  0x04\n    /* \"#utility.yul\":247:262   */\n  mstore\n    /* \"#utility.yul\":281:285   */\n  0x24\n    /* \"#utility.yul\":278:279   */\n  0x00\n    /* \"#utility.yul\":271:286   */\n  revert\n    /* \"#utility.yul\":298:478   */\ntag_16:\n    /* \"#utility.yul\":346:423   */\n  0x4e487b7100000000000000000000000000000000000000000000000000000000\n    /* \"#utility.yul\":343:344   */\n  0x00\n    /* \"#utility.yul\":336:424   */\n  mstore\n    /* \"#utility.yul\":443:447   */\n  0x22\n    /* \"#utility.yul\":440:441   */\n  0x04\n    /* \"#utility.yul\":433:448   */\n  mstore\n    /* \"#utility.yul\":467:471   */\n  0x24\n    /* \"#utility.yul\":464:465   */\n  0x00\n    /* \"#utility.yul\":457:472   */\n  revert\n    /* \"#utility.yul\":484:804   */\ntag_17:\n    /* \"#utility.yul\":528:534   */\n  0x00\n    /* \"#utility.yul\":565:566   */\n  0x02\n    /* \"#utility.yul\":559:563   */\n  dup3\n    /* \"#utility.yul\":555:567   */\n  div\n    /* \"#utility.yul\":545:567   */\n  swap1\n  pop\n    /* \"#utility.yul\":612:613   */\n  0x01\n    /* \"#utility.yul\":606:610   */\n  dup3\n    /* \"#utility.yul\":602:614   */\n  and\n    /* \"#utility.yul\":633:651   */\n  dup1\n    /* \"#utility.yul\":623:704   */\n  tag_57\n  jumpi\n    /* \"#utility.yul\":689:693   */\n  0x7f\n    /* \"#utility.yul\":681:687   */\n  dup3\n    /* \"#utility.yul\":677:694   */\n  and\n    /* \"#utility.yul\":667:694   */\n  swap2\n  pop\n    /* \"#utility.yul\":623:704   */\ntag_57:\n    /* \"#utility.yul\":751:753   */\n  0x20\n    /* \"#utility.yul\":743:749   */\n  dup3\n    /* \"#utility.yul\":740:754   */\n  lt\n    /* \"#utility.yul\":720:738   */\n  dup2\n    /* \"#utility.yul\":717:755   */\n  sub\n    /* \"#utility.yul\":714:798   */\n  tag_58\n  jumpi\n    /* \"#utility.yul\":770:788   */\n  tag_59\n  tag_16\n  jump\t// in\ntag_59:\n    /* \"#utility.yul\":714:798   */\ntag_58:\n    /* \"#utility.yul\":535:804   */\n  pop\n    /* \"#utility.yul\":484:804   */\n  swap2\n  swap1\n  pop\n  jump\t// out\n    /* \"#utility.yul\":810:951   */\ntag_18:\n    /* \"#utility.yul\":859:863   */\n  0x00\n    /* \"#utility.yul\":882:885   */\n  dup2\n    /* \"#utility.yul\":874:885   */\n  swap1\n  pop\n    /* \"#utility.yul\":905:908   */\n  dup2\n    /* \"#utility.yul\":902:903   */\n  0x00\n    /* \"#utility.yul\":895:909   */\n  mstore\n    /* \"#utility.yul\":939:943   */\n  0x20\n    /* \"#utility.yul\":936:937   */\n  0x00\n    /* \"#utility.yul\":926:944   */\n  keccak256\n    /* \"#utility.yul\":918:944   */\n  swap1\n  pop\n    /* \"#utility.yul\":810:951   */\n  swap2\n  swap1\n  pop\n  jump\t// out\n    /* \"#utility.yul\":957:1050   */\ntag_19:\n    /* \"#utility.yul\":994:1000   */\n  0x00\n    /* \"#utility.yul\":1041:1043   */\n  0x20\n    /* \"#utility.yul\":1036:1038   */\n  0x1f\n    /* \"#utility.yul\":1029:1034   */\n  dup4\n    /* \"#utility.yul\":1025:1039   */\n  add\n    /* \"#utility.yul\":1021:1044   */\n  div\n    /* \"#utility.yul\":1011:1044   */\n  swap1\n  pop\n    /* \"#utility.yul\":957:1050   */\n  swap2\n  swap1\n  pop\n  jump\t// out\n    /* \"#utility.yul\":1056:1163   */\ntag_20:\n    /* \"#utility.yul\":1100:1108   */\n  0x00\n    /* \"#utility.yul\":1150:1155   */\n  dup3\n    /* \"#utility.yul\":1144:1148   */\n  dup3\n    /* \"#utility.yul\":1140:1156   */\n  shl\n    /* \"#utility.yul\":1119:1156   */\n  swap1\n  pop\n    /* \"#utility.yul\":1056:1163   */\n  swap3\n  swap2\n  pop\n  pop\n  jump\t// out\n    /* \"#utility.yul\":1169:1562   */\ntag_21:\n    /* \"#utility.yul\":1238:1244   */\n  0x00\n    /* \"#utility.yul\":1288:1289   */\n  0x08\n    /* \"#utility.yul\":1276:1286   */\n  dup4\n    /* \"#utility.yul\":1272:1290   */\n  mul\n    /* \"#utility.yul\":1311:1408   */\n  tag_64\n    /* \"#utility.yul\":1341:1407   */\n  0xffffffffffffffffffffffffffffffffffffffffffffffffffffffffffffffff\n    /* \"#utility.yul\":1330:1339   */\n  dup3\n    /* \"#utility.yul\":1311:1408   */\n  tag_20\n  jump\t// in\ntag_64:\n    /* \"#utility.yul\":1429:1468   */\n  tag_65\n    /* \"#utility.yul\":1459:1467   */\n  dup7\n    /* \"#utility.yul\":1448:1457   */\n  dup4\n    /* \"#utility.yul\":1429:1468   */\n  tag_20\n  jump\t// in\ntag_65:\n    /* \"#utility.yul\":1417:1468   */\n  swap6\n  pop\n    /* \"#utility.yul\":1501:1505   */\n  dup1\n    /* \"#utility.yul\":1497:1506   */\n  not\n    /* \"#utility.yul\":1490:1495   */\n  dup5\n    /* \"#utility.yul\":1486:1507   */\n  and\n    /* \"#utility.yul\":1477:1507   */\n  swap4\n  pop\n    /* \"#utility.yul\":1550:1554   */\n  dup1\n    /* \"#utility.yul\":1540:1548   */\n  dup7\n    /* \"#utility.yul\":1536:1555   */\n  and\n    /* \"#utility.yul\":1529:1534   */\n  dup5\n    /* \"#utility.yul\":1526:1556   */\n  or\n    /* \"#utility.yul\":1516:1556   */\n  swap3\n  pop\n    /* \"#utility.yul\":1245:1562   */\n  pop\n  pop\n    /* \"#utility.yul\":1169:1562   */\n  swap4\n  swap3\n  pop\n  pop\n  pop\n  jump\t// out\n    /* \"#utility.yul\":1568:1645   */\ntag_22:\n    /* \"#utility.yul\":1605:1612   */\n  0x00\n    /* \"#utility.yul\":1634:1639   */\n  dup2\n    /* \"#utility.yul\":1623:1639   */\n  swap1\n  pop\n    /* \"#utility.yul\":1568:1645   */\n  swap2\n  swap1\n  pop\n  jump\t// out\n    /* \"#utility.yul\":1651:1711   */\ntag_23:\n    /* \"#utility.yul\":1679:1682   */\n  0x00\n    /* \"#utility.yul\":1700:1705   */\n  dup2\n    /* \"#utility.yul\":1693:1705   */\n  swap1\n  pop\n    /* \"#utility.yul\":1651:1711   */\n  swap2\n  swap1\n  pop\n  jump\t// out\n    /* \"#utility.yul\":1717:1859   */\ntag_24:\n    /* \"#utility.yul\":1767:1776   */\n  0x00\n    /* \"#utility.yul\":1800:1853   */\n  tag_69\n    /* \"#utility.yul\":1818:1852   */\n  tag_70\n    /* \"#utility.yul\":1827:1851   */\n  tag_71\n    /* \"#utility.yul\":1845:1850   */\n  dup5\n    /* \"#utility.yul\":1827:1851   */\n  tag_22\n  jump\t// in\ntag_71:\n    /* \"#utility.yul\":1818:1852   */\n  tag_23\n  jump\t// in\ntag_70:\n    /* \"#utility.yul\":1800:1853   */\n  tag_22\n  jump\t// in\ntag_69:\n    /* \"#utility.yul\":1787:1853   */\n  swap1\n  pop\n    /* \"#utility.yul\":1717:1859   */\n  swap2\n  swap1\n  pop\n  jump\t// out\n    /* \"#utility.yul\":1865:1940   */\ntag_25:\n    /* \"#utility.yul\":1908:1911   */\n  0x00\n    /* \"#utility.yul\":1929:1934   */\n  dup2\n    /* \"#utility.yul\":1922:1934   */\n  swap1\n  pop\n    /* \"#utility.yul\":1865:1940   */\n  swap2\n  swap1\n  pop\n  jump\t// out\n    /* \"#utility.yul\":1946:2215   */\ntag_26:\n    /* \"#utility.yul\":2056:2095   */\n  tag_74\n    /* \"#utility.yul\":2087:2094   */\n  dup4\n    /* \"#utility.yul\":2056:2095   */\n  tag_24\n  jump\t// in\ntag_74:\n    /* \"#utility.yul\":2117:2208   */\n  tag_75\n    /* \"#utility.yul\":2166:2207   */\n  tag_76\n    /* \"#utility.yul\":2190:2206   */\n  dup3\n    /* \"#utility.yul\":2166:2207   */\n  tag_25\n  jump\t// in\ntag_76:\n    /* \"#utility.yul\":2158:2164   */\n  dup5\n    /* \"#utility.yul\":2151:2155   */\n  dup5\n    /* \"#utility.yul\":2145:2156   */\n  sload\n    /* \"#utility.yul\":2117:2208   */\n  tag_21\n  jump\t// in\ntag_75:\n    /* \"#utility.yul\":2111:2115   */\n  dup3\n    /* \"#utility.yul\":2104:2209   */\n  sstore\n    /* \"#utility.yul\":2022:2215   */\n  pop\n    /* \"#utility.yul\":1946:2215   */\n  pop\n  pop\n  pop\n  jump\t// out\n    /* \"#utility.yul\":2221:2294   */\ntag_27:\n    /* \"#utility.yul\":2266:2269   */\n  0x00\n    /* \"#utility.yul\":2287:2288   */\n  0x00\n    /* \"#utility.yul\":2280:2288   */\n  swap1\n  pop\n    /* \"#utility.yul\":2221:2294   */\n  swap1\n  jump\t// out\n    /* \"#utility.yul\":2300:2489   */\ntag_28:\n    /* \"#utility.yul\":2377:2409   */\n  tag_79\n  tag_27\n  jump\t// in\ntag_79:\n    /* \"#utility.yul\":2418:2483   */\n  tag_80\n    /* \"#utility.yul\":2476:2482   */\n  dup2\n    /* \"#utility.yul\":2468:2474   */\n  dup5\n    /* \"#utility.yul\":2462:2466   */\n  dup5\n    /* \"#utility.yul\":2418:2483   */\n  tag_26\n  jump\t// in\ntag_80:\n    /* \"#utility.yul\":2353:2489   */\n  pop\n    /* \"#utility.yul\":2300:2489   */\n  pop\n  pop\n  jump\t// out\n    /* \"#utility.yul\":2495:2681   */\ntag_29:\n    /* \"#utility.yul\":2555:2675   */\ntag_82:\n    /* \"#utility.yul\":2572:2575   */\n  dup2\n    /* \"#utility.yul\":2565:2570   */\n  dup2\n    /* \"#utility.yul\":2562:2576   */\n  lt\n    /* \"#utility.yul\":2555:2675   */\n  iszero\n  tag_84\n  jumpi\n    /* \"#utility.yul\":2626:2665   */\n  tag_85\n    /* \"#utility.yul\":2663:2664   */\n  0x00\n    /* \"#utility.yul\":2656:2661   */\n  dup3\n    /* \"#utility.yul\":2626:2665   */\n  tag_28\n  jump\t// in\ntag_85:\n    /* \"#utility.yul\":2599:2600   */\n  0x01\n    /* \"#utility.yul\":2592:2597   */\n  dup2\n    /* \"#utility.yul\":2588:2601   */\n  add\n    /* \"#utility.yul\":2579:2601   */\n  swap1\n  pop\n    /* \"#utility.yul\":2555:2675   */\n  jump(tag_82)\ntag_84:\n    /* \"#utility.yul\":2495:2681   */\n  pop\n  pop\n  jump\t// out\n    /* \"#utility.yul\":2687:3230   */\ntag_30:\n    /* \"#utility.yul\":2788:2790   */\n  0x1f\n    /* \"#utility.yul\":2783:2786   */\n  dup3\n    /* \"#utility.yul\":2780:2791   */\n  gt\n    /* \"#utility.yul\":2777:3223   */\n  iszero\n  tag_87\n  jumpi\n    /* \"#utility.yul\":2822:2860   */\n  tag_88\n    /* \"#utility.yul\":2854:2859   */\n  dup2\n    /* \"#utility.yul\":2822:2860   */\n  tag_18\n  jump\t// in\ntag_88:\n    /* \"#utility.yul\":2906:2935   */\n  tag_89\n    /* \"#utility.yul\":2924:2934   */\n  dup5\n    /* \"#utility.yul\":2906:2935   */\n  tag_19\n  jump\t// in\ntag_89:\n    /* \"#utility.yul\":2896:2904   */\n  dup2\n    /* \"#utility.yul\":2892:2936   */\n  add\n    /* \"#utility.yul\":3089:3091   */\n  0x20\n    /* \"#utility.yul\":3077:3087   */\n  dup6\n    /* \"#utility.yul\":3074:3092   */\n  lt\n    /* \"#utility.yul\":3071:3120   */\n  iszero\n  tag_90\n  jumpi\n    /* \"#utility.yul\":3110:3118   */\n  dup2\n    /* \"#utility.yul\":3095:3118   */\n  swap1\n  pop\n    /* \"#utility.yul\":3071:3120   */\ntag_90:\n    /* \"#utility.yul\":3133:3213   */\n  tag_91\n    /* \"#utility.yul\":3189:3211   */\n  tag_92\n    /* \"#utility.yul\":3207:3210   */\n  dup6\n    /* \"#utility.yul\":3189:3211   */\n  tag_19\n  jump\t// in\ntag_92:\n    /* \"#utility.yul\":3179:3187   */\n  dup4\n    /* \"#utility.yul\":3175:3212   */\n  add\n    /* \"#utility.yul\":3162:3173   */\n  dup3\n    /* \"#utility.yul\":3133:3213   */\n  tag_29\n  jump\t// in\ntag_91:\n    /* \"#utility.yul\":2792:3223   */\n  pop\n  pop\n    /* \"#utility.yul\":2777:3223   */\ntag_87:\n    /* \"#utility.yul\":2687:3230   */\n  pop\n  pop\n  pop\n  jump\t// out\n    /* \"#utility.yul\":3236:3353   */\ntag_31:\n    /* \"#utility.yul\":3290:3298   */\n  0x00\n    /* \"#utility.yul\":3340:3345   */\n  dup3\n    /* \"#utility.yul\":3334:3338   */\n  dup3\n    /* \"#utility.yul\":3330:3346   */\n  shr\n    /* \"#utility.yul\":3309:3346   */\n  swap1\n  pop\n    /* \"#utility.yul\":3236:3353   */\n  swap3\n  swap2\n  pop\n  pop\n  jump\t// out\n    /* \"#utility.yul\":3359:3528   */\ntag_32:\n    /* \"#utility.yul\":3403:3409   */\n  0x00\n    /* \"#utility.yul\":3436:3487   */\n  tag_95\n    /* \"#utility.yul\":3484:3485   */\n  0x00\n    /* \"#utility.yul\":3480:3486   */\n  not\n    /* \"#utility.yul\":3472:3477   */\n  dup5\n    /* \"#utility.yul\":3469:3470   */\n  0x08\n    /* \"#utility.yul\":3465:3478   */\n  mul\n    /* \"#utility.yul\":3436:3487   */\n  tag_31\n  jump\t// in\ntag_95:\n    /* \"#utility.yul\":3432:3488   */\n  not\n    /* \"#utility.yul\":3517:3521   */\n  dup1\n    /* \"#utility.yul\":3511:3515   */\n  dup4\n    /* \"#utility.yul\":3507:3522   */\n  and\n    /* \"#utility.yul\":3497:3522   */\n  swap2\n  pop\n    /* \"#utility.yul\":3410:3528   */\n  pop\n    /* \"#utility.yul\":3359:3528   */\n  swap3\n  swap2\n  pop\n  pop\n  jump\t// out\n    /* \"#utility.yul\":3533:3828   */\ntag_33:\n    /* \"#utility.yul\":3609:3613   */\n  0x00\n    /* \"#utility.yul\":3755:3784   */\n  tag_97\n    /* \"#utility.yul\":3780:3783   */\n  dup4\n    /* \"#utility.yul\":3774:3778   */\n  dup4\n    /* \"#utility.yul\":3755:3784   */\n  tag_32\n  jump\t// in\ntag_97:\n    /* \"#utility.yul\":3747:3784   */\n  swap2\n  pop\n    /* \"#utility.yul\":3817:3820   */\n  dup3\n    /* \"#utility.yul\":3814:3815   */\n  0x02\n    /* \"#utility.yul\":3810:3821   */\n  mul\n    /* \"#utility.yul\":3804:3808   */\n  dup3\n    /* \"#utility.yul\":3801:3822   */\n  or\n    /* \"#utility.yul\":3793:3822   */\n  swap1\n  pop\n    /* \"#utility.yul\":3533:3828   */\n  swap3\n  swap2\n  pop\n  pop\n  jump\t// out\n    /* \"#utility.yul\":3833:5228   */\ntag_2:\n    /* \"#utility.yul\":3950:3987   */\n  tag_99\n    /* \"#utility.yul\":3983:3986   */\n  dup3\n    /* \"#utility.yul\":3950:3987   */\n  tag_14\n  jump\t// in\ntag_99:\n    /* \"#utility.yul\":4052:4070   */\n  0xffffffffffffffff\n    /* \"#utility.yul\":4044:4050   */\n  dup2\n    /* \"#utility.yul\":4041:4071   */\n  gt\n    /* \"#utility.yul\":4038:4094   */\n  iszero\n  tag_100\n  jumpi\n    /* \"#utility.yul\":4074:4092   */\n  tag_101\n  tag_15\n  jump\t// in\ntag_101:\n    /* \"#utility.yul\":4038:4094   */\ntag_100:\n    /* \"#utility.yul\":4118:4156   */\n  tag_102\n    /* \"#utility.yul\":4150:4154   */\n  dup3\n    /* \"#utility.yul\":4144:4155   */\n  sload\n    /* \"#utility.yul\":4118:4156   */\n  tag_17\n  jump\t// in\ntag_102:\n    /* \"#utility.yul\":4203:4270   */\n  tag_103\n    /* \"#utility.yul\":4263:4269   */\n  dup3\n    /* \"#utility.yul\":4255:4261   */\n  dup3\n    /* \"#utility.yul\":4249:4253   */\n  dup6\n    /* \"#utility.yul\":4203:4270   */\n  tag_30\n  jump\t// in\ntag_103:\n    /* \"#utility.yul\":4297:4298   */\n  0x00\n    /* \"#utility.yul\":4321:4325   */\n  0x20\n    /* \"#utility.yul\":4308:4325   */\n  swap1\n  pop\n    /* \"#utility.yul\":4353:4355   */\n  0x1f\n    /* \"#utility.yul\":4345:4351   */\n  dup4\n    /* \"#utility.yul\":4342:4356   */\n  gt\n    /* \"#utility.yul\":4370:4371   */\n  0x01\n    /* \"#utility.yul\":4365:4983   */\n  dup2\n  eq\n  tag_105\n  jumpi\n    /* \"#utility.yul\":5027:5028   */\n  0x00\n    /* \"#utility.yul\":5044:5050   */\n  dup5\n    /* \"#utility.yul\":5041:5118   */\n  iszero\n  tag_106\n  jumpi\n    /* \"#utility.yul\":5093:5102   */\n  dup3\n    /* \"#utility.yul\":5088:5091   */\n  dup8\n    /* \"#utility.yul\":5084:5103   */\n  add\n    /* \"#utility.yul\":5078:5104   */\n  mload\n    /* \"#utility.yul\":5069:5104   */\n  swap1\n  pop\n    /* \"#utility.yul\":5041:5118   */\ntag_106:\n    /* \"#utility.yul\":5144:5211   */\n  tag_107\n    /* \"#utility.yul\":5204:5210   */\n  dup6\n    /* \"#utility.yul\":5197:5202   */\n  dup3\n    /* \"#utility.yul\":5144:5211   */\n  tag_33\n  jump\t// in\ntag_107:\n    /* \"#utility.yul\":5138:5142   */\n  dup7\n    /* \"#utility.yul\":5131:5212   */\n  sstore\n    /* \"#utility.yul\":5000:5222   */\n  pop\n    /* \"#utility.yul\":4335:5222   */\n  jump(tag_104)\n    /* \"#utility.yul\":4365:4983   */\ntag_105:\n    /* \"#utility.yul\":4417:4421   */\n  0x1f\n    /* \"#utility.yul\":4413:4422   */\n  not\n    /* \"#utility.yul\":4405:4411   */\n  dup5\n    /* \"#utility.yul\":4401:4423   */\n  and\n    /* \"#utility.yul\":4451:4488   */\n  tag_108\n    /* \"#utility.yul\":4483:4487   */\n  dup7\n    /* \"#utility.yul\":4451:4488   */\n  tag_18\n  jump\t// in\ntag_108:\n    /* \"#utility.yul\":4510:4511   */\n  0x00\n    /* \"#utility.yul\":4524:4732   */\ntag_109:\n    /* \"#utility.yul\":4538:4545   */\n  dup3\n    /* \"#utility.yul\":4535:4536   */\n  dup2\n    /* \"#utility.yul\":4532:4546   */\n  lt\n    /* \"#utility.yul\":4524:4732   */\n  iszero\n  tag_111\n  jumpi\n    /* \"#utility.yul\":4617:4626   */\n  dup5\n    /* \"#utility.yul\":4612:4615   */\n  dup10\n    /* \"#utility.yul\":4608:4627   */\n  add\n    /* \"#utility.yul\":4602:4628   */\n  mload\n    /* \"#utility.yul\":4594:4600   */\n  dup3\n    /* \"#utility.yul\":4587:4629   */\n  sstore\n    /* \"#utility.yul\":4668:4669   */\n  0x01\n    /* \"#utility.yul\":4660:4666   */\n  dup3\n    /* \"#utility.yul\":4656:4670   */\n  add\n    /* \"#utility.yul\":4646:4670   */\n  swap2\n  pop\n    /* \"#utility.yul\":4715:4717   */\n  0x20\n    /* \"#utility.yul\":4704:4713   */\n  dup6\n    /* \"#utility.yul\":4700:4718   */\n  add\n    /* \"#utility.yul\":4687:4718   */\n  swap5\n  pop\n    /* \"#utility.yul\":4561:4565   */\n  0x20\n    /* \"#utility.yul\":4558:4559   */\n  dup2\n    /* \"#utility.yul\":4554:4566   */\n  add\n    /* \"#utility.yul\":4549:4566   */\n  swap1\n  pop\n    /* \"#utility.yul\":4524:4732   */\n  jump(tag_109)\ntag_111:\n    /* \"#utility.yul\":4760:4766   */\n  dup7\n    /* \"#utility.yul\":4751:4758   */\n  dup4\n    /* \"#utility.yul\":4748:4767   */\n  lt\n    /* \"#utility.yul\":4745:4924   */\n  iszero\n  tag_112\n  jumpi\n    /* \"#utility.yul\":4818:4827   */\n  dup5\n    /* \"#utility.yul\":4813:4816   */\n  dup10\n    /* \"#utility.yul\":4809:4828   */\n  add\n    /* \"#utility.yul\":4803:4829   */\n  mload\n    /* \"#utility.yul\":4861:4909   */\n  tag_113\n    /* \"#utility.yul\":4903:4907   */\n  0x1f\n    /* \"#utility.yul\":4895:4901   */\n  dup10\n    /* \"#utility.yul\":4891:4908   */\n  and\n    /* \"#utility.yul\":4880:4889   */\n  dup3\n    /* \"#utility.yul\":4861:4909   */\n  tag_32\n  jump\t// in\ntag_113:\n    /* \"#utility.yul\":4853:4859   */\n  dup4\n    /* \"#utility.yul\":4846:4910   */\n  sstore\n    /* \"#utility.yul\":4768:4924   */\n  pop\n    /* \"#utility.yul\":4745:4924   */\ntag_112:\n    /* \"#utility.yul\":4970:4971   */\n  0x01\n    /* \"#utility.yul\":4966:4967   */\n  0x02\n    /* \"#utility.yul\":4958:4964   */\n  dup9\n    /* \"#utility.yul\":4954:4968   */\n  mul\n    /* \"#utility.yul\":4950:4972   */\n  add\n    /* \"#utility.yul\":4944:4948   */\n  dup9\n    /* \"#utility.yul\":4937:4973   */\n  sstore\n    /* \"#utility.yul\":4372:4983   */\n  pop\n  pop\n  pop\n    /* \"#utility.yul\":4335:5222   */\ntag_104:\n  pop\n    /* \"#utility.yul\":3925:5228   */\n  pop\n  pop\n  pop\n    /* \"#utility.yul\":3833:5228   */\n  pop\n  pop\n  jump\t// out\n    /* \"#utility.yul\":5234:5374   */\ntag_34:\n    /* \"#utility.yul\":5282:5286   */\n  0x00\n    /* \"#utility.yul\":5305:5308   */\n  dup2\n    /* \"#utility.yul\":5297:5308   */\n  swap1\n  pop\n    /* \"#utility.yul\":5328:5331   */\n  dup2\n    /* \"#utility.yul\":5325:5326   */\n  0x00\n    /* \"#utility.yul\":5318:5332   */\n  mstore\n    /* \"#utility.yul\":5362:5366   */\n  0x20\n    /* \"#utility.yul\":5359:5360   */\n  0x00\n    /* \"#utility.yul\":5349:5367   */\n  keccak256\n    /* \"#utility.yul\":5341:5367   */\n  swap1\n  pop\n    /* \"#utility.yul\":5234:5374   */\n  swap2\n  swap1\n  pop\n  jump\t// out\n    /* \"#utility.yul\":5380:5921   */\ntag_35:\n    /* \"#utility.yul\":5480:5482   */\n  0x1f\n    /* \"#utility.yul\":5475:5478   */\n  dup3\n    /* \"#utility.yul\":5472:5483   */\n  gt\n    /* \"#utility.yul\":5469:5914   */\n  iszero\n  tag_116\n  jumpi\n    /* \"#utility.yul\":5514:5551   */\n  tag_117\n    /* \"#utility.yul\":5545:5550   */\n  dup2\n    /* \"#utility.yul\":5514:5551   */\n  tag_34\n  jump\t// in\ntag_117:\n    /* \"#utility.yul\":5597:5626   */\n  tag_118\n    /* \"#utility.yul\":5615:5625   */\n  dup5\n    /* \"#utility.yul\":5597:5626   */\n  tag_19\n  jump\t// in\ntag_118:\n    /* \"#utility.yul\":5587:5595   */\n  dup2\n    /* \"#utility.yul\":5583:5627   */\n  add\n    /* \"#utility.yul\":5780:5782   */\n  0x20\n    /* \"#utility.yul\":5768:5778   */\n  dup6\n    /* \"#utility.yul\":5765:5783   */\n  lt\n    /* \"#utility.yul\":5762:5811   */\n  iszero\n  tag_119\n  jumpi\n    /* \"#utility.yul\":5801:5809   */\n  dup2\n    /* \"#utility.yul\":5786:5809   */\n  swap1\n  pop\n    /* \"#utility.yul\":5762:5811   */\ntag_119:\n    /* \"#utility.yul\":5824:5904   */\n  tag_120\n    /* \"#utility.yul\":5880:5902   */\n  tag_121\n    /* \"#utility.yul\":5898:5901   */\n  dup6\n    /* \"#utility.yul\":5880:5902   */\n  tag_19\n  jump\t// in\ntag_121:\n    /* \"#utility.yul\":5870:5878   */\n  dup4\n    /* \"#utility.yul\":5866:5903   */\n  add\n    /* \"#utility.yul\":5853:5864   */\n  dup3\n    /* \"#utility.yul\":5824:5904   */\n  tag_29\n  jump\t// in\ntag_120:\n    /* \"#utility.yul\":5484:5914   */\n  pop\n  pop\n    /* \"#utility.yul\":5469:5914   */\ntag_116:\n    /* \"#utility.yul\":5380:5921   */\n  pop\n  pop\n  pop\n  jump\t// out\n    /* \"#utility.yul\":5927:7319   */\ntag_4:\n    /* \"#utility.yul\":6043:6080   */\n  tag_123\n    /* \"#utility.yul\":6076:6079   */\n  dup3\n    /* \"#utility.yul\":6043:6080   */\n  tag_14\n  jump\t// in\ntag_123:\n    /* \"#utility.yul\":6145:6163   */\n  0xffffffffffffffff\n    /* \"#utility.yul\":6137:6143   */\n  dup2\n    /* \"#utility.yul\":6134:6164   */\n  gt\n    /* \"#utility.yul\":6131:6187   */\n  iszero\n  tag_124\n  jumpi\n    /* \"#utility.yul\":6167:6185   */\n  tag_125\n  tag_15\n  jump\t// in\ntag_125:\n    /* \"#utility.yul\":6131:6187   */\ntag_124:\n    /* \"#utility.yul\":6211:6249   */\n  tag_126\n    /* \"#utility.yul\":6243:6247   */\n  dup3\n    /* \"#utility.yul\":6237:6248   */\n  sload\n    /* \"#utility.yul\":6211:6249   */\n  tag_17\n  jump\t// in\ntag_126:\n    /* \"#utility.yul\":6296:6362   */\n  tag_127\n    /* \"#utility.yul\":6355:6361   */\n  dup3\n    /* \"#utility.yul\":6347:6353   */\n  dup3\n    /* \"#utility.yul\":6341:6345   */\n  dup6\n    /* \"#utility.yul\":6296:6362   */\n  tag_35\n  jump\t// in\ntag_127:\n    /* \"#utility.yul\":6389:6390   */\n  0x00\n    /* \"#utility.yul\":6413:6417   */\n  0x20\n    /* \"#utility.yul\":6400:6417   */\n  swap1\n  pop\n    /* \"#utility.yul\":6445:6447   */\n  0x1f\n    /* \"#utility.yul\":6437:6443   */\n  dup4\n    /* \"#utility.yul\":6434:6448   */\n  gt\n    /* \"#utility.yul\":6462:6463   */\n  0x01\n    /* \"#utility.yul\":6457:7074   */\n  dup2\n  eq\n  tag_129\n  jumpi\n    /* \"#utility.yul\":7118:7119   */\n  0x00\n    /* \"#utility.yul\":7135:7141   */\n  dup5\n    /* \"#utility.yul\":7132:7209   */\n  iszero\n  tag_130\n  jumpi\n    /* \"#utility.yul\":7184:7193   */\n  dup3\n    /* \"#utility.yul\":7179:7182   */\n  dup8\n    /* \"#utility.yul\":7175:7194   */\n  add\n    /* \"#utility.yul\":7169:7195   */\n  mload\n    /* \"#utility.yul\":7160:7195   */\n  swap1\n  pop\n    /* \"#utility.yul\":7132:7209   */\ntag_130:\n    /* \"#utility.yul\":7235:7302   */\n  tag_131\n    /* \"#utility.yul\":7295:7301   */\n  dup6\n    /* \"#utility.yul\":7288:7293   */\n  dup3\n    /* \"#utility.yul\":7235:7302   */\n  tag_33\n  jump\t// in\ntag_131:\n    /* \"#utility.yul\":7229:7233   */\n  dup7\n    /* \"#utility.yul\":7222:7303   */\n  sstore\n    /* \"#utility.yul\":7091:7313   */\n  pop\n    /* \"#utility.yul\":6427:7313   */\n  jump(tag_128)\n    /* \"#utility.yul\":6457:7074   */\ntag_129:\n    /* \"#utility.yul\":6509:6513   */\n  0x1f\n    /* \"#utility.yul\":6505:6514   */\n  not\n    /* \"#utility.yul\":6497:6503   */\n  dup5\n    /* \"#utility.yul\":6493:6515   */\n  and\n    /* \"#utility.yul\":6543:6579   */\n  tag_132\n    /* \"#utility.yul\":6574:6578   */\n  dup7\n    /* \"#utility.yul\":6543:6579   */\n  tag_34\n  jump\t// in\ntag_132:\n    /* \"#utility.yul\":6601:6602   */\n  0x00\n    /* \"#utility.yul\":6615:6823   */\ntag_133:\n    /* \"#utility.yul\":6629:6636   */\n  dup3\n    /* \"#utility.yul\":6626:6627   */\n  dup2\n    /* \"#utility.yul\":6623:6637   */\n  lt\n    /* \"#utility.yul\":6615:6823   */\n  iszero\n  tag_135\n  jumpi\n    /* \"#utility.yul\":6708:6717   */\n  dup5\n    /* \"#utility.yul\":6703:6706   */\n  dup10\n    /* \"#utility.yul\":6699:6718   */\n  add\n    /* \"#utility.yul\":6693:6719   */\n  mload\n    /* \"#utility.yul\":6685:6691   */\n  dup3\n    /* \"#utility.yul\":6678:6720   */\n  sstore\n    /* \"#utility.yul\":6759:6760   */\n  0x01\n    /* \"#utility.yul\":6751:6757   */\n  dup3\n    /* \"#utility.yul\":6747:6761   */\n  add\n    /* \"#utility.yul\":6737:6761   */\n  swap2\n  pop\n    /* \"#utility.yul\":6806:6808   */\n  0x20\n    /* \"#utility.yul\":6795:6804   */\n  dup6\n    /* \"#utility.yul\":6791:6809   */\n  add\n    /* \"#utility.yul\":6778:6809   */\n  swap5\n  pop\n    /* \"#utility.yul\":6652:6656   */\n  0x20\n    /* \"#utility.yul\":6649:6650   */\n  dup2\n    /* \"#utility.yul\":6645:6657   */\n  add\n    /* \"#utility.yul\":6640:6657   */\n  swap1\n  pop\n    /* \"#utility.yul\":6615:6823   */\n  jump(tag_133)\ntag_135:\n    /* \"#utility.yul\":6851:6857   */\n  dup7\n    /* \"#utility.yul\":6842:6849   */\n  dup4\n    /* \"#utility.yul\":6839:6858   */\n  lt\n    /* \"#utility.yul\":6836:7015   */\n  iszero\n  tag_136\n  jumpi\n    /* \"#utility.yul\":6909:6918   */\n  dup5\n    /* \"#utility.yul\":6904:6907   */\n  dup10\n    /* \"#utility.yul\":6900:6919   */\n  add\n    /* \"#utility.yul\":6894:6920   */\n  mload\n    /* \"#utility.yul\":6952:7000   */\n  tag_137\n    /* \"#utility.yul\":6994:6998   */\n  0x1f\n    /* \"#utility.yul\":6986:6992   */\n  dup10\n    /* \"#utility.yul\":6982:6999   */\n  and\n    /* \"#utility.yul\":6971:6980   */\n  dup3\n    /* \"#utility.yul\":6952:7000   */\n  tag_32\n  jump\t// in\ntag_137:\n    /* \"#utility.yul\":6944:6950   */\n  dup4\n    /* \"#utility.yul\":6937:7001   */\n  sstore\n    /* \"#utility.yul\":6859:7015   */\n  pop\n    /* \"#utility.yul\":6836:7015   */\ntag_136:\n    /* \"#utility.yul\":7061:7062   */\n  0x01\n    /* \"#utility.yul\":7057:7058   */\n  0x02\n    /* \"#utility.yul\":7049:7055   */\n  dup9\n    /* \"#utility.yul\":7045:7059   */\n  mul\n    /* \"#utility.yul\":7041:7063   */\n  add\n    /* \"#utility.yul\":7035:7039   */\n  dup9\n    /* \"#utility.yul\":7028:7064   */\n  sstore\n    /* \"#utility.yul\":6464:7074   */\n  pop\n  pop\n  pop\n    /* \"#utility.yul\":6427:7313   */\ntag_128:\n  pop\n    /* \"#utility.yul\":6018:7319   */\n  pop\n  pop\n  pop\n    /* \"#utility.yul\":5927:7319   */\n  pop\n  pop\n  jump\t// out\n    /* \"#utility.yul\":7325:7400   */\ntag_36:\n    /* \"#utility.yul\":7358:7364   */\n  0x00\n    /* \"#utility.yul\":7391:7393   */\n  0x40\n    /* \"#utility.yul\":7385:7394   */\n  mload\n    /* \"#utility.yul\":7375:7394   */\n  swap1\n  pop\n    /* \"#utility.yul\":7325:7400   */\n  swap1\n  jump\t// out\n    /* \"#utility.yul\":7406:7523   */\ntag_37:\n    /* \"#utility.yul\":7515:7516   */\n  0x00\n    /* \"#utility.yul\":7512:7513   */\n  0x00\n    /* \"#utility.yul\":7505:7517   */\n  revert\n    /* \"#utility.yul\":7529:7646   */\ntag_38:\n    /* \"#utility.yul\":7638:7639   */\n  0x00\n    /* \"#utility.yul\":7635:7636   */\n  0x00\n    /* \"#utility.yul\":7628:7640   */\n  revert\n    /* \"#utility.yul\":7652:7769   */\ntag_39:\n    /* \"#utility.yul\":7761:7762   */\n  0x00\n    /* \"#utility.yul\":7758:7759   */\n  0x00\n    /* \"#utility.yul\":7751:7763   */\n  revert\n    /* \"#utility.yul\":7775:7892   */\ntag_40:\n    /* \"#utility.yul\":7884:7885   */\n  0x00\n    /* \"#utility.yul\":7881:7882   */\n  0x00\n    /* \"#utility.yul\":7874:7886   */\n  revert\n    /* \"#utility.yul\":7898:8000   */\ntag_41:\n    /* \"#utility.yul\":7939:7945   */\n  0x00\n    /* \"#utility.yul\":7990:7992   */\n  0x1f\n    /* \"#utility.yul\":7986:7993   */\n  not\n    /* \"#utility.yul\":7981:7983   */\n  0x1f\n    /* \"#utility.yul\":7974:7979   */\n  dup4\n    /* \"#utility.yul\":7970:7984   */\n  add\n    /* \"#utility.yul\":7966:7994   */\n  and\n    /* \"#utility.yul\":7956:7994   */\n  swap1\n  pop\n    /* \"#utility.yul\":7898:8000   */\n  swap2\n  swap1\n  pop\n  jump\t// out\n    /* \"#utility.yul\":8006:8287   */\ntag_42:\n    /* \"#utility.yul\":8089:8116   */\n  tag_145\n    /* \"#utility.yul\":8111:8115   */\n  dup3\n    /* \"#utility.yul\":8089:8116   */\n  tag_41\n  jump\t// in\ntag_145:\n    /* \"#utility.yul\":8081:8087   */\n  dup2\n    /* \"#utility.yul\":8077:8117   */\n  add\n    /* \"#utility.yul\":8219:8225   */\n  dup2\n    /* \"#utility.yul\":8207:8217   */\n  dup2\n    /* \"#utility.yul\":8204:8226   */\n  lt\n    /* \"#utility.yul\":8183:8201   */\n  0xffffffffffffffff\n    /* \"#utility.yul\":8171:8181   */\n  dup3\n    /* \"#utility.yul\":8168:8202   */\n  gt\n    /* \"#utility.yul\":8165:8227   */\n  or\n    /* \"#utility.yul\":8162:8250   */\n  iszero\n  tag_146\n  jumpi\n    /* \"#utility.yul\":8230:8248   */\n  tag_147\n  tag_15\n  jump\t// in\ntag_147:\n    /* \"#utility.yul\":8162:8250   */\ntag_146:\n    /* \"#utility.yul\":8270:8280   */\n  dup1\n    /* \"#utility.yul\":8266:8268   */\n  0x40\n    /* \"#utility.yul\":8259:8281   */\n  mstore\n    /* \"#utility.yul\":8049:8287   */\n  pop\n    /* \"#utility.yul\":8006:8287   */\n  pop\n  pop\n  jump\t// out\n    /* \"#utility.yul\":8293:8422   */\ntag_43:\n    /* \"#utility.yul\":8327:8333   */\n  0x00\n    /* \"#utility.yul\":8354:8374   */\n  tag_149\n  tag_36\n  jump\t// in\ntag_149:\n    /* \"#utility.yul\":8344:8374   */\n  swap1\n  pop\n    /* \"#utility.yul\":8383:8416   */\n  tag_150\n    /* \"#utility.yul\":8411:8415   */\n  dup3\n    /* \"#utility.yul\":8403:8409   */\n  dup3\n    /* \"#utility.yul\":8383:8416   */\n  tag_42\n  jump\t// in\ntag_150:\n    /* \"#utility.yul\":8293:8422   */\n  swap2\n  swap1\n  pop\n  jump\t// out\n    /* \"#utility.yul\":8428:8736   */\ntag_44:\n    /* \"#utility.yul\":8490:8494   */\n  0x00\n    /* \"#utility.yul\":8580:8598   */\n  0xffffffffffffffff\n    /* \"#utility.yul\":8572:8578   */\n  dup3\n    /* \"#utility.yul\":8569:8599   */\n  gt\n    /* \"#utility.yul\":8566:8622   */\n  iszero\n  tag_152\n  jumpi\n    /* \"#utility.yul\":8602:8620   */\n  tag_153\n  tag_15\n  jump\t// in\ntag_153:\n    /* \"#utility.yul\":8566:8622   */\ntag_152:\n    /* \"#utility.yul\":8640:8669   */\n  tag_154\n    /* \"#utility.yul\":8662:8668   */\n  dup3\n    /* \"#utility.yul\":8640:8669   */\n  tag_41\n  jump\t// in\ntag_154:\n    /* \"#utility.yul\":8632:8669   */\n  swap1\n  pop\n    /* \"#utility.yul\":8724:8728   */\n  0x20\n    /* \"#utility.yul\":8718:8722   */\n  dup2\n    /* \"#utility.yul\":8714:8729   */\n  add\n    /* \"#utility.yul\":8706:8729   */\n  swap1\n  pop\n    /* \"#utility.yul\":8428:8736   */\n  swap2\n  swap1\n  pop\n  jump\t// out\n    /* \"#utility.yul\":8742:8881   */\ntag_45:\n    /* \"#utility.yul\":8831:8837   */\n  dup3\n    /* \"#utility.yul\":8826:8829   */\n  dup2\n    /* \"#utility.yul\":8821:8824   */\n  dup4\n    /* \"#utility.yul\":8815:8838   */\n  mcopy\n    /* \"#utility.yul\":8872:8873   */\n  0x00\n    /* \"#utility.yul\":8863:8869   */\n  dup4\n    /* \"#utility.yul\":8858:8861   */\n  dup4\n    /* \"#utility.yul\":8854:8870   */\n  add\n    /* \"#utility.yul\":8847:8874   */\n  mstore\n    /* \"#utility.yul\":8742:8881   */\n  pop\n  pop\n  pop\n  jump\t// out\n    /* \"#utility.yul\":8887:9321   */\ntag_46:\n    /* \"#utility.yul\":8976:8981   */\n  0x00\n    /* \"#utility.yul\":9001:9067   */\n  tag_157\n    /* \"#utility.yul\":9017:9066   */\n  tag_158\n    /* \"#utility.yul\":9059:9065   */\n  dup5\n    /* \"#utility.yul\":9017:9066   */\n  tag_44\n  jump\t// in\ntag_158:\n    /* \"#utility.yul\":9001:9067   */\n  tag_43\n  jump\t// in\ntag_157:\n    /* \"#utility.yul\":8992:9067   */\n  swap1\n  pop\n    /* \"#utility.yul\":9090:9096   */\n  dup3\n    /* \"#utility.yul\":9083:9088   */\n  dup2\n    /* \"#utility.yul\":9076:9097   */\n  mstore\n    /* \"#utility.yul\":9128:9132   */\n  0x20\n    /* \"#utility.yul\":9121:9126   */\n  dup2\n    /* \"#utility.yul\":9117:9133   */\n  add\n    /* \"#utility.yul\":9166:9169   */\n  dup5\n    /* \"#utility.yul\":9157:9163   */\n  dup5\n    /* \"#utility.yul\":9152:9155   */\n  dup5\n    /* \"#utility.yul\":9148:9164   */\n  add\n    /* \"#utility.yul\":9145:9170   */\n  gt\n    /* \"#utility.yul\":9142:9254   */\n  iszero\n  tag_159\n  jumpi\n    /* \"#utility.yul\":9173:9252   */\n  tag_160\n  tag_40\n  jump\t// in\ntag_160:\n    /* \"#utility.yul\":9142:9254   */\ntag_159:\n    /* \"#utility.yul\":9263:9315   */\n  tag_161\n    /* \"#utility.yul\":9308:9314   */\n  dup5\n    /* \"#utility.yul\":9303:9306   */\n  dup3\n    /* \"#utility.yul\":9298:9301   */\n  dup6\n    /* \"#utility.yul\":9263:9315   */\n  tag_45\n  jump\t// in\ntag_161:\n    /* \"#utility.yul\":8982:9321   */\n  pop\n    /* \"#utility.yul\":8887:9321   */\n  swap4\n  swap3\n  pop\n  pop\n  pop\n  jump\t// out\n    /* \"#utility.yul\":9341:9696   */\ntag_47:\n    /* \"#utility.yul\":9408:9413   */\n  0x00\n    /* \"#utility.yul\":9457:9460   */\n  dup3\n    /* \"#utility.yul\":9450:9454   */\n  0x1f\n    /* \"#utility.yul\":9442:9448   */\n  dup4\n    /* \"#utility.yul\":9438:9455   */\n  add\n    /* \"#utility.yul\":9434:9461   */\n  slt\n    /* \"#utility.yul\":9424:9546   */\n  tag_163\n  jumpi\n    /* \"#utility.yul\":9465:9544   */\n  tag_164\n  tag_39\n  jump\t// in\ntag_164:\n    /* \"#utility.yul\":9424:9546   */\ntag_163:\n    /* \"#utility.yul\":9575:9581   */\n  dup2\n    /* \"#utility.yul\":9569:9582   */\n  mload\n    /* \"#utility.yul\":9600:9690   */\n  tag_165\n    /* \"#utility.yul\":9686:9689   */\n  dup5\n    /* \"#utility.yul\":9678:9684   */\n  dup3\n    /* \"#utility.yul\":9671:9675   */\n  0x20\n    /* \"#utility.yul\":9663:9669   */\n  dup7\n    /* \"#utility.yul\":9659:9676   */\n  add\n    /* \"#utility.yul\":9600:9690   */\n  tag_46\n  jump\t// in\ntag_165:\n    /* \"#utility.yul\":9591:9690   */\n  swap2\n  pop\n    /* \"#utility.yul\":9414:9696   */\n  pop\n    /* \"#utility.yul\":9341:9696   */\n  swap3\n  swap2\n  pop\n  pop\n  jump\t// out\n    /* \"#utility.yul\":9702:9824   */\ntag_48:\n    /* \"#utility.yul\":9775:9799   */\n  tag_167\n    /* \"#utility.yul\":9793:9798   */\n  dup2\n    /* \"#utility.yul\":9775:9799   */\n  tag_22\n  jump\t// in\ntag_167:\n    /* \"#utility.yul\":9768:9773   */\n  dup2\n    /* \"#utility.yul\":9765:9800   */\n  eq\n    /* \"#utility.yul\":9755:9818   */\n  tag_168\n  jumpi\n    /* \"#utility.yul\":9814:9815   */\n  0x00\n    /* \"#utility.yul\":9811:9812   */\n  0x00\n    /* \"#utility.yul\":9804:9816   */\n  revert\n    /* \"#utility.yul\":9755:9818   */\ntag_168:\n    /* \"#utility.yul\":9702:9824   */\n  pop\n  jump\t// out\n    /* \"#utility.yul\":9830:9973   */\ntag_49:\n    /* \"#utility.yul\":9887:9892   */\n  0x00\n    /* \"#utility.yul\":9918:9924   */\n  dup2\n    /* \"#utility.yul\":9912:9925   */\n  mload\n    /* \"#utility.yul\":9903:9925   */\n  swap1\n  pop\n    /* \"#utility.yul\":9934:9967   */\n  tag_170\n    /* \"#utility.yul\":9961:9966   */\n  dup2\n    /* \"#utility.yul\":9934:9967   */\n  tag_48\n  jump\t// in\ntag_170:\n    /* \"#utility.yul\":9830:9973   */\n  swap3\n  swap2\n  pop\n  pop\n  jump\t// out\n    /* \"#utility.yul\":9979:10659   */\ntag_7:\n    /* \"#utility.yul\":10068:10074   */\n  0x00\n    /* \"#utility.yul\":10076:10082   */\n  0x00\n    /* \"#utility.yul\":10125:10127   */\n  0x40\n    /* \"#utility.yul\":10113:10122   */\n  dup4\n    /* \"#utility.yul\":10104:10111   */\n  dup6\n    /* \"#utility.yul\":10100:10123   */\n  sub\n    /* \"#utility.yul\":10096:10128   */\n  slt\n    /* \"#utility.yul\":10093:10212   */\n  iszero\n  tag_172\n  jumpi\n    /* \"#utility.yul\":10131:10210   */\n  tag_173\n  tag_37\n  jump\t// in\ntag_173:\n    /* \"#utility.yul\":10093:10212   */\ntag_172:\n    /* \"#utility.yul\":10272:10273   */\n  0x00\n    /* \"#utility.yul\":10261:10270   */\n  dup4\n    /* \"#utility.yul\":10257:10274   */\n  add\n    /* \"#utility.yul\":10251:10275   */\n  mload\n    /* \"#utility.yul\":10302:10320   */\n  0xffffffffffffffff\n    /* \"#utility.yul\":10294:10300   */\n  dup2\n    /* \"#utility.yul\":10291:10321   */\n  gt\n    /* \"#utility.yul\":10288:10405   */\n  iszero\n  tag_174\n  jumpi\n    /* \"#utility.yul\":10324:10403   */\n  tag_175\n  tag_38\n  jump\t// in\ntag_175:\n    /* \"#utility.yul\":10288:10405   */\ntag_174:\n    /* \"#utility.yul\":10429:10503   */\n  tag_176\n    /* \"#utility.yul\":10495:10502   */\n  dup6\n    /* \"#utility.yul\":10486:10492   */\n  dup3\n    /* \"#utility.yul\":10475:10484   */\n  dup7\n    /* \"#utility.yul\":10471:10493   */\n  add\n    /* \"#utility.yul\":10429:10503   */\n  tag_47\n  jump\t// in\ntag_176:\n    /* \"#utility.yul\":10419:10503   */\n  swap3\n  pop\n    /* \"#utility.yul\":10222:10513   */\n  pop\n    /* \"#utility.yul\":10552:10554   */\n  0x20\n    /* \"#utility.yul\":10578:10642   */\n  tag_177\n    /* \"#utility.yul\":10634:10641   */\n  dup6\n    /* \"#utility.yul\":10625:10631   */\n  dup3\n    /* \"#utility.yul\":10614:10623   */\n  dup7\n    /* \"#utility.yul\":10610:10632   */\n  add\n    /* \"#utility.yul\":10578:10642   */\n  tag_49\n  jump\t// in\ntag_177:\n    /* \"#utility.yul\":10568:10642   */\n  swap2\n  pop\n    /* \"#utility.yul\":10523:10652   */\n  pop\n    /* \"#utility.yul\":9979:10659   */\n  swap3\n  pop\n  swap3\n  swap1\n  pop\n  jump\t// out\n    /* \"#utility.yul\":10665:10817   */\ntag_50:\n    /* \"#utility.yul\":10717:10723   */\n  0x00\n    /* \"#utility.yul\":10751:10756   */\n  dup2\n    /* \"#utility.yul\":10745:10757   */\n  sload\n    /* \"#utility.yul\":10735:10757   */\n  swap1\n  pop\n    /* \"#utility.yul\":10777:10810   */\n  tag_179\n    /* \"#utility.yul\":10803:10809   */\n  dup2\n    /* \"#utility.yul\":10777:10810   */\n  tag_17\n  jump\t// in\ntag_179:\n    /* \"#utility.yul\":10767:10810   */\n  swap1\n  pop\n    /* \"#utility.yul\":10665:10817   */\n  swap2\n  swap1\n  pop\n  jump\t// out\n    /* \"#utility.yul\":10823:10967   */\ntag_51:\n    /* \"#utility.yul\":10875:10879   */\n  0x00\n    /* \"#utility.yul\":10898:10901   */\n  dup2\n    /* \"#utility.yul\":10890:10901   */\n  swap1\n  pop\n    /* \"#utility.yul\":10921:10924   */\n  dup2\n    /* \"#utility.yul\":10918:10919   */\n  0x00\n    /* \"#utility.yul\":10911:10925   */\n  mstore\n    /* \"#utility.yul\":10955:10959   */\n  0x20\n    /* \"#utility.yul\":10952:10953   */\n  0x00\n    /* \"#utility.yul\":10942:10960   */\n  keccak256\n    /* \"#utility.yul\":10934:10960   */\n  swap1\n  pop\n    /* \"#utility.yul\":10823:10967   */\n  swap2\n  swap1\n  pop\n  jump\t// out\n    /* \"#utility.yul\":10973:12430   */\ntag_12:\n    /* \"#utility.yul\":11086:11089   */\n  dup2\n    /* \"#utility.yul\":11080:11084   */\n  dup2\n    /* \"#utility.yul\":11077:11090   */\n  sub\n    /* \"#utility.yul\":11074:11100   */\n  tag_182\n  jumpi\n    /* \"#utility.yul\":11093:11098   */\n  pop\n  pop\n  jump(tag_181)\n    /* \"#utility.yul\":11074:11100   */\ntag_182:\n    /* \"#utility.yul\":11124:11161   */\n  tag_183\n    /* \"#utility.yul\":11157:11160   */\n  dup3\n    /* \"#utility.yul\":11124:11161   */\n  tag_50\n  jump\t// in\ntag_183:\n    /* \"#utility.yul\":11226:11244   */\n  0xffffffffffffffff\n    /* \"#utility.yul\":11218:11224   */\n  dup2\n    /* \"#utility.yul\":11215:11245   */\n  gt\n    /* \"#utility.yul\":11212:11268   */\n  iszero\n  tag_184\n  jumpi\n    /* \"#utility.yul\":11248:11266   */\n  tag_185\n  tag_15\n  jump\t// in\ntag_185:\n    /* \"#utility.yul\":11212:11268   */\ntag_184:\n    /* \"#utility.yul\":11292:11330   */\n  tag_186\n    /* \"#utility.yul\":11324:11328   */\n  dup3\n    /* \"#utility.yul\":11318:11329   */\n  sload\n    /* \"#utility.yul\":11292:11330   */\n  tag_17\n  jump\t// in\ntag_186:\n    /* \"#utility.yul\":11377:11443   */\n  tag_187\n    /* \"#utility.yul\":11436:11442   */\n  dup3\n    /* \"#utility.yul\":11428:11434   */\n  dup3\n    /* \"#utility.yul\":11422:11426   */\n  dup6\n    /* \"#utility.yul\":11377:11443   */\n  tag_35\n  jump\t// in\ntag_187:\n    /* \"#utility.yul\":11470:11471   */\n  0x00\n    /* \"#utility.yul\":11499:11501   */\n  0x1f\n    /* \"#utility.yul\":11491:11497   */\n  dup4\n    /* \"#utility.yul\":11488:11502   */\n  gt\n    /* \"#utility.yul\":11516:11517   */\n  0x01\n    /* \"#utility.yul\":11511:12185   */\n  dup2\n  eq\n  tag_189\n  jumpi\n    /* \"#utility.yul\":12229:12230   */\n  0x00\n    /* \"#utility.yul\":12246:12252   */\n  dup5\n    /* \"#utility.yul\":12243:12320   */\n  iszero\n  tag_190\n  jumpi\n    /* \"#utility.yul\":12295:12304   */\n  dup3\n    /* \"#utility.yul\":12290:12293   */\n  dup8\n    /* \"#utility.yul\":12286:12305   */\n  add\n    /* \"#utility.yul\":12280:12306   */\n  sload\n    /* \"#utility.yul\":12271:12306   */\n  swap1\n  pop\n    /* \"#utility.yul\":12243:12320   */\ntag_190:\n    /* \"#utility.yul\":12346:12413   */\n  tag_191\n    /* \"#utility.yul\":12406:12412   */\n  dup6\n    /* \"#utility.yul\":12399:12404   */\n  dup3\n    /* \"#utility.yul\":12346:12413   */\n  tag_33\n  jump\t// in\ntag_191:\n    /* \"#utility.yul\":12340:12344   */\n  dup7\n    /* \"#utility.yul\":12333:12414   */\n  sstore\n    /* \"#utility.yul\":12202:12424   */\n  pop\n    /* \"#utility.yul\":11481:12424   */\n  jump(tag_188)\n    /* \"#utility.yul\":11511:12185   */\ntag_189:\n    /* \"#utility.yul\":11563:11567   */\n  0x1f\n    /* \"#utility.yul\":11559:11568   */\n  not\n    /* \"#utility.yul\":11551:11557   */\n  dup5\n    /* \"#utility.yul\":11547:11569   */\n  and\n    /* \"#utility.yul\":11589:11628   */\n  tag_192\n    /* \"#utility.yul\":11624:11627   */\n  dup8\n    /* \"#utility.yul\":11589:11628   */\n  tag_51\n  jump\t// in\ntag_192:\n    /* \"#utility.yul\":11582:11628   */\n  swap7\n  pop\n    /* \"#utility.yul\":11655:11691   */\n  tag_193\n    /* \"#utility.yul\":11686:11690   */\n  dup7\n    /* \"#utility.yul\":11655:11691   */\n  tag_34\n  jump\t// in\ntag_193:\n    /* \"#utility.yul\":11713:11714   */\n  0x00\n    /* \"#utility.yul\":11727:11934   */\ntag_194:\n    /* \"#utility.yul\":11741:11748   */\n  dup3\n    /* \"#utility.yul\":11738:11739   */\n  dup2\n    /* \"#utility.yul\":11735:11749   */\n  lt\n    /* \"#utility.yul\":11727:11934   */\n  iszero\n  tag_196\n  jumpi\n    /* \"#utility.yul\":11820:11829   */\n  dup5\n    /* \"#utility.yul\":11815:11818   */\n  dup10\n    /* \"#utility.yul\":11811:11830   */\n  add\n    /* \"#utility.yul\":11805:11831   */\n  sload\n    /* \"#utility.yul\":11797:11803   */\n  dup3\n    /* \"#utility.yul\":11790:11832   */\n  sstore\n    /* \"#utility.yul\":11871:11872   */\n  0x01\n    /* \"#utility.yul\":11863:11869   */\n  dup3\n    /* \"#utility.yul\":11859:11873   */\n  add\n    /* \"#utility.yul\":11849:11873   */\n  swap2\n  pop\n    /* \"#utility.yul\":11918:11919   */\n  0x01\n    /* \"#utility.yul\":11907:11916   */\n  dup6\n    /* \"#utility.yul\":11903:11920   */\n  add\n    /* \"#utility.yul\":11890:11920   */\n  swap5\n  pop\n    /* \"#utility.yul\":11764:11768   */\n  0x20\n    /* \"#utility.yul\":11761:11762   */\n  dup2\n    /* \"#utility.yul\":11757:11769   */\n  add\n    /* \"#utility.yul\":11752:11769   */\n  swap1\n  pop\n    /* \"#utility.yul\":11727:11934   */\n  jump(tag_194)\ntag_196:\n    /* \"#utility.yul\":11962:11968   */\n  dup7\n    /* \"#utility.yul\":11953:11960   */\n  dup4\n    /* \"#utility.yul\":11950:11969   */\n  lt\n    /* \"#utility.yul\":11947:12126   */\n  iszero\n  tag_197\n  jumpi\n    /* \"#utility.yul\":12020:12029   */\n  dup5\n    /* \"#utility.yul\":12015:12018   */\n  dup10\n    /* \"#utility.yul\":12011:12030   */\n  add\n    /* \"#utility.yul\":12005:12031   */\n  sload\n    /* \"#utility.yul\":12063:12111   */\n  tag_198\n    /* \"#utility.yul\":12105:12109   */\n  0x1f\n    /* \"#utility.yul\":12097:12103   */\n  dup10\n    /* \"#utility.yul\":12093:12110   */\n  and\n    /* \"#utility.yul\":12082:12091   */\n  dup3\n    /* \"#utility.yul\":12063:12111   */\n  tag_32\n  jump\t// in\ntag_198:\n    /* \"#utility.yul\":12055:12061   */\n  dup4\n    /* \"#utility.yul\":12048:12112   */\n  sstore\n    /* \"#utility.yul\":11970:12126   */\n  pop\n    /* \"#utility.yul\":11947:12126   */\ntag_197:\n    /* \"#utility.yul\":12172:12173   */\n  0x01\n    /* \"#utility.yul\":12168:12169   */\n  0x02\n    /* \"#utility.yul\":12160:12166   */\n  dup9\n    /* \"#utility.yul\":12156:12170   */\n  mul\n    /* \"#utility.yul\":12152:12174   */\n  add\n    /* \"#utility.yul\":12146:12150   */\n  dup9\n    /* \"#utility.yul\":12139:12175   */\n  sstore\n    /* \"#utility.yul\":11518:12185   */\n  pop\n  pop\n  pop\n    /* \"#utility.yul\":11481:12424   */\ntag_188:\n  pop\n    /* \"#utility.yul\":11064:12430   */\n  pop\n  pop\n  pop\n    /* \"#utility.yul\":10973:12430   */\n  pop\n  pop\ntag_181:\n  jump\t// out\n    /* \"contracts/stateVariable.sol\":70:704  contract StateVariables{... */\ntag_13:\n  dataSize(sub_0)\n  dup1\n  dataOffset(sub_0)\n  0x00\n  codecopy\n  0x00\n  return\nstop\n\nsub_0: assembly {\n        /* \"contracts/stateVariable.sol\":70:704  contract StateVariables{... */\n      mstore(0x40, 0x80)\n      callvalue\n      dup1\n      iszero\n      tag_1\n      jumpi\n      revert(0x00, 0x00)\n    tag_1:\n      pop\n      jumpi(tag_2, lt(calldatasize, 0x04))\n      shr(0xe0, calldataload(0x00))\n      dup1\n      0xd01c8e73\n      gt\n      tag_11\n      jumpi\n      dup1\n      0xd01c8e73\n      eq\n      tag_7\n      jumpi\n      dup1\n      0xd4da005a\n      eq\n      tag_8\n      jumpi\n      dup1\n      0xde4b3a73\n      eq\n      tag_9\n      jumpi\n      dup1\n      0xfce4f4f3\n      eq\n      tag_10\n      jumpi\n      jump(tag_2)\n    tag_11:\n      dup1\n      0x098181b7\n      eq\n      tag_3\n      jumpi\n      dup1\n      0x0c8ae01f\n      eq\n      tag_4\n      jumpi\n      dup1\n      0x4011db97\n      eq\n      tag_5\n      jumpi\n      dup1\n      0x4ee5c2ee\n      eq\n      tag_6\n      jumpi\n    tag_2:\n      revert(0x00, 0x00)\n        /* \"contracts/stateVariable.sol\":295:334  bytes public defaultbytes=\"vivek rawat\" */\n    tag_3:\n      tag_12\n      tag_13\n      jump\t// in\n    tag_12:\n      mload(0x40)\n      tag_14\n      swap2\n      swap1\n      tag_15\n      jump\t// in\n    tag_14:\n      mload(0x40)\n      dup1\n      swap2\n      sub\n      swap1\n      return\n        /* \"contracts/stateVariable.sol\":261:288  uint256 public defaultNum=5 */\n    tag_4:\n      tag_16\n      tag_17\n      jump\t// in\n    tag_16:\n      mload(0x40)\n      tag_18\n      swap2\n      swap1\n      tag_19\n      jump\t// in\n    tag_18:\n      mload(0x40)\n      dup1\n      swap2\n      sub\n      swap1\n      return\n        /* \"contracts/stateVariable.sol\":374:398  uint256[] public myNuber */\n    tag_5:\n      tag_20\n      0x04\n      dup1\n      calldatasize\n      sub\n      dup2\n      add\n      swap1\n      tag_21\n      swap2\n      swap1\n      tag_22\n      jump\t// in\n    tag_21:\n      tag_23\n      jump\t// in\n    tag_20:\n      mload(0x40)\n      tag_24\n      swap2\n      swap1\n      tag_19\n      jump\t// in\n    tag_24:\n      mload(0x40)\n      dup1\n      swap2\n      sub\n      swap1\n      return\n        /* \"contracts/stateVariable.sol\":596:702  function update(string memory _text,uint256 _num) public{... */\n    tag_6:\n      tag_25\n      0x04\n      dup1\n      calldatasize\n      sub\n      dup2\n      add\n      swap1\n      tag_26\n      swap2\n      swap1\n      tag_27\n      jump\t// in\n    tag_26:\n      tag_28\n      jump\t// in\n    tag_25:\n      stop\n        /* \"contracts/stateVariable.sol\":154:175  string public mystate */\n    tag_7:\n      tag_29\n      tag_30\n      jump\t// in\n    tag_29:\n      mload(0x40)\n      tag_31\n      swap2\n      swap1\n      tag_32\n      jump\t// in\n    tag_31:\n      mload(0x40)\n      dup1\n      swap2\n      sub\n      swap1\n      return\n        /* \"contracts/stateVariable.sol\":181:201  uint256 public myNum */\n    tag_8:\n      tag_33\n      tag_34\n      jump\t// in\n    tag_33:\n      mload(0x40)\n      tag_35\n      swap2\n      swap1\n      tag_19\n      jump\t// in\n    tag_35:\n      mload(0x40)\n      dup1\n      swap2\n      sub\n      swap1\n      return\n        /* \"contracts/stateVariable.sol\":208:255  string public defaultText=\"Hello World default\" */\n    tag_9:\n      tag_36\n      tag_37\n      jump\t// in\n    tag_36:\n      mload(0x40)\n      tag_38\n      swap2\n      swap1\n      tag_32\n      jump\t// in\n    tag_38:\n      mload(0x40)\n      dup1\n      swap2\n      sub\n      swap1\n      return\n        /* \"contracts/stateVariable.sol\":340:367  bytes public defaultbytesNo */\n    tag_10:\n      tag_39\n      tag_40\n      jump\t// in\n    tag_39:\n      mload(0x40)\n      tag_41\n      swap2\n      swap1\n      tag_15\n      jump\t// in\n    tag_41:\n      mload(0x40)\n      dup1\n      swap2\n      sub\n      swap1\n      return\n        /* \"contracts/stateVariable.sol\":295:334  bytes public defaultbytes=\"vivek rawat\" */\n    tag_13:\n      0x04\n      dup1\n      sload\n      tag_42\n      swap1\n      tag_43\n      jump\t// in\n    tag_42:\n      dup1\n      0x1f\n      add\n      0x20\n      dup1\n      swap2\n      div\n      mul\n      0x20\n      add\n      mload(0x40)\n      swap1\n      dup2\n      add\n      0x40\n      mstore\n      dup1\n      swap3\n      swap2\n      swap1\n      dup2\n      dup2\n      mstore\n      0x20\n      add\n      dup3\n      dup1\n      sload\n      tag_44\n      swap1\n      tag_43\n      jump\t// in\n    tag_44:\n      dup1\n      iszero\n      tag_45\n      jumpi\n      dup1\n      0x1f\n      lt\n      tag_46\n      jumpi\n      0x0100\n      dup1\n      dup4\n      sload\n      div\n      mul\n      dup4\n      mstore\n      swap2\n      0x20\n      add\n      swap2\n      jump(tag_45)\n    tag_46:\n      dup3\n      add\n      swap2\n      swap1\n      0x00\n      mstore\n      keccak256(0x00, 0x20)\n      swap1\n    tag_47:\n      dup2\n      sload\n      dup2\n      mstore\n      swap1\n      0x01\n      add\n      swap1\n      0x20\n      add\n      dup1\n      dup4\n      gt\n      tag_47\n      jumpi\n      dup3\n      swap1\n      sub\n      0x1f\n      and\n      dup3\n      add\n      swap2\n    tag_45:\n      pop\n      pop\n      pop\n      pop\n      pop\n      dup2\n      jump\t// out\n        /* \"contracts/stateVariable.sol\":261:288  uint256 public defaultNum=5 */\n    tag_17:\n      sload(0x03)\n      dup2\n      jump\t// out\n        /* \"contracts/stateVariable.sol\":374:398  uint256[] public myNuber */\n    tag_23:\n      0x06\n      dup2\n      dup2\n      sload\n      dup2\n      lt\n      tag_48\n      jumpi\n      0x00\n      dup1\n      revert\n    tag_48:\n      swap1\n      0x00\n      mstore\n      keccak256(0x00, 0x20)\n      add\n      0x00\n      swap2\n      pop\n      swap1\n      pop\n      sload\n      dup2\n      jump\t// out\n        /* \"contracts/stateVariable.sol\":596:702  function update(string memory _text,uint256 _num) public{... */\n    tag_28:\n        /* \"contracts/stateVariable.sol\":670:675  _text */\n      dup2\n        /* \"contracts/stateVariable.sol\":662:669  mystate */\n      0x00\n        /* \"contracts/stateVariable.sol\":662:675  mystate=_text */\n      swap1\n      dup2\n      tag_51\n      swap2\n      swap1\n      tag_52\n      jump\t// in\n    tag_51:\n      pop\n        /* \"contracts/stateVariable.sol\":691:695  _num */\n      dup1\n        /* \"contracts/stateVariable.sol\":685:690  myNum */\n      0x01\n        /* \"contracts/stateVariable.sol\":685:695  myNum=_num */\n      dup2\n      swap1\n      sstore\n      pop\n        /* \"contracts/stateVariable.sol\":596:702  function update(string memory _text,uint256 _num) public{... */\n      pop\n      pop\n      jump\t// out\n        /* \"contracts/stateVariable.sol\":154:175  string public mystate */\n    tag_30:\n      0x00\n      dup1\n      sload\n      tag_53\n      swap1\n      tag_43\n      jump\t// in\n    tag_53:\n      dup1\n      0x1f\n      add\n      0x20\n      dup1\n      swap2\n      div\n      mul\n      0x20\n      add\n      mload(0x40)\n      swap1\n      dup2\n      add\n      0x40\n      mstore\n      dup1\n      swap3\n      swap2\n      swap1\n      dup2\n      dup2\n      mstore\n      0x20\n      add\n      dup3\n      dup1\n      sload\n      tag_54\n      swap1\n      tag_43\n      jump\t// in\n    tag_54:\n      dup1\n      iszero\n      tag_55\n      jumpi\n      dup1\n      0x1f\n      lt\n      tag_56\n      jumpi\n      0x0100\n      dup1\n      dup4\n      sload\n      div\n      mul\n      dup4\n      mstore\n      swap2\n      0x20\n      add\n      swap2\n      jump(tag_55)\n    tag_56:\n      dup3\n      add\n      swap2\n      swap1\n      0x00\n      mstore\n      keccak256(0x00, 0x20)\n      swap1\n    tag_57:\n      dup2\n      sload\n      dup2\n      mstore\n      swap1\n      0x01\n      add\n      swap1\n      0x20\n      add\n      dup1\n      dup4\n      gt\n      tag_57\n      jumpi\n      dup3\n      swap1\n      sub\n      0x1f\n      and\n      dup3\n      add\n      swap2\n    tag_55:\n      pop\n      pop\n      pop\n      pop\n      pop\n      dup2\n      jump\t// out\n        /* \"contracts/stateVariable.sol\":181:201  uint256 public myNum */\n    tag_34:\n      sload(0x01)\n      dup2\n      jump\t// out\n        /* \"contracts/stateVariable.sol\":208:255  string public defaultText=\"Hello World default\" */\n    tag_37:\n      0x02\n      dup1\n      sload\n      tag_58\n      swap1\n      tag_43\n      jump\t// in\n    tag_58:\n      dup1\n      0x1f\n      add\n      0x20\n      dup1\n      swap2\n      div\n      mul\n      0x20\n      add\n      mload(0x40)\n      swap1\n      dup2\n      add\n      0x40\n      mstore\n      dup1\n      swap3\n      swap2\n      swap1\n      dup2\n      dup2\n      mstore\n      0x20\n      add\n      dup3\n      dup1\n      sload\n      tag_59\n      swap1\n      tag_43\n      jump\t// in\n    tag_59:\n      dup1\n      iszero\n      tag_60\n      jumpi\n      dup1\n      0x1f\n      lt\n      tag_61\n      jumpi\n      0x0100\n      dup1\n      dup4\n      sload\n      div\n      mul\n      dup4\n      mstore\n      swap2\n      0x20\n      add\n      swap2\n      jump(tag_60)\n    tag_61:\n      dup3\n      add\n      swap2\n      swap1\n      0x00\n      mstore\n      keccak256(0x00, 0x20)\n      swap1\n    tag_62:\n      dup2\n      sload\n      dup2\n      mstore\n      swap1\n      0x01\n      add\n      swap1\n      0x20\n      add\n      dup1\n      dup4\n      gt\n      tag_62\n      jumpi\n      dup3\n      swap1\n      sub\n      0x1f\n      and\n      dup3\n      add\n      swap2\n    tag_60:\n      pop\n      pop\n      pop\n      pop\n      pop\n      dup2\n      jump\t// out\n        /* \"contracts/stateVariable.sol\":340:367  bytes public defaultbytesNo */\n    tag_40:\n      0x05\n      dup1\n      sload\n      tag_63\n      swap1\n      tag_43\n      jump\t// in\n    tag_63:\n      dup1\n      0x1f\n      add\n      0x20\n      dup1\n      swap2\n      div\n      mul\n      0x20\n      add\n      mload(0x40)\n      swap1\n      dup2\n      add\n      0x40\n      mstore\n      dup1\n      swap3\n      swap2\n      swap1\n      dup2\n      dup2\n      mstore\n      0x20\n      add\n      dup3\n      dup1\n      sload\n      tag_64\n      swap1\n      tag_43\n      jump\t// in\n    tag_64:\n      dup1\n      iszero\n      tag_65\n      jumpi\n      dup1\n      0x1f\n      lt\n      tag_66\n      jumpi\n      0x0100\n      dup1\n      dup4\n      sload\n      div\n      mul\n      dup4\n      mstore\n      swap2\n      0x20\n      add\n      swap2\n      jump(tag_65)\n    tag_66:\n      dup3\n      add\n      swap2\n      swap1\n      0x00\n      mstore\n      keccak256(0x00, 0x20)\n      swap1\n    tag_67:\n      dup2\n      sload\n      dup2\n      mstore\n      swap1\n      0x01\n      add\n      swap1\n      0x20\n      add\n      dup1\n      dup4\n      gt\n      tag_67\n      jumpi\n      dup3\n      swap1\n      sub\n      0x1f\n      and\n      dup3\n      add\n      swap2\n    tag_65:\n      pop\n      pop\n      pop\n      pop\n      pop\n      dup2\n      jump\t// out\n        /* \"#utility.yul\":7:105   */\n    tag_68:\n        /* \"#utility.yul\":58:64   */\n      0x00\n        /* \"#utility.yul\":92:97   */\n      dup2\n        /* \"#utility.yul\":86:98   */\n      mload\n        /* \"#utility.yul\":76:98   */\n      swap1\n      pop\n        /* \"#utility.yul\":7:105   */\n      swap2\n      swap1\n      pop\n      jump\t// out\n        /* \"#utility.yul\":111:279   */\n    tag_69:\n        /* \"#utility.yul\":194:205   */\n      0x00\n        /* \"#utility.yul\":228:234   */\n      dup3\n        /* \"#utility.yul\":223:226   */\n      dup3\n        /* \"#utility.yul\":216:235   */\n      mstore\n        /* \"#utility.yul\":268:272   */\n      0x20\n        /* \"#utility.yul\":263:266   */\n      dup3\n        /* \"#utility.yul\":259:273   */\n      add\n        /* \"#utility.yul\":244:273   */\n      swap1\n      pop\n        /* \"#utility.yul\":111:279   */\n      swap3\n      swap2\n      pop\n      pop\n      jump\t// out\n        /* \"#utility.yul\":285:424   */\n    tag_70:\n        /* \"#utility.yul\":374:380   */\n      dup3\n        /* \"#utility.yul\":369:372   */\n      dup2\n        /* \"#utility.yul\":364:367   */\n      dup4\n        /* \"#utility.yul\":358:381   */\n      mcopy\n        /* \"#utility.yul\":415:416   */\n      0x00\n        /* \"#utility.yul\":406:412   */\n      dup4\n        /* \"#utility.yul\":401:404   */\n      dup4\n        /* \"#utility.yul\":397:413   */\n      add\n        /* \"#utility.yul\":390:417   */\n      mstore\n        /* \"#utility.yul\":285:424   */\n      pop\n      pop\n      pop\n      jump\t// out\n        /* \"#utility.yul\":430:532   */\n    tag_71:\n        /* \"#utility.yul\":471:477   */\n      0x00\n        /* \"#utility.yul\":522:524   */\n      0x1f\n        /* \"#utility.yul\":518:525   */\n      not\n        /* \"#utility.yul\":513:515   */\n      0x1f\n        /* \"#utility.yul\":506:511   */\n      dup4\n        /* \"#utility.yul\":502:516   */\n      add\n        /* \"#utility.yul\":498:526   */\n      and\n        /* \"#utility.yul\":488:526   */\n      swap1\n      pop\n        /* \"#utility.yul\":430:532   */\n      swap2\n      swap1\n      pop\n      jump\t// out\n        /* \"#utility.yul\":538:911   */\n    tag_72:\n        /* \"#utility.yul\":624:627   */\n      0x00\n        /* \"#utility.yul\":652:690   */\n      tag_114\n        /* \"#utility.yul\":684:689   */\n      dup3\n        /* \"#utility.yul\":652:690   */\n      tag_68\n      jump\t// in\n    tag_114:\n        /* \"#utility.yul\":706:776   */\n      tag_115\n        /* \"#utility.yul\":769:775   */\n      dup2\n        /* \"#utility.yul\":764:767   */\n      dup6\n        /* \"#utility.yul\":706:776   */\n      tag_69\n      jump\t// in\n    tag_115:\n        /* \"#utility.yul\":699:776   */\n      swap4\n      pop\n        /* \"#utility.yul\":785:850   */\n      tag_116\n        /* \"#utility.yul\":843:849   */\n      dup2\n        /* \"#utility.yul\":838:841   */\n      dup6\n        /* \"#utility.yul\":831:835   */\n      0x20\n        /* \"#utility.yul\":824:829   */\n      dup7\n        /* \"#utility.yul\":820:836   */\n      add\n        /* \"#utility.yul\":785:850   */\n      tag_70\n      jump\t// in\n    tag_116:\n        /* \"#utility.yul\":875:904   */\n      tag_117\n        /* \"#utility.yul\":897:903   */\n      dup2\n        /* \"#utility.yul\":875:904   */\n      tag_71\n      jump\t// in\n    tag_117:\n        /* \"#utility.yul\":870:873   */\n      dup5\n        /* \"#utility.yul\":866:905   */\n      add\n        /* \"#utility.yul\":859:905   */\n      swap2\n      pop\n        /* \"#utility.yul\":628:911   */\n      pop\n        /* \"#utility.yul\":538:911   */\n      swap3\n      swap2\n      pop\n      pop\n      jump\t// out\n        /* \"#utility.yul\":917:1226   */\n    tag_15:\n        /* \"#utility.yul\":1028:1032   */\n      0x00\n        /* \"#utility.yul\":1066:1068   */\n      0x20\n        /* \"#utility.yul\":1055:1064   */\n      dup3\n        /* \"#utility.yul\":1051:1069   */\n      add\n        /* \"#utility.yul\":1043:1069   */\n      swap1\n      pop\n        /* \"#utility.yul\":1115:1124   */\n      dup2\n        /* \"#utility.yul\":1109:1113   */\n      dup2\n        /* \"#utility.yul\":1105:1125   */\n      sub\n        /* \"#utility.yul\":1101:1102   */\n      0x00\n        /* \"#utility.yul\":1090:1099   */\n      dup4\n        /* \"#utility.yul\":1086:1103   */\n      add\n        /* \"#utility.yul\":1079:1126   */\n      mstore\n        /* \"#utility.yul\":1143:1219   */\n      tag_119\n        /* \"#utility.yul\":1214:1218   */\n      dup2\n        /* \"#utility.yul\":1205:1211   */\n      dup5\n        /* \"#utility.yul\":1143:1219   */\n      tag_72\n      jump\t// in\n    tag_119:\n        /* \"#utility.yul\":1135:1219   */\n      swap1\n      pop\n        /* \"#utility.yul\":917:1226   */\n      swap3\n      swap2\n      pop\n      pop\n      jump\t// out\n        /* \"#utility.yul\":1232:1309   */\n    tag_73:\n        /* \"#utility.yul\":1269:1276   */\n      0x00\n        /* \"#utility.yul\":1298:1303   */\n      dup2\n        /* \"#utility.yul\":1287:1303   */\n      swap1\n      pop\n        /* \"#utility.yul\":1232:1309   */\n      swap2\n      swap1\n      pop\n      jump\t// out\n        /* \"#utility.yul\":1315:1433   */\n    tag_74:\n        /* \"#utility.yul\":1402:1426   */\n      tag_122\n        /* \"#utility.yul\":1420:1425   */\n      dup2\n        /* \"#utility.yul\":1402:1426   */\n      tag_73\n      jump\t// in\n    tag_122:\n        /* \"#utility.yul\":1397:1400   */\n      dup3\n        /* \"#utility.yul\":1390:1427   */\n      mstore\n        /* \"#utility.yul\":1315:1433   */\n      pop\n      pop\n      jump\t// out\n        /* \"#utility.yul\":1439:1661   */\n    tag_19:\n        /* \"#utility.yul\":1532:1536   */\n      0x00\n        /* \"#utility.yul\":1570:1572   */\n      0x20\n        /* \"#utility.yul\":1559:1568   */\n      dup3\n        /* \"#utility.yul\":1555:1573   */\n      add\n        /* \"#utility.yul\":1547:1573   */\n      swap1\n      pop\n        /* \"#utility.yul\":1583:1654   */\n      tag_124\n        /* \"#utility.yul\":1651:1652   */\n      0x00\n        /* \"#utility.yul\":1640:1649   */\n      dup4\n        /* \"#utility.yul\":1636:1653   */\n      add\n        /* \"#utility.yul\":1627:1633   */\n      dup5\n        /* \"#utility.yul\":1583:1654   */\n      tag_74\n      jump\t// in\n    tag_124:\n        /* \"#utility.yul\":1439:1661   */\n      swap3\n      swap2\n      pop\n      pop\n      jump\t// out\n        /* \"#utility.yul\":1667:1742   */\n    tag_75:\n        /* \"#utility.yul\":1700:1706   */\n      0x00\n        /* \"#utility.yul\":1733:1735   */\n      0x40\n        /* \"#utility.yul\":1727:1736   */\n      mload\n        /* \"#utility.yul\":1717:1736   */\n      swap1\n      pop\n        /* \"#utility.yul\":1667:1742   */\n      swap1\n      jump\t// out\n        /* \"#utility.yul\":1748:1865   */\n    tag_76:\n        /* \"#utility.yul\":1857:1858   */\n      0x00\n        /* \"#utility.yul\":1854:1855   */\n      0x00\n        /* \"#utility.yul\":1847:1859   */\n      revert\n        /* \"#utility.yul\":1871:1988   */\n    tag_77:\n        /* \"#utility.yul\":1980:1981   */\n      0x00\n        /* \"#utility.yul\":1977:1978   */\n      0x00\n        /* \"#utility.yul\":1970:1982   */\n      revert\n        /* \"#utility.yul\":1994:2116   */\n    tag_78:\n        /* \"#utility.yul\":2067:2091   */\n      tag_129\n        /* \"#utility.yul\":2085:2090   */\n      dup2\n        /* \"#utility.yul\":2067:2091   */\n      tag_73\n      jump\t// in\n    tag_129:\n        /* \"#utility.yul\":2060:2065   */\n      dup2\n        /* \"#utility.yul\":2057:2092   */\n      eq\n        /* \"#utility.yul\":2047:2110   */\n      tag_130\n      jumpi\n        /* \"#utility.yul\":2106:2107   */\n      0x00\n        /* \"#utility.yul\":2103:2104   */\n      0x00\n        /* \"#utility.yul\":2096:2108   */\n      revert\n        /* \"#utility.yul\":2047:2110   */\n    tag_130:\n        /* \"#utility.yul\":1994:2116   */\n      pop\n      jump\t// out\n        /* \"#utility.yul\":2122:2261   */\n    tag_79:\n        /* \"#utility.yul\":2168:2173   */\n      0x00\n        /* \"#utility.yul\":2206:2212   */\n      dup2\n        /* \"#utility.yul\":2193:2213   */\n      calldataload\n        /* \"#utility.yul\":2184:2213   */\n      swap1\n      pop\n        /* \"#utility.yul\":2222:2255   */\n      tag_132\n        /* \"#utility.yul\":2249:2254   */\n      dup2\n        /* \"#utility.yul\":2222:2255   */\n      tag_78\n      jump\t// in\n    tag_132:\n        /* \"#utility.yul\":2122:2261   */\n      swap3\n      swap2\n      pop\n      pop\n      jump\t// out\n        /* \"#utility.yul\":2267:2596   */\n    tag_22:\n        /* \"#utility.yul\":2326:2332   */\n      0x00\n        /* \"#utility.yul\":2375:2377   */\n      0x20\n        /* \"#utility.yul\":2363:2372   */\n      dup3\n        /* \"#utility.yul\":2354:2361   */\n      dup5\n        /* \"#utility.yul\":2350:2373   */\n      sub\n        /* \"#utility.yul\":2346:2378   */\n      slt\n        /* \"#utility.yul\":2343:2462   */\n      iszero\n      tag_134\n      jumpi\n        /* \"#utility.yul\":2381:2460   */\n      tag_135\n      tag_76\n      jump\t// in\n    tag_135:\n        /* \"#utility.yul\":2343:2462   */\n    tag_134:\n        /* \"#utility.yul\":2501:2502   */\n      0x00\n        /* \"#utility.yul\":2526:2579   */\n      tag_136\n        /* \"#utility.yul\":2571:2578   */\n      dup5\n        /* \"#utility.yul\":2562:2568   */\n      dup3\n        /* \"#utility.yul\":2551:2560   */\n      dup6\n        /* \"#utility.yul\":2547:2569   */\n      add\n        /* \"#utility.yul\":2526:2579   */\n      tag_79\n      jump\t// in\n    tag_136:\n        /* \"#utility.yul\":2516:2579   */\n      swap2\n      pop\n        /* \"#utility.yul\":2472:2589   */\n      pop\n        /* \"#utility.yul\":2267:2596   */\n      swap3\n      swap2\n      pop\n      pop\n      jump\t// out\n        /* \"#utility.yul\":2602:2719   */\n    tag_80:\n        /* \"#utility.yul\":2711:2712   */\n      0x00\n        /* \"#utility.yul\":2708:2709   */\n      0x00\n        /* \"#utility.yul\":2701:2713   */\n      revert\n        /* \"#utility.yul\":2725:2842   */\n    tag_81:\n        /* \"#utility.yul\":2834:2835   */\n      0x00\n        /* \"#utility.yul\":2831:2832   */\n      0x00\n        /* \"#utility.yul\":2824:2836   */\n      revert\n        /* \"#utility.yul\":2848:3028   */\n    tag_82:\n        /* \"#utility.yul\":2896:2973   */\n      0x4e487b7100000000000000000000000000000000000000000000000000000000\n        /* \"#utility.yul\":2893:2894   */\n      0x00\n        /* \"#utility.yul\":2886:2974   */\n      mstore\n        /* \"#utility.yul\":2993:2997   */\n      0x41\n        /* \"#utility.yul\":2990:2991   */\n      0x04\n        /* \"#utility.yul\":2983:2998   */\n      mstore\n        /* \"#utility.yul\":3017:3021   */\n      0x24\n        /* \"#utility.yul\":3014:3015   */\n      0x00\n        /* \"#utility.yul\":3007:3022   */\n      revert\n        /* \"#utility.yul\":3034:3315   */\n    tag_83:\n        /* \"#utility.yul\":3117:3144   */\n      tag_141\n        /* \"#utility.yul\":3139:3143   */\n      dup3\n        /* \"#utility.yul\":3117:3144   */\n      tag_71\n      jump\t// in\n    tag_141:\n        /* \"#utility.yul\":3109:3115   */\n      dup2\n        /* \"#utility.yul\":3105:3145   */\n      add\n        /* \"#utility.yul\":3247:3253   */\n      dup2\n        /* \"#utility.yul\":3235:3245   */\n      dup2\n        /* \"#utility.yul\":3232:3254   */\n      lt\n        /* \"#utility.yul\":3211:3229   */\n      0xffffffffffffffff\n        /* \"#utility.yul\":3199:3209   */\n      dup3\n        /* \"#utility.yul\":3196:3230   */\n      gt\n        /* \"#utility.yul\":3193:3255   */\n      or\n        /* \"#utility.yul\":3190:3278   */\n      iszero\n      tag_142\n      jumpi\n        /* \"#utility.yul\":3258:3276   */\n      tag_143\n      tag_82\n      jump\t// in\n    tag_143:\n        /* \"#utility.yul\":3190:3278   */\n    tag_142:\n        /* \"#utility.yul\":3298:3308   */\n      dup1\n        /* \"#utility.yul\":3294:3296   */\n      0x40\n        /* \"#utility.yul\":3287:3309   */\n      mstore\n        /* \"#utility.yul\":3077:3315   */\n      pop\n        /* \"#utility.yul\":3034:3315   */\n      pop\n      pop\n      jump\t// out\n        /* \"#utility.yul\":3321:3450   */\n    tag_84:\n        /* \"#utility.yul\":3355:3361   */\n      0x00\n        /* \"#utility.yul\":3382:3402   */\n      tag_145\n      tag_75\n      jump\t// in\n    tag_145:\n        /* \"#utility.yul\":3372:3402   */\n      swap1\n      pop\n        /* \"#utility.yul\":3411:3444   */\n      tag_146\n        /* \"#utility.yul\":3439:3443   */\n      dup3\n        /* \"#utility.yul\":3431:3437   */\n      dup3\n        /* \"#utility.yul\":3411:3444   */\n      tag_83\n      jump\t// in\n    tag_146:\n        /* \"#utility.yul\":3321:3450   */\n      swap2\n      swap1\n      pop\n      jump\t// out\n        /* \"#utility.yul\":3456:3764   */\n    tag_85:\n        /* \"#utility.yul\":3518:3522   */\n      0x00\n        /* \"#utility.yul\":3608:3626   */\n      0xffffffffffffffff\n        /* \"#utility.yul\":3600:3606   */\n      dup3\n        /* \"#utility.yul\":3597:3627   */\n      gt\n        /* \"#utility.yul\":3594:3650   */\n      iszero\n      tag_148\n      jumpi\n        /* \"#utility.yul\":3630:3648   */\n      tag_149\n      tag_82\n      jump\t// in\n    tag_149:\n        /* \"#utility.yul\":3594:3650   */\n    tag_148:\n        /* \"#utility.yul\":3668:3697   */\n      tag_150\n        /* \"#utility.yul\":3690:3696   */\n      dup3\n        /* \"#utility.yul\":3668:3697   */\n      tag_71\n      jump\t// in\n    tag_150:\n        /* \"#utility.yul\":3660:3697   */\n      swap1\n      pop\n        /* \"#utility.yul\":3752:3756   */\n      0x20\n        /* \"#utility.yul\":3746:3750   */\n      dup2\n        /* \"#utility.yul\":3742:3757   */\n      add\n        /* \"#utility.yul\":3734:3757   */\n      swap1\n      pop\n        /* \"#utility.yul\":3456:3764   */\n      swap2\n      swap1\n      pop\n      jump\t// out\n        /* \"#utility.yul\":3770:3918   */\n    tag_86:\n        /* \"#utility.yul\":3868:3874   */\n      dup3\n        /* \"#utility.yul\":3863:3866   */\n      dup2\n        /* \"#utility.yul\":3858:3861   */\n      dup4\n        /* \"#utility.yul\":3845:3875   */\n      calldatacopy\n        /* \"#utility.yul\":3909:3910   */\n      0x00\n        /* \"#utility.yul\":3900:3906   */\n      dup4\n        /* \"#utility.yul\":3895:3898   */\n      dup4\n        /* \"#utility.yul\":3891:3907   */\n      add\n        /* \"#utility.yul\":3884:3911   */\n      mstore\n        /* \"#utility.yul\":3770:3918   */\n      pop\n      pop\n      pop\n      jump\t// out\n        /* \"#utility.yul\":3924:4349   */\n    tag_87:\n        /* \"#utility.yul\":4002:4007   */\n      0x00\n        /* \"#utility.yul\":4027:4093   */\n      tag_153\n        /* \"#utility.yul\":4043:4092   */\n      tag_154\n        /* \"#utility.yul\":4085:4091   */\n      dup5\n        /* \"#utility.yul\":4043:4092   */\n      tag_85\n      jump\t// in\n    tag_154:\n        /* \"#utility.yul\":4027:4093   */\n      tag_84\n      jump\t// in\n    tag_153:\n        /* \"#utility.yul\":4018:4093   */\n      swap1\n      pop\n        /* \"#utility.yul\":4116:4122   */\n      dup3\n        /* \"#utility.yul\":4109:4114   */\n      dup2\n        /* \"#utility.yul\":4102:4123   */\n      mstore\n        /* \"#utility.yul\":4154:4158   */\n      0x20\n        /* \"#utility.yul\":4147:4152   */\n      dup2\n        /* \"#utility.yul\":4143:4159   */\n      add\n        /* \"#utility.yul\":4192:4195   */\n      dup5\n        /* \"#utility.yul\":4183:4189   */\n      dup5\n        /* \"#utility.yul\":4178:4181   */\n      dup5\n        /* \"#utility.yul\":4174:4190   */\n      add\n        /* \"#utility.yul\":4171:4196   */\n      gt\n        /* \"#utility.yul\":4168:4280   */\n      iszero\n      tag_155\n      jumpi\n        /* \"#utility.yul\":4199:4278   */\n      tag_156\n      tag_81\n      jump\t// in\n    tag_156:\n        /* \"#utility.yul\":4168:4280   */\n    tag_155:\n        /* \"#utility.yul\":4289:4343   */\n      tag_157\n        /* \"#utility.yul\":4336:4342   */\n      dup5\n        /* \"#utility.yul\":4331:4334   */\n      dup3\n        /* \"#utility.yul\":4326:4329   */\n      dup6\n        /* \"#utility.yul\":4289:4343   */\n      tag_86\n      jump\t// in\n    tag_157:\n        /* \"#utility.yul\":4008:4349   */\n      pop\n        /* \"#utility.yul\":3924:4349   */\n      swap4\n      swap3\n      pop\n      pop\n      pop\n      jump\t// out\n        /* \"#utility.yul\":4369:4709   */\n    tag_88:\n        /* \"#utility.yul\":4425:4430   */\n      0x00\n        /* \"#utility.yul\":4474:4477   */\n      dup3\n        /* \"#utility.yul\":4467:4471   */\n      0x1f\n        /* \"#utility.yul\":4459:4465   */\n      dup4\n        /* \"#utility.yul\":4455:4472   */\n      add\n        /* \"#utility.yul\":4451:4478   */\n      slt\n        /* \"#utility.yul\":4441:4563   */\n      tag_159\n      jumpi\n        /* \"#utility.yul\":4482:4561   */\n      tag_160\n      tag_80\n      jump\t// in\n    tag_160:\n        /* \"#utility.yul\":4441:4563   */\n    tag_159:\n        /* \"#utility.yul\":4599:4605   */\n      dup2\n        /* \"#utility.yul\":4586:4606   */\n      calldataload\n        /* \"#utility.yul\":4624:4703   */\n      tag_161\n        /* \"#utility.yul\":4699:4702   */\n      dup5\n        /* \"#utility.yul\":4691:4697   */\n      dup3\n        /* \"#utility.yul\":4684:4688   */\n      0x20\n        /* \"#utility.yul\":4676:4682   */\n      dup7\n        /* \"#utility.yul\":4672:4689   */\n      add\n        /* \"#utility.yul\":4624:4703   */\n      tag_87\n      jump\t// in\n    tag_161:\n        /* \"#utility.yul\":4615:4703   */\n      swap2\n      pop\n        /* \"#utility.yul\":4431:4709   */\n      pop\n        /* \"#utility.yul\":4369:4709   */\n      swap3\n      swap2\n      pop\n      pop\n      jump\t// out\n        /* \"#utility.yul\":4715:5369   */\n    tag_27:\n        /* \"#utility.yul\":4793:4799   */\n      0x00\n        /* \"#utility.yul\":4801:4807   */\n      0x00\n        /* \"#utility.yul\":4850:4852   */\n      0x40\n        /* \"#utility.yul\":4838:4847   */\n      dup4\n        /* \"#utility.yul\":4829:4836   */\n      dup6\n        /* \"#utility.yul\":4825:4848   */\n      sub\n        /* \"#utility.yul\":4821:4853   */\n      slt\n        /* \"#utility.yul\":4818:4937   */\n      iszero\n      tag_163\n      jumpi\n        /* \"#utility.yul\":4856:4935   */\n      tag_164\n      tag_76\n      jump\t// in\n    tag_164:\n        /* \"#utility.yul\":4818:4937   */\n    tag_163:\n        /* \"#utility.yul\":5004:5005   */\n      0x00\n        /* \"#utility.yul\":4993:5002   */\n      dup4\n        /* \"#utility.yul\":4989:5006   */\n      add\n        /* \"#utility.yul\":4976:5007   */\n      calldataload\n        /* \"#utility.yul\":5034:5052   */\n      0xffffffffffffffff\n        /* \"#utility.yul\":5026:5032   */\n      dup2\n        /* \"#utility.yul\":5023:5053   */\n      gt\n        /* \"#utility.yul\":5020:5137   */\n      iszero\n      tag_165\n      jumpi\n        /* \"#utility.yul\":5056:5135   */\n      tag_166\n      tag_77\n      jump\t// in\n    tag_166:\n        /* \"#utility.yul\":5020:5137   */\n    tag_165:\n        /* \"#utility.yul\":5161:5224   */\n      tag_167\n        /* \"#utility.yul\":5216:5223   */\n      dup6\n        /* \"#utility.yul\":5207:5213   */\n      dup3\n        /* \"#utility.yul\":5196:5205   */\n      dup7\n        /* \"#utility.yul\":5192:5214   */\n      add\n        /* \"#utility.yul\":5161:5224   */\n      tag_88\n      jump\t// in\n    tag_167:\n        /* \"#utility.yul\":5151:5224   */\n      swap3\n      pop\n        /* \"#utility.yul\":4947:5234   */\n      pop\n        /* \"#utility.yul\":5273:5275   */\n      0x20\n        /* \"#utility.yul\":5299:5352   */\n      tag_168\n        /* \"#utility.yul\":5344:5351   */\n      dup6\n        /* \"#utility.yul\":5335:5341   */\n      dup3\n        /* \"#utility.yul\":5324:5333   */\n      dup7\n        /* \"#utility.yul\":5320:5342   */\n      add\n        /* \"#utility.yul\":5299:5352   */\n      tag_79\n      jump\t// in\n    tag_168:\n        /* \"#utility.yul\":5289:5352   */\n      swap2\n      pop\n        /* \"#utility.yul\":5244:5362   */\n      pop\n        /* \"#utility.yul\":4715:5369   */\n      swap3\n      pop\n      swap3\n      swap1\n      pop\n      jump\t// out\n        /* \"#utility.yul\":5375:5474   */\n    tag_89:\n        /* \"#utility.yul\":5427:5433   */\n      0x00\n        /* \"#utility.yul\":5461:5466   */\n      dup2\n        /* \"#utility.yul\":5455:5467   */\n      mload\n        /* \"#utility.yul\":5445:5467   */\n      swap1\n      pop\n        /* \"#utility.yul\":5375:5474   */\n      swap2\n      swap1\n      pop\n      jump\t// out\n        /* \"#utility.yul\":5480:5649   */\n    tag_90:\n        /* \"#utility.yul\":5564:5575   */\n      0x00\n        /* \"#utility.yul\":5598:5604   */\n      dup3\n        /* \"#utility.yul\":5593:5596   */\n      dup3\n        /* \"#utility.yul\":5586:5605   */\n      mstore\n        /* \"#utility.yul\":5638:5642   */\n      0x20\n        /* \"#utility.yul\":5633:5636   */\n      dup3\n        /* \"#utility.yul\":5629:5643   */\n      add\n        /* \"#utility.yul\":5614:5643   */\n      swap1\n      pop\n        /* \"#utility.yul\":5480:5649   */\n      swap3\n      swap2\n      pop\n      pop\n      jump\t// out\n        /* \"#utility.yul\":5655:6032   */\n    tag_91:\n        /* \"#utility.yul\":5743:5746   */\n      0x00\n        /* \"#utility.yul\":5771:5810   */\n      tag_172\n        /* \"#utility.yul\":5804:5809   */\n      dup3\n        /* \"#utility.yul\":5771:5810   */\n      tag_89\n      jump\t// in\n    tag_172:\n        /* \"#utility.yul\":5826:5897   */\n      tag_173\n        /* \"#utility.yul\":5890:5896   */\n      dup2\n        /* \"#utility.yul\":5885:5888   */\n      dup6\n        /* \"#utility.yul\":5826:5897   */\n      tag_90\n      jump\t// in\n    tag_173:\n        /* \"#utility.yul\":5819:5897   */\n      swap4\n      pop\n        /* \"#utility.yul\":5906:5971   */\n      tag_174\n        /* \"#utility.yul\":5964:5970   */\n      dup2\n        /* \"#utility.yul\":5959:5962   */\n      dup6\n        /* \"#utility.yul\":5952:5956   */\n      0x20\n        /* \"#utility.yul\":5945:5950   */\n      dup7\n        /* \"#utility.yul\":5941:5957   */\n      add\n        /* \"#utility.yul\":5906:5971   */\n      tag_70\n      jump\t// in\n    tag_174:\n        /* \"#utility.yul\":5996:6025   */\n      tag_175\n        /* \"#utility.yul\":6018:6024   */\n      dup2\n        /* \"#utility.yul\":5996:6025   */\n      tag_71\n      jump\t// in\n    tag_175:\n        /* \"#utility.yul\":5991:5994   */\n      dup5\n        /* \"#utility.yul\":5987:6026   */\n      add\n        /* \"#utility.yul\":5980:6026   */\n      swap2\n      pop\n        /* \"#utility.yul\":5747:6032   */\n      pop\n        /* \"#utility.yul\":5655:6032   */\n      swap3\n      swap2\n      pop\n      pop\n      jump\t// out\n        /* \"#utility.yul\":6038:6351   */\n    tag_32:\n        /* \"#utility.yul\":6151:6155   */\n      0x00\n        /* \"#utility.yul\":6189:6191   */\n      0x20\n        /* \"#utility.yul\":6178:6187   */\n      dup3\n        /* \"#utility.yul\":6174:6192   */\n      add\n        /* \"#utility.yul\":6166:6192   */\n      swap1\n      pop\n        /* \"#utility.yul\":6238:6247   */\n      dup2\n        /* \"#utility.yul\":6232:6236   */\n      dup2\n        /* \"#utility.yul\":6228:6248   */\n      sub\n        /* \"#utility.yul\":6224:6225   */\n      0x00\n        /* \"#utility.yul\":6213:6222   */\n      dup4\n        /* \"#utility.yul\":6209:6226   */\n      add\n        /* \"#utility.yul\":6202:6249   */\n      mstore\n        /* \"#utility.yul\":6266:6344   */\n      tag_177\n        /* \"#utility.yul\":6339:6343   */\n      dup2\n        /* \"#utility.yul\":6330:6336   */\n      dup5\n        /* \"#utility.yul\":6266:6344   */\n      tag_91\n      jump\t// in\n    tag_177:\n        /* \"#utility.yul\":6258:6344   */\n      swap1\n      pop\n        /* \"#utility.yul\":6038:6351   */\n      swap3\n      swap2\n      pop\n      pop\n      jump\t// out\n        /* \"#utility.yul\":6357:6537   */\n    tag_92:\n        /* \"#utility.yul\":6405:6482   */\n      0x4e487b7100000000000000000000000000000000000000000000000000000000\n        /* \"#utility.yul\":6402:6403   */\n      0x00\n        /* \"#utility.yul\":6395:6483   */\n      mstore\n        /* \"#utility.yul\":6502:6506   */\n      0x22\n        /* \"#utility.yul\":6499:6500   */\n      0x04\n        /* \"#utility.yul\":6492:6507   */\n      mstore\n        /* \"#utility.yul\":6526:6530   */\n      0x24\n        /* \"#utility.yul\":6523:6524   */\n      0x00\n        /* \"#utility.yul\":6516:6531   */\n      revert\n        /* \"#utility.yul\":6543:6863   */\n    tag_43:\n        /* \"#utility.yul\":6587:6593   */\n      0x00\n        /* \"#utility.yul\":6624:6625   */\n      0x02\n        /* \"#utility.yul\":6618:6622   */\n      dup3\n        /* \"#utility.yul\":6614:6626   */\n      div\n        /* \"#utility.yul\":6604:6626   */\n      swap1\n      pop\n        /* \"#utility.yul\":6671:6672   */\n      0x01\n        /* \"#utility.yul\":6665:6669   */\n      dup3\n        /* \"#utility.yul\":6661:6673   */\n      and\n        /* \"#utility.yul\":6692:6710   */\n      dup1\n        /* \"#utility.yul\":6682:6763   */\n      tag_180\n      jumpi\n        /* \"#utility.yul\":6748:6752   */\n      0x7f\n        /* \"#utility.yul\":6740:6746   */\n      dup3\n        /* \"#utility.yul\":6736:6753   */\n      and\n        /* \"#utility.yul\":6726:6753   */\n      swap2\n      pop\n        /* \"#utility.yul\":6682:6763   */\n    tag_180:\n        /* \"#utility.yul\":6810:6812   */\n      0x20\n        /* \"#utility.yul\":6802:6808   */\n      dup3\n        /* \"#utility.yul\":6799:6813   */\n      lt\n        /* \"#utility.yul\":6779:6797   */\n      dup2\n        /* \"#utility.yul\":6776:6814   */\n      sub\n        /* \"#utility.yul\":6773:6857   */\n      tag_181\n      jumpi\n        /* \"#utility.yul\":6829:6847   */\n      tag_182\n      tag_92\n      jump\t// in\n    tag_182:\n        /* \"#utility.yul\":6773:6857   */\n    tag_181:\n        /* \"#utility.yul\":6594:6863   */\n      pop\n        /* \"#utility.yul\":6543:6863   */\n      swap2\n      swap1\n      pop\n      jump\t// out\n        /* \"#utility.yul\":6869:7010   */\n    tag_93:\n        /* \"#utility.yul\":6918:6922   */\n      0x00\n        /* \"#utility.yul\":6941:6944   */\n      dup2\n        /* \"#utility.yul\":6933:6944   */\n      swap1\n      pop\n        /* \"#utility.yul\":6964:6967   */\n      dup2\n        /* \"#utility.yul\":6961:6962   */\n      0x00\n        /* \"#utility.yul\":6954:6968   */\n      mstore\n        /* \"#utility.yul\":6998:7002   */\n      0x20\n        /* \"#utility.yul\":6995:6996   */\n      0x00\n        /* \"#utility.yul\":6985:7003   */\n      keccak256\n        /* \"#utility.yul\":6977:7003   */\n      swap1\n      pop\n        /* \"#utility.yul\":6869:7010   */\n      swap2\n      swap1\n      pop\n      jump\t// out\n        /* \"#utility.yul\":7016:7109   */\n    tag_94:\n        /* \"#utility.yul\":7053:7059   */\n      0x00\n        /* \"#utility.yul\":7100:7102   */\n      0x20\n        /* \"#utility.yul\":7095:7097   */\n      0x1f\n        /* \"#utility.yul\":7088:7093   */\n      dup4\n        /* \"#utility.yul\":7084:7098   */\n      add\n        /* \"#utility.yul\":7080:7103   */\n      div\n        /* \"#utility.yul\":7070:7103   */\n      swap1\n      pop\n        /* \"#utility.yul\":7016:7109   */\n      swap2\n      swap1\n      pop\n      jump\t// out\n        /* \"#utility.yul\":7115:7222   */\n    tag_95:\n        /* \"#utility.yul\":7159:7167   */\n      0x00\n        /* \"#utility.yul\":7209:7214   */\n      dup3\n        /* \"#utility.yul\":7203:7207   */\n      dup3\n        /* \"#utility.yul\":7199:7215   */\n      shl\n        /* \"#utility.yul\":7178:7215   */\n      swap1\n      pop\n        /* \"#utility.yul\":7115:7222   */\n      swap3\n      swap2\n      pop\n      pop\n      jump\t// out\n        /* \"#utility.yul\":7228:7621   */\n    tag_96:\n        /* \"#utility.yul\":7297:7303   */\n      0x00\n        /* \"#utility.yul\":7347:7348   */\n      0x08\n        /* \"#utility.yul\":7335:7345   */\n      dup4\n        /* \"#utility.yul\":7331:7349   */\n      mul\n        /* \"#utility.yul\":7370:7467   */\n      tag_187\n        /* \"#utility.yul\":7400:7466   */\n      0xffffffffffffffffffffffffffffffffffffffffffffffffffffffffffffffff\n        /* \"#utility.yul\":7389:7398   */\n      dup3\n        /* \"#utility.yul\":7370:7467   */\n      tag_95\n      jump\t// in\n    tag_187:\n        /* \"#utility.yul\":7488:7527   */\n      tag_188\n        /* \"#utility.yul\":7518:7526   */\n      dup7\n        /* \"#utility.yul\":7507:7516   */\n      dup4\n        /* \"#utility.yul\":7488:7527   */\n      tag_95\n      jump\t// in\n    tag_188:\n        /* \"#utility.yul\":7476:7527   */\n      swap6\n      pop\n        /* \"#utility.yul\":7560:7564   */\n      dup1\n        /* \"#utility.yul\":7556:7565   */\n      not\n        /* \"#utility.yul\":7549:7554   */\n      dup5\n        /* \"#utility.yul\":7545:7566   */\n      and\n        /* \"#utility.yul\":7536:7566   */\n      swap4\n      pop\n        /* \"#utility.yul\":7609:7613   */\n      dup1\n        /* \"#utility.yul\":7599:7607   */\n      dup7\n        /* \"#utility.yul\":7595:7614   */\n      and\n        /* \"#utility.yul\":7588:7593   */\n      dup5\n        /* \"#utility.yul\":7585:7615   */\n      or\n        /* \"#utility.yul\":7575:7615   */\n      swap3\n      pop\n        /* \"#utility.yul\":7304:7621   */\n      pop\n      pop\n        /* \"#utility.yul\":7228:7621   */\n      swap4\n      swap3\n      pop\n      pop\n      pop\n      jump\t// out\n        /* \"#utility.yul\":7627:7687   */\n    tag_97:\n        /* \"#utility.yul\":7655:7658   */\n      0x00\n        /* \"#utility.yul\":7676:7681   */\n      dup2\n        /* \"#utility.yul\":7669:7681   */\n      swap1\n      pop\n        /* \"#utility.yul\":7627:7687   */\n      swap2\n      swap1\n      pop\n      jump\t// out\n        /* \"#utility.yul\":7693:7835   */\n    tag_98:\n        /* \"#utility.yul\":7743:7752   */\n      0x00\n        /* \"#utility.yul\":7776:7829   */\n      tag_191\n        /* \"#utility.yul\":7794:7828   */\n      tag_192\n        /* \"#utility.yul\":7803:7827   */\n      tag_193\n        /* \"#utility.yul\":7821:7826   */\n      dup5\n        /* \"#utility.yul\":7803:7827   */\n      tag_73\n      jump\t// in\n    tag_193:\n        /* \"#utility.yul\":7794:7828   */\n      tag_97\n      jump\t// in\n    tag_192:\n        /* \"#utility.yul\":7776:7829   */\n      tag_73\n      jump\t// in\n    tag_191:\n        /* \"#utility.yul\":7763:7829   */\n      swap1\n      pop\n        /* \"#utility.yul\":7693:7835   */\n      swap2\n      swap1\n      pop\n      jump\t// out\n        /* \"#utility.yul\":7841:7916   */\n    tag_99:\n        /* \"#utility.yul\":7884:7887   */\n      0x00\n        /* \"#utility.yul\":7905:7910   */\n      dup2\n        /* \"#utility.yul\":7898:7910   */\n      swap1\n      pop\n        /* \"#utility.yul\":7841:7916   */\n      swap2\n      swap1\n      pop\n      jump\t// out\n        /* \"#utility.yul\":7922:8191   */\n    tag_100:\n        /* \"#utility.yul\":8032:8071   */\n      tag_196\n        /* \"#utility.yul\":8063:8070   */\n      dup4\n        /* \"#utility.yul\":8032:8071   */\n      tag_98\n      jump\t// in\n    tag_196:\n        /* \"#utility.yul\":8093:8184   */\n      tag_197\n        /* \"#utility.yul\":8142:8183   */\n      tag_198\n        /* \"#utility.yul\":8166:8182   */\n      dup3\n        /* \"#utility.yul\":8142:8183   */\n      tag_99\n      jump\t// in\n    tag_198:\n        /* \"#utility.yul\":8134:8140   */\n      dup5\n        /* \"#utility.yul\":8127:8131   */\n      dup5\n        /* \"#utility.yul\":8121:8132   */\n      sload\n        /* \"#utility.yul\":8093:8184   */\n      tag_96\n      jump\t// in\n    tag_197:\n        /* \"#utility.yul\":8087:8091   */\n      dup3\n        /* \"#utility.yul\":8080:8185   */\n      sstore\n        /* \"#utility.yul\":7998:8191   */\n      pop\n        /* \"#utility.yul\":7922:8191   */\n      pop\n      pop\n      pop\n      jump\t// out\n        /* \"#utility.yul\":8197:8270   */\n    tag_101:\n        /* \"#utility.yul\":8242:8245   */\n      0x00\n        /* \"#utility.yul\":8263:8264   */\n      0x00\n        /* \"#utility.yul\":8256:8264   */\n      swap1\n      pop\n        /* \"#utility.yul\":8197:8270   */\n      swap1\n      jump\t// out\n        /* \"#utility.yul\":8276:8465   */\n    tag_102:\n        /* \"#utility.yul\":8353:8385   */\n      tag_201\n      tag_101\n      jump\t// in\n    tag_201:\n        /* \"#utility.yul\":8394:8459   */\n      tag_202\n        /* \"#utility.yul\":8452:8458   */\n      dup2\n        /* \"#utility.yul\":8444:8450   */\n      dup5\n        /* \"#utility.yul\":8438:8442   */\n      dup5\n        /* \"#utility.yul\":8394:8459   */\n      tag_100\n      jump\t// in\n    tag_202:\n        /* \"#utility.yul\":8329:8465   */\n      pop\n        /* \"#utility.yul\":8276:8465   */\n      pop\n      pop\n      jump\t// out\n        /* \"#utility.yul\":8471:8657   */\n    tag_103:\n        /* \"#utility.yul\":8531:8651   */\n    tag_204:\n        /* \"#utility.yul\":8548:8551   */\n      dup2\n        /* \"#utility.yul\":8541:8546   */\n      dup2\n        /* \"#utility.yul\":8538:8552   */\n      lt\n        /* \"#utility.yul\":8531:8651   */\n      iszero\n      tag_206\n      jumpi\n        /* \"#utility.yul\":8602:8641   */\n      tag_207\n        /* \"#utility.yul\":8639:8640   */\n      0x00\n        /* \"#utility.yul\":8632:8637   */\n      dup3\n        /* \"#utility.yul\":8602:8641   */\n      tag_102\n      jump\t// in\n    tag_207:\n        /* \"#utility.yul\":8575:8576   */\n      0x01\n        /* \"#utility.yul\":8568:8573   */\n      dup2\n        /* \"#utility.yul\":8564:8577   */\n      add\n        /* \"#utility.yul\":8555:8577   */\n      swap1\n      pop\n        /* \"#utility.yul\":8531:8651   */\n      jump(tag_204)\n    tag_206:\n        /* \"#utility.yul\":8471:8657   */\n      pop\n      pop\n      jump\t// out\n        /* \"#utility.yul\":8663:9206   */\n    tag_104:\n        /* \"#utility.yul\":8764:8766   */\n      0x1f\n        /* \"#utility.yul\":8759:8762   */\n      dup3\n        /* \"#utility.yul\":8756:8767   */\n      gt\n        /* \"#utility.yul\":8753:9199   */\n      iszero\n      tag_209\n      jumpi\n        /* \"#utility.yul\":8798:8836   */\n      tag_210\n        /* \"#utility.yul\":8830:8835   */\n      dup2\n        /* \"#utility.yul\":8798:8836   */\n      tag_93\n      jump\t// in\n    tag_210:\n        /* \"#utility.yul\":8882:8911   */\n      tag_211\n        /* \"#utility.yul\":8900:8910   */\n      dup5\n        /* \"#utility.yul\":8882:8911   */\n      tag_94\n      jump\t// in\n    tag_211:\n        /* \"#utility.yul\":8872:8880   */\n      dup2\n        /* \"#utility.yul\":8868:8912   */\n      add\n        /* \"#utility.yul\":9065:9067   */\n      0x20\n        /* \"#utility.yul\":9053:9063   */\n      dup6\n        /* \"#utility.yul\":9050:9068   */\n      lt\n        /* \"#utility.yul\":9047:9096   */\n      iszero\n      tag_212\n      jumpi\n        /* \"#utility.yul\":9086:9094   */\n      dup2\n        /* \"#utility.yul\":9071:9094   */\n      swap1\n      pop\n        /* \"#utility.yul\":9047:9096   */\n    tag_212:\n        /* \"#utility.yul\":9109:9189   */\n      tag_213\n        /* \"#utility.yul\":9165:9187   */\n      tag_214\n        /* \"#utility.yul\":9183:9186   */\n      dup6\n        /* \"#utility.yul\":9165:9187   */\n      tag_94\n      jump\t// in\n    tag_214:\n        /* \"#utility.yul\":9155:9163   */\n      dup4\n        /* \"#utility.yul\":9151:9188   */\n      add\n        /* \"#utility.yul\":9138:9149   */\n      dup3\n        /* \"#utility.yul\":9109:9189   */\n      tag_103\n      jump\t// in\n    tag_213:\n        /* \"#utility.yul\":8768:9199   */\n      pop\n      pop\n        /* \"#utility.yul\":8753:9199   */\n    tag_209:\n        /* \"#utility.yul\":8663:9206   */\n      pop\n      pop\n      pop\n      jump\t// out\n        /* \"#utility.yul\":9212:9329   */\n    tag_105:\n        /* \"#utility.yul\":9266:9274   */\n      0x00\n        /* \"#utility.yul\":9316:9321   */\n      dup3\n        /* \"#utility.yul\":9310:9314   */\n      dup3\n        /* \"#utility.yul\":9306:9322   */\n      shr\n        /* \"#utility.yul\":9285:9322   */\n      swap1\n      pop\n        /* \"#utility.yul\":9212:9329   */\n      swap3\n      swap2\n      pop\n      pop\n      jump\t// out\n        /* \"#utility.yul\":9335:9504   */\n    tag_106:\n        /* \"#utility.yul\":9379:9385   */\n      0x00\n        /* \"#utility.yul\":9412:9463   */\n      tag_217\n        /* \"#utility.yul\":9460:9461   */\n      0x00\n        /* \"#utility.yul\":9456:9462   */\n      not\n        /* \"#utility.yul\":9448:9453   */\n      dup5\n        /* \"#utility.yul\":9445:9446   */\n      0x08\n        /* \"#utility.yul\":9441:9454   */\n      mul\n        /* \"#utility.yul\":9412:9463   */\n      tag_105\n      jump\t// in\n    tag_217:\n        /* \"#utility.yul\":9408:9464   */\n      not\n        /* \"#utility.yul\":9493:9497   */\n      dup1\n        /* \"#utility.yul\":9487:9491   */\n      dup4\n        /* \"#utility.yul\":9483:9498   */\n      and\n        /* \"#utility.yul\":9473:9498   */\n      swap2\n      pop\n        /* \"#utility.yul\":9386:9504   */\n      pop\n        /* \"#utility.yul\":9335:9504   */\n      swap3\n      swap2\n      pop\n      pop\n      jump\t// out\n        /* \"#utility.yul\":9509:9804   */\n    tag_107:\n        /* \"#utility.yul\":9585:9589   */\n      0x00\n        /* \"#utility.yul\":9731:9760   */\n      tag_219\n        /* \"#utility.yul\":9756:9759   */\n      dup4\n        /* \"#utility.yul\":9750:9754   */\n      dup4\n        /* \"#utility.yul\":9731:9760   */\n      tag_106\n      jump\t// in\n    tag_219:\n        /* \"#utility.yul\":9723:9760   */\n      swap2\n      pop\n        /* \"#utility.yul\":9793:9796   */\n      dup3\n        /* \"#utility.yul\":9790:9791   */\n      0x02\n        /* \"#utility.yul\":9786:9797   */\n      mul\n        /* \"#utility.yul\":9780:9784   */\n      dup3\n        /* \"#utility.yul\":9777:9798   */\n      or\n        /* \"#utility.yul\":9769:9798   */\n      swap1\n      pop\n        /* \"#utility.yul\":9509:9804   */\n      swap3\n      swap2\n      pop\n      pop\n      jump\t// out\n        /* \"#utility.yul\":9809:11204   */\n    tag_52:\n        /* \"#utility.yul\":9926:9963   */\n      tag_221\n        /* \"#utility.yul\":9959:9962   */\n      dup3\n        /* \"#utility.yul\":9926:9963   */\n      tag_89\n      jump\t// in\n    tag_221:\n        /* \"#utility.yul\":10028:10046   */\n      0xffffffffffffffff\n        /* \"#utility.yul\":10020:10026   */\n      dup2\n        /* \"#utility.yul\":10017:10047   */\n      gt\n        /* \"#utility.yul\":10014:10070   */\n      iszero\n      tag_222\n      jumpi\n        /* \"#utility.yul\":10050:10068   */\n      tag_223\n      tag_82\n      jump\t// in\n    tag_223:\n        /* \"#utility.yul\":10014:10070   */\n    tag_222:\n        /* \"#utility.yul\":10094:10132   */\n      tag_224\n        /* \"#utility.yul\":10126:10130   */\n      dup3\n        /* \"#utility.yul\":10120:10131   */\n      sload\n        /* \"#utility.yul\":10094:10132   */\n      tag_43\n      jump\t// in\n    tag_224:\n        /* \"#utility.yul\":10179:10246   */\n      tag_225\n        /* \"#utility.yul\":10239:10245   */\n      dup3\n        /* \"#utility.yul\":10231:10237   */\n      dup3\n        /* \"#utility.yul\":10225:10229   */\n      dup6\n        /* \"#utility.yul\":10179:10246   */\n      tag_104\n      jump\t// in\n    tag_225:\n        /* \"#utility.yul\":10273:10274   */\n      0x00\n        /* \"#utility.yul\":10297:10301   */\n      0x20\n        /* \"#utility.yul\":10284:10301   */\n      swap1\n      pop\n        /* \"#utility.yul\":10329:10331   */\n      0x1f\n        /* \"#utility.yul\":10321:10327   */\n      dup4\n        /* \"#utility.yul\":10318:10332   */\n      gt\n        /* \"#utility.yul\":10346:10347   */\n      0x01\n        /* \"#utility.yul\":10341:10959   */\n      dup2\n      eq\n      tag_227\n      jumpi\n        /* \"#utility.yul\":11003:11004   */\n      0x00\n        /* \"#utility.yul\":11020:11026   */\n      dup5\n        /* \"#utility.yul\":11017:11094   */\n      iszero\n      tag_228\n      jumpi\n        /* \"#utility.yul\":11069:11078   */\n      dup3\n        /* \"#utility.yul\":11064:11067   */\n      dup8\n        /* \"#utility.yul\":11060:11079   */\n      add\n        /* \"#utility.yul\":11054:11080   */\n      mload\n        /* \"#utility.yul\":11045:11080   */\n      swap1\n      pop\n        /* \"#utility.yul\":11017:11094   */\n    tag_228:\n        /* \"#utility.yul\":11120:11187   */\n      tag_229\n        /* \"#utility.yul\":11180:11186   */\n      dup6\n        /* \"#utility.yul\":11173:11178   */\n      dup3\n        /* \"#utility.yul\":11120:11187   */\n      tag_107\n      jump\t// in\n    tag_229:\n        /* \"#utility.yul\":11114:11118   */\n      dup7\n        /* \"#utility.yul\":11107:11188   */\n      sstore\n        /* \"#utility.yul\":10976:11198   */\n      pop\n        /* \"#utility.yul\":10311:11198   */\n      jump(tag_226)\n        /* \"#utility.yul\":10341:10959   */\n    tag_227:\n        /* \"#utility.yul\":10393:10397   */\n      0x1f\n        /* \"#utility.yul\":10389:10398   */\n      not\n        /* \"#utility.yul\":10381:10387   */\n      dup5\n        /* \"#utility.yul\":10377:10399   */\n      and\n        /* \"#utility.yul\":10427:10464   */\n      tag_230\n        /* \"#utility.yul\":10459:10463   */\n      dup7\n        /* \"#utility.yul\":10427:10464   */\n      tag_93\n      jump\t// in\n    tag_230:\n        /* \"#utility.yul\":10486:10487   */\n      0x00\n        /* \"#utility.yul\":10500:10708   */\n    tag_231:\n        /* \"#utility.yul\":10514:10521   */\n      dup3\n        /* \"#utility.yul\":10511:10512   */\n      dup2\n        /* \"#utility.yul\":10508:10522   */\n      lt\n        /* \"#utility.yul\":10500:10708   */\n      iszero\n      tag_233\n      jumpi\n        /* \"#utility.yul\":10593:10602   */\n      dup5\n        /* \"#utility.yul\":10588:10591   */\n      dup10\n        /* \"#utility.yul\":10584:10603   */\n      add\n        /* \"#utility.yul\":10578:10604   */\n      mload\n        /* \"#utility.yul\":10570:10576   */\n      dup3\n        /* \"#utility.yul\":10563:10605   */\n      sstore\n        /* \"#utility.yul\":10644:10645   */\n      0x01\n        /* \"#utility.yul\":10636:10642   */\n      dup3\n        /* \"#utility.yul\":10632:10646   */\n      add\n        /* \"#utility.yul\":10622:10646   */\n      swap2\n      pop\n        /* \"#utility.yul\":10691:10693   */\n      0x20\n        /* \"#utility.yul\":10680:10689   */\n      dup6\n        /* \"#utility.yul\":10676:10694   */\n      add\n        /* \"#utility.yul\":10663:10694   */\n      swap5\n      pop\n        /* \"#utility.yul\":10537:10541   */\n      0x20\n        /* \"#utility.yul\":10534:10535   */\n      dup2\n        /* \"#utility.yul\":10530:10542   */\n      add\n        /* \"#utility.yul\":10525:10542   */\n      swap1\n      pop\n        /* \"#utility.yul\":10500:10708   */\n      jump(tag_231)\n    tag_233:\n        /* \"#utility.yul\":10736:10742   */\n      dup7\n        /* \"#utility.yul\":10727:10734   */\n      dup4\n        /* \"#utility.yul\":10724:10743   */\n      lt\n        /* \"#utility.yul\":10721:10900   */\n      iszero\n      tag_234\n      jumpi\n        /* \"#utility.yul\":10794:10803   */\n      dup5\n        /* \"#utility.yul\":10789:10792   */\n      dup10\n        /* \"#utility.yul\":10785:10804   */\n      add\n        /* \"#utility.yul\":10779:10805   */\n      mload\n        /* \"#utility.yul\":10837:10885   */\n      tag_235\n        /* \"#utility.yul\":10879:10883   */\n      0x1f\n        /* \"#utility.yul\":10871:10877   */\n      dup10\n        /* \"#utility.yul\":10867:10884   */\n      and\n        /* \"#utility.yul\":10856:10865   */\n      dup3\n        /* \"#utility.yul\":10837:10885   */\n      tag_106\n      jump\t// in\n    tag_235:\n        /* \"#utility.yul\":10829:10835   */\n      dup4\n        /* \"#utility.yul\":10822:10886   */\n      sstore\n        /* \"#utility.yul\":10744:10900   */\n      pop\n        /* \"#utility.yul\":10721:10900   */\n    tag_234:\n        /* \"#utility.yul\":10946:10947   */\n      0x01\n        /* \"#utility.yul\":10942:10943   */\n      0x02\n        /* \"#utility.yul\":10934:10940   */\n      dup9\n        /* \"#utility.yul\":10930:10944   */\n      mul\n        /* \"#utility.yul\":10926:10948   */\n      add\n        /* \"#utility.yul\":10920:10924   */\n      dup9\n        /* \"#utility.yul\":10913:10949   */\n      sstore\n        /* \"#utility.yul\":10348:10959   */\n      pop\n      pop\n      pop\n        /* \"#utility.yul\":10311:11198   */\n    tag_226:\n      pop\n        /* \"#utility.yul\":9901:11204   */\n      pop\n      pop\n      pop\n        /* \"#utility.yul\":9809:11204   */\n      pop\n      pop\n      jump\t// out\n\n    auxdata: 0xa2646970667358221220a2c88c1fb6b03aeea78ab9cf81af81b0751585824b6d49a95d16c09791752d7564736f6c634300081e0033\n}\n",
				"bytecode": {
					"linkReferences": {},
					"object": "60806040526040518060400160405280601381526020017f48656c6c6f20576f726c642064656661756c740000000000000000000000000081525060029081610048919061032b565b5060056003556040518060400160405280600b81526020017f766976656b207261776174000000000000000000000000000000000000000000815250600490816100929190610452565b5034801561009e575f5ffd5b506040516111fe3803806111fe83398181016040528101906100c0919061066b565b815f90816100ce919061032b565b50806001819055506004600590816100e691906106ec565b5050506107d1565b5f81519050919050565b7f4e487b71000000000000000000000000000000000000000000000000000000005f52604160045260245ffd5b7f4e487b71000000000000000000000000000000000000000000000000000000005f52602260045260245ffd5b5f600282049050600182168061016957607f821691505b60208210810361017c5761017b610125565b5b50919050565b5f819050815f5260205f209050919050565b5f6020601f8301049050919050565b5f82821b905092915050565b5f600883026101de7fffffffffffffffffffffffffffffffffffffffffffffffffffffffffffffffff826101a3565b6101e886836101a3565b95508019841693508086168417925050509392505050565b5f819050919050565b5f819050919050565b5f61022c61022761022284610200565b610209565b610200565b9050919050565b5f819050919050565b61024583610212565b61025961025182610233565b8484546101af565b825550505050565b5f5f905090565b610270610261565b61027b81848461023c565b505050565b5b8181101561029e576102935f82610268565b600181019050610281565b5050565b601f8211156102e3576102b481610182565b6102bd84610194565b810160208510156102cc578190505b6102e06102d885610194565b830182610280565b50505b505050565b5f82821c905092915050565b5f6103035f19846008026102e8565b1980831691505092915050565b5f61031b83836102f4565b9150826002028217905092915050565b610334826100ee565b67ffffffffffffffff81111561034d5761034c6100f8565b5b6103578254610152565b6103628282856102a2565b5f60209050601f831160018114610393575f8415610381578287015190505b61038b8582610310565b8655506103f2565b601f1984166103a186610182565b5f5b828110156103c8578489015182556001820191506020850194506020810190506103a3565b868310156103e557848901516103e1601f8916826102f4565b8355505b6001600288020188555050505b505050505050565b5f819050815f5260205f209050919050565b601f82111561044d5761041e816103fa565b61042784610194565b81016020851015610436578190505b61044a61044285610194565b830182610280565b50505b505050565b61045b826100ee565b67ffffffffffffffff811115610474576104736100f8565b5b61047e8254610152565b61048982828561040c565b5f60209050601f8311600181146104ba575f84156104a8578287015190505b6104b28582610310565b865550610519565b601f1984166104c8866103fa565b5f5b828110156104ef578489015182556001820191506020850194506020810190506104ca565b8683101561050c5784890151610508601f8916826102f4565b8355505b6001600288020188555050505b505050505050565b5f604051905090565b5f5ffd5b5f5ffd5b5f5ffd5b5f5ffd5b5f601f19601f8301169050919050565b6105538261053a565b810181811067ffffffffffffffff82111715610572576105716100f8565b5b80604052505050565b5f610584610521565b9050610590828261054a565b919050565b5f67ffffffffffffffff8211156105af576105ae6100f8565b5b6105b88261053a565b9050602081019050919050565b8281835e5f83830152505050565b5f6105e56105e084610595565b61057b565b90508281526020810184848401111561060157610600610536565b5b61060c8482856105c5565b509392505050565b5f82601f83011261062857610627610532565b5b81516106388482602086016105d3565b91505092915050565b61064a81610200565b8114610654575f5ffd5b50565b5f8151905061066581610641565b92915050565b5f5f604083850312156106815761068061052a565b5b5f83015167ffffffffffffffff81111561069e5761069d61052e565b5b6106aa85828601610614565b92505060206106bb85828601610657565b9150509250929050565b5f815490506106d381610152565b9050919050565b5f819050815f5260205f209050919050565b8181036106fa5750506107cf565b610703826106c5565b67ffffffffffffffff81111561071c5761071b6100f8565b5b6107268254610152565b61073182828561040c565b5f601f83116001811461075e575f841561074c578287015490505b6107568582610310565b8655506107c8565b601f19841661076c876106da565b9650610777866103fa565b5f5b8281101561079e57848901548255600182019150600185019450602081019050610779565b868310156107bb57848901546107b7601f8916826102f4565b8355505b6001600288020188555050505b5050505050505b565b610a20806107de5f395ff3fe608060405234801561000f575f5ffd5b5060043610610086575f3560e01c8063d01c8e7311610059578063d01c8e7314610112578063d4da005a14610130578063de4b3a731461014e578063fce4f4f31461016c57610086565b8063098181b71461008a5780630c8ae01f146100a85780634011db97146100c65780634ee5c2ee146100f6575b5f5ffd5b61009261018a565b60405161009f919061046f565b60405180910390f35b6100b0610216565b6040516100bd91906104a7565b60405180910390f35b6100e060048036038101906100db91906104fb565b61021c565b6040516100ed91906104a7565b60405180910390f35b610110600480360381019061010b9190610652565b61023c565b005b61011a610256565b60405161012791906106fe565b60405180910390f35b6101386102e1565b60405161014591906104a7565b60405180910390f35b6101566102e7565b60405161016391906106fe565b60405180910390f35b610174610373565b604051610181919061046f565b60405180910390f35b600480546101979061074b565b80601f01602080910402602001604051908101604052809291908181526020018280546101c39061074b565b801561020e5780601f106101e55761010080835404028352916020019161020e565b820191905f5260205f20905b8154815290600101906020018083116101f157829003601f168201915b505050505081565b60035481565b6006818154811061022b575f80fd5b905f5260205f20015f915090505481565b815f908161024a919061091b565b50806001819055505050565b5f80546102629061074b565b80601f016020809104026020016040519081016040528092919081815260200182805461028e9061074b565b80156102d95780601f106102b0576101008083540402835291602001916102d9565b820191905f5260205f20905b8154815290600101906020018083116102bc57829003601f168201915b505050505081565b60015481565b600280546102f49061074b565b80601f01602080910402602001604051908101604052809291908181526020018280546103209061074b565b801561036b5780601f106103425761010080835404028352916020019161036b565b820191905f5260205f20905b81548152906001019060200180831161034e57829003601f168201915b505050505081565b600580546103809061074b565b80601f01602080910402602001604051908101604052809291908181526020018280546103ac9061074b565b80156103f75780601f106103ce576101008083540402835291602001916103f7565b820191905f5260205f20905b8154815290600101906020018083116103da57829003601f168201915b505050505081565b5f81519050919050565b5f82825260208201905092915050565b8281835e5f83830152505050565b5f601f19601f8301169050919050565b5f610441826103ff565b61044b8185610409565b935061045b818560208601610419565b61046481610427565b840191505092915050565b5f6020820190508181035f8301526104878184610437565b905092915050565b5f819050919050565b6104a18161048f565b82525050565b5f6020820190506104ba5f830184610498565b92915050565b5f604051905090565b5f5ffd5b5f5ffd5b6104da8161048f565b81146104e4575f5ffd5b50565b5f813590506104f5816104d1565b92915050565b5f602082840312156105105761050f6104c9565b5b5f61051d848285016104e7565b91505092915050565b5f5ffd5b5f5ffd5b7f4e487b71000000000000000000000000000000000000000000000000000000005f52604160045260245ffd5b61056482610427565b810181811067ffffffffffffffff821117156105835761058261052e565b5b80604052505050565b5f6105956104c0565b90506105a1828261055b565b919050565b5f67ffffffffffffffff8211156105c0576105bf61052e565b5b6105c982610427565b9050602081019050919050565b828183375f83830152505050565b5f6105f66105f1846105a6565b61058c565b9050828152602081018484840111156106125761061161052a565b5b61061d8482856105d6565b509392505050565b5f82601f83011261063957610638610526565b5b81356106498482602086016105e4565b91505092915050565b5f5f60408385031215610668576106676104c9565b5b5f83013567ffffffffffffffff811115610685576106846104cd565b5b61069185828601610625565b92505060206106a2858286016104e7565b9150509250929050565b5f81519050919050565b5f82825260208201905092915050565b5f6106d0826106ac565b6106da81856106b6565b93506106ea818560208601610419565b6106f381610427565b840191505092915050565b5f6020820190508181035f83015261071681846106c6565b905092915050565b7f4e487b71000000000000000000000000000000000000000000000000000000005f52602260045260245ffd5b5f600282049050600182168061076257607f821691505b6020821081036107755761077461071e565b5b50919050565b5f819050815f5260205f209050919050565b5f6020601f8301049050919050565b5f82821b905092915050565b5f600883026107d77fffffffffffffffffffffffffffffffffffffffffffffffffffffffffffffffff8261079c565b6107e1868361079c565b95508019841693508086168417925050509392505050565b5f819050919050565b5f61081c6108176108128461048f565b6107f9565b61048f565b9050919050565b5f819050919050565b61083583610802565b61084961084182610823565b8484546107a8565b825550505050565b5f5f905090565b610860610851565b61086b81848461082c565b505050565b5b8181101561088e576108835f82610858565b600181019050610871565b5050565b601f8211156108d3576108a48161077b565b6108ad8461078d565b810160208510156108bc578190505b6108d06108c88561078d565b830182610870565b50505b505050565b5f82821c905092915050565b5f6108f35f19846008026108d8565b1980831691505092915050565b5f61090b83836108e4565b9150826002028217905092915050565b610924826106ac565b67ffffffffffffffff81111561093d5761093c61052e565b5b610947825461074b565b610952828285610892565b5f60209050601f831160018114610983575f8415610971578287015190505b61097b8582610900565b8655506109e2565b601f1984166109918661077b565b5f5b828110156109b857848901518255600182019150602085019450602081019050610993565b868310156109d557848901516109d1601f8916826108e4565b8355505b6001600288020188555050505b50505050505056fea2646970667358221220a2c88c1fb6b03aeea78ab9cf81af81b0751585824b6d49a95d16c09791752d7564736f6c634300081e0033",
					"opcodes": "PUSH1 0x80 PUSH1 0x40 MSTORE PUSH1 0x40 MLOAD DUP1 PUSH1 0x40 ADD PUSH1 0x40 MSTORE DUP1 PUSH1 0x13 DUP2 MSTORE PUSH1 0x20 ADD PUSH32 0x48656C6C6F20576F726C642064656661756C7400000000000000000000000000 DUP2 MSTORE POP PUSH1 0x2 SWAP1 DUP2 PUSH2 0x48 SWAP2 SWAP1 PUSH2 0x32B JUMP JUMPDEST POP PUSH1 0x5 PUSH1 0x3 SSTORE PUSH1 0x40 MLOAD DUP1 PUSH1 0x40 ADD PUSH1 0x40 MSTORE DUP1 PUSH1 0xB DUP2 MSTORE PUSH1 0x20 ADD PUSH32 0x766976656B207261776174000000000000000000000000000000000000000000 DUP2 MSTORE POP PUSH1 0x4 SWAP1 DUP2 PUSH2 0x92 SWAP2 SWAP1 PUSH2 0x452 JUMP JUMPDEST POP CALLVALUE DUP1 ISZERO PUSH2 0x9E JUMPI PUSH0 PUSH0 REVERT JUMPDEST POP PUSH1 0x40 MLOAD PUSH2 0x11FE CODESIZE SUB DUP1 PUSH2 0x11FE DUP4 CODECOPY DUP2 DUP2 ADD PUSH1 0x40 MSTORE DUP2 ADD SWAP1 PUSH2 0xC0 SWAP2 SWAP1 PUSH2 0x66B JUMP JUMPDEST DUP2 PUSH0 SWAP1 DUP2 PUSH2 0xCE SWAP2 SWAP1 PUSH2 0x32B JUMP JUMPDEST POP DUP1 PUSH1 0x1 DUP2 SWAP1 SSTORE POP PUSH1 0x4 PUSH1 0x5 SWAP1 DUP2 PUSH2 0xE6 SWAP2 SWAP1 PUSH2 0x6EC JUMP JUMPDEST POP POP POP PUSH2 0x7D1 JUMP JUMPDEST PUSH0 DUP2 MLOAD SWAP1 POP SWAP2 SWAP1 POP JUMP JUMPDEST PUSH32 0x4E487B7100000000000000000000000000000000000000000000000000000000 PUSH0 MSTORE PUSH1 0x41 PUSH1 0x4 MSTORE PUSH1 0x24 PUSH0 REVERT JUMPDEST PUSH32 0x4E487B7100000000000000000000000000000000000000000000000000000000 PUSH0 MSTORE PUSH1 0x22 PUSH1 0x4 MSTORE PUSH1 0x24 PUSH0 REVERT JUMPDEST PUSH0 PUSH1 0x2 DUP3 DIV SWAP1 POP PUSH1 0x1 DUP3 AND DUP1 PUSH2 0x169 JUMPI PUSH1 0x7F DUP3 AND SWAP2 POP JUMPDEST PUSH1 0x20 DUP3 LT DUP2 SUB PUSH2 0x17C JUMPI PUSH2 0x17B PUSH2 0x125 JUMP JUMPDEST JUMPDEST POP SWAP2 SWAP1 POP JUMP JUMPDEST PUSH0 DUP2 SWAP1 POP DUP2 PUSH0 MSTORE PUSH1 0x20 PUSH0 KECCAK256 SWAP1 POP SWAP2 SWAP1 POP JUMP JUMPDEST PUSH0 PUSH1 0x20 PUSH1 0x1F DUP4 ADD DIV SWAP1 POP SWAP2 SWAP1 POP JUMP JUMPDEST PUSH0 DUP3 DUP3 SHL SWAP1 POP SWAP3 SWAP2 POP POP JUMP JUMPDEST PUSH0 PUSH1 0x8 DUP4 MUL PUSH2 0x1DE PUSH32 0xFFFFFFFFFFFFFFFFFFFFFFFFFFFFFFFFFFFFFFFFFFFFFFFFFFFFFFFFFFFFFFFF DUP3 PUSH2 0x1A3 JUMP JUMPDEST PUSH2 0x1E8 DUP7 DUP4 PUSH2 0x1A3 JUMP JUMPDEST SWAP6 POP DUP1 NOT DUP5 AND SWAP4 POP DUP1 DUP7 AND DUP5 OR SWAP3 POP POP POP SWAP4 SWAP3 POP POP POP JUMP JUMPDEST PUSH0 DUP2 SWAP1 POP SWAP2 SWAP1 POP JUMP JUMPDEST PUSH0 DUP2 SWAP1 POP SWAP2 SWAP1 POP JUMP JUMPDEST PUSH0 PUSH2 0x22C PUSH2 0x227 PUSH2 0x222 DUP5 PUSH2 0x200 JUMP JUMPDEST PUSH2 0x209 JUMP JUMPDEST PUSH2 0x200 JUMP JUMPDEST SWAP1 POP SWAP2 SWAP1 POP JUMP JUMPDEST PUSH0 DUP2 SWAP1 POP SWAP2 SWAP1 POP JUMP JUMPDEST PUSH2 0x245 DUP4 PUSH2 0x212 JUMP JUMPDEST PUSH2 0x259 PUSH2 0x251 DUP3 PUSH2 0x233 JUMP JUMPDEST DUP5 DUP5 SLOAD PUSH2 0x1AF JUMP JUMPDEST DUP3 SSTORE POP POP POP POP JUMP JUMPDEST PUSH0 PUSH0 SWAP1 POP SWAP1 JUMP JUMPDEST PUSH2 0x270 PUSH2 0x261 JUMP JUMPDEST PUSH2 0x27B DUP2 DUP5 DUP5 PUSH2 0x23C JUMP JUMPDEST POP POP POP JUMP JUMPDEST JUMPDEST DUP2 DUP2 LT ISZERO PUSH2 0x29E JUMPI PUSH2 0x293 PUSH0 DUP3 PUSH2 0x268 JUMP JUMPDEST PUSH1 0x1 DUP2 ADD SWAP1 POP PUSH2 0x281 JUMP JUMPDEST POP POP JUMP JUMPDEST PUSH1 0x1F DUP3 GT ISZERO PUSH2 0x2E3 JUMPI PUSH2 0x2B4 DUP2 PUSH2 0x182 JUMP JUMPDEST PUSH2 0x2BD DUP5 PUSH2 0x194 JUMP JUMPDEST DUP2 ADD PUSH1 0x20 DUP6 LT ISZERO PUSH2 0x2CC JUMPI DUP2 SWAP1 POP JUMPDEST PUSH2 0x2E0 PUSH2 0x2D8 DUP6 PUSH2 0x194 JUMP JUMPDEST DUP4 ADD DUP3 PUSH2 0x280 JUMP JUMPDEST POP POP JUMPDEST POP POP POP JUMP JUMPDEST PUSH0 DUP3 DUP3 SHR SWAP1 POP SWAP3 SWAP2 POP POP JUMP JUMPDEST PUSH0 PUSH2 0x303 PUSH0 NOT DUP5 PUSH1 0x8 MUL PUSH2 0x2E8 JUMP JUMPDEST NOT DUP1 DUP4 AND SWAP2 POP POP SWAP3 SWAP2 POP POP JUMP JUMPDEST PUSH0 PUSH2 0x31B DUP4 DUP4 PUSH2 0x2F4 JUMP JUMPDEST SWAP2 POP DUP3 PUSH1 0x2 MUL DUP3 OR SWAP1 POP SWAP3 SWAP2 POP POP JUMP JUMPDEST PUSH2 0x334 DUP3 PUSH2 0xEE JUMP JUMPDEST PUSH8 0xFFFFFFFFFFFFFFFF DUP2 GT ISZERO PUSH2 0x34D JUMPI PUSH2 0x34C PUSH2 0xF8 JUMP JUMPDEST JUMPDEST PUSH2 0x357 DUP3 SLOAD PUSH2 0x152 JUMP JUMPDEST PUSH2 0x362 DUP3 DUP3 DUP6 PUSH2 0x2A2 JUMP JUMPDEST PUSH0 PUSH1 0x20 SWAP1 POP PUSH1 0x1F DUP4 GT PUSH1 0x1 DUP2 EQ PUSH2 0x393 JUMPI PUSH0 DUP5 ISZERO PUSH2 0x381 JUMPI DUP3 DUP8 ADD MLOAD SWAP1 POP JUMPDEST PUSH2 0x38B DUP6 DUP3 PUSH2 0x310 JUMP JUMPDEST DUP7 SSTORE POP PUSH2 0x3F2 JUMP JUMPDEST PUSH1 0x1F NOT DUP5 AND PUSH2 0x3A1 DUP7 PUSH2 0x182 JUMP JUMPDEST PUSH0 JUMPDEST DUP3 DUP2 LT ISZERO PUSH2 0x3C8 JUMPI DUP5 DUP10 ADD MLOAD DUP3 SSTORE PUSH1 0x1 DUP3 ADD SWAP2 POP PUSH1 0x20 DUP6 ADD SWAP5 POP PUSH1 0x20 DUP2 ADD SWAP1 POP PUSH2 0x3A3 JUMP JUMPDEST DUP7 DUP4 LT ISZERO PUSH2 0x3E5 JUMPI DUP5 DUP10 ADD MLOAD PUSH2 0x3E1 PUSH1 0x1F DUP10 AND DUP3 PUSH2 0x2F4 JUMP JUMPDEST DUP4 SSTORE POP JUMPDEST PUSH1 0x1 PUSH1 0x2 DUP9 MUL ADD DUP9 SSTORE POP POP POP JUMPDEST POP POP POP POP POP POP JUMP JUMPDEST PUSH0 DUP2 SWAP1 POP DUP2 PUSH0 MSTORE PUSH1 0x20 PUSH0 KECCAK256 SWAP1 POP SWAP2 SWAP1 POP JUMP JUMPDEST PUSH1 0x1F DUP3 GT ISZERO PUSH2 0x44D JUMPI PUSH2 0x41E DUP2 PUSH2 0x3FA JUMP JUMPDEST PUSH2 0x427 DUP5 PUSH2 0x194 JUMP JUMPDEST DUP2 ADD PUSH1 0x20 DUP6 LT ISZERO PUSH2 0x436 JUMPI DUP2 SWAP1 POP JUMPDEST PUSH2 0x44A PUSH2 0x442 DUP6 PUSH2 0x194 JUMP JUMPDEST DUP4 ADD DUP3 PUSH2 0x280 JUMP JUMPDEST POP POP JUMPDEST POP POP POP JUMP JUMPDEST PUSH2 0x45B DUP3 PUSH2 0xEE JUMP JUMPDEST PUSH8 0xFFFFFFFFFFFFFFFF DUP2 GT ISZERO PUSH2 0x474 JUMPI PUSH2 0x473 PUSH2 0xF8 JUMP JUMPDEST JUMPDEST PUSH2 0x47E DUP3 SLOAD PUSH2 0x152 JUMP JUMPDEST PUSH2 0x489 DUP3 DUP3 DUP6 PUSH2 0x40C JUMP JUMPDEST PUSH0 PUSH1 0x20 SWAP1 POP PUSH1 0x1F DUP4 GT PUSH1 0x1 DUP2 EQ PUSH2 0x4BA JUMPI PUSH0 DUP5 ISZERO PUSH2 0x4A8 JUMPI DUP3 DUP8 ADD MLOAD SWAP1 POP JUMPDEST PUSH2 0x4B2 DUP6 DUP3 PUSH2 0x310 JUMP JUMPDEST DUP7 SSTORE POP PUSH2 0x519 JUMP JUMPDEST PUSH1 0x1F NOT DUP5 AND PUSH2 0x4C8 DUP7 PUSH2 0x3FA JUMP JUMPDEST PUSH0 JUMPDEST DUP3 DUP2 LT ISZERO PUSH2 0x4EF JUMPI DUP5 DUP10 ADD MLOAD DUP3 SSTORE PUSH1 0x1 DUP3 ADD SWAP2 POP PUSH1 0x20 DUP6 ADD SWAP5 POP PUSH1 0x20 DUP2 ADD SWAP1 POP PUSH2 0x4CA JUMP JUMPDEST DUP7 DUP4 LT ISZERO PUSH2 0x50C JUMPI DUP5 DUP10 ADD MLOAD PUSH2 0x508 PUSH1 0x1F DUP10 AND DUP3 PUSH2 0x2F4 JUMP JUMPDEST DUP4 SSTORE POP JUMPDEST PUSH1 0x1 PUSH1 0x2 DUP9 MUL ADD DUP9 SSTORE POP POP POP JUMPDEST POP POP POP POP POP POP JUMP JUMPDEST PUSH0 PUSH1 0x40 MLOAD SWAP1 POP SWAP1 JUMP JUMPDEST PUSH0 PUSH0 REVERT JUMPDEST PUSH0 PUSH0 REVERT JUMPDEST PUSH0 PUSH0 REVERT JUMPDEST PUSH0 PUSH0 REVERT JUMPDEST PUSH0 PUSH1 0x1F NOT PUSH1 0x1F DUP4 ADD AND SWAP1 POP SWAP2 SWAP1 POP JUMP JUMPDEST PUSH2 0x553 DUP3 PUSH2 0x53A JUMP JUMPDEST DUP2 ADD DUP2 DUP2 LT PUSH8 0xFFFFFFFFFFFFFFFF DUP3 GT OR ISZERO PUSH2 0x572 JUMPI PUSH2 0x571 PUSH2 0xF8 JUMP JUMPDEST JUMPDEST DUP1 PUSH1 0x40 MSTORE POP POP POP JUMP JUMPDEST PUSH0 PUSH2 0x584 PUSH2 0x521 JUMP JUMPDEST SWAP1 POP PUSH2 0x590 DUP3 DUP3 PUSH2 0x54A JUMP JUMPDEST SWAP2 SWAP1 POP JUMP JUMPDEST PUSH0 PUSH8 0xFFFFFFFFFFFFFFFF DUP3 GT ISZERO PUSH2 0x5AF JUMPI PUSH2 0x5AE PUSH2 0xF8 JUMP JUMPDEST JUMPDEST PUSH2 0x5B8 DUP3 PUSH2 0x53A JUMP JUMPDEST SWAP1 POP PUSH1 0x20 DUP2 ADD SWAP1 POP SWAP2 SWAP1 POP JUMP JUMPDEST DUP3 DUP2 DUP4 MCOPY PUSH0 DUP4 DUP4 ADD MSTORE POP POP POP JUMP JUMPDEST PUSH0 PUSH2 0x5E5 PUSH2 0x5E0 DUP5 PUSH2 0x595 JUMP JUMPDEST PUSH2 0x57B JUMP JUMPDEST SWAP1 POP DUP3 DUP2 MSTORE PUSH1 0x20 DUP2 ADD DUP5 DUP5 DUP5 ADD GT ISZERO PUSH2 0x601 JUMPI PUSH2 0x600 PUSH2 0x536 JUMP JUMPDEST JUMPDEST PUSH2 0x60C DUP5 DUP3 DUP6 PUSH2 0x5C5 JUMP JUMPDEST POP SWAP4 SWAP3 POP POP POP JUMP JUMPDEST PUSH0 DUP3 PUSH1 0x1F DUP4 ADD SLT PUSH2 0x628 JUMPI PUSH2 0x627 PUSH2 0x532 JUMP JUMPDEST JUMPDEST DUP2 MLOAD PUSH2 0x638 DUP5 DUP3 PUSH1 0x20 DUP7 ADD PUSH2 0x5D3 JUMP JUMPDEST SWAP2 POP POP SWAP3 SWAP2 POP POP JUMP JUMPDEST PUSH2 0x64A DUP2 PUSH2 0x200 JUMP JUMPDEST DUP2 EQ PUSH2 0x654 JUMPI PUSH0 PUSH0 REVERT JUMPDEST POP JUMP JUMPDEST PUSH0 DUP2 MLOAD SWAP1 POP PUSH2 0x665 DUP2 PUSH2 0x641 JUMP JUMPDEST SWAP3 SWAP2 POP POP JUMP JUMPDEST PUSH0 PUSH0 PUSH1 0x40 DUP4 DUP6 SUB SLT ISZERO PUSH2 0x681 JUMPI PUSH2 0x680 PUSH2 0x52A JUMP JUMPDEST JUMPDEST PUSH0 DUP4 ADD MLOAD PUSH8 0xFFFFFFFFFFFFFFFF DUP2 GT ISZERO PUSH2 0x69E JUMPI PUSH2 0x69D PUSH2 0x52E JUMP JUMPDEST JUMPDEST PUSH2 0x6AA DUP6 DUP3 DUP7 ADD PUSH2 0x614 JUMP JUMPDEST SWAP3 POP POP PUSH1 0x20 PUSH2 0x6BB DUP6 DUP3 DUP7 ADD PUSH2 0x657 JUMP JUMPDEST SWAP2 POP POP SWAP3 POP SWAP3 SWAP1 POP JUMP JUMPDEST PUSH0 DUP2 SLOAD SWAP1 POP PUSH2 0x6D3 DUP2 PUSH2 0x152 JUMP JUMPDEST SWAP1 POP SWAP2 SWAP1 POP JUMP JUMPDEST PUSH0 DUP2 SWAP1 POP DUP2 PUSH0 MSTORE PUSH1 0x20 PUSH0 KECCAK256 SWAP1 POP SWAP2 SWAP1 POP JUMP JUMPDEST DUP2 DUP2 SUB PUSH2 0x6FA JUMPI POP POP PUSH2 0x7CF JUMP JUMPDEST PUSH2 0x703 DUP3 PUSH2 0x6C5 JUMP JUMPDEST PUSH8 0xFFFFFFFFFFFFFFFF DUP2 GT ISZERO PUSH2 0x71C JUMPI PUSH2 0x71B PUSH2 0xF8 JUMP JUMPDEST JUMPDEST PUSH2 0x726 DUP3 SLOAD PUSH2 0x152 JUMP JUMPDEST PUSH2 0x731 DUP3 DUP3 DUP6 PUSH2 0x40C JUMP JUMPDEST PUSH0 PUSH1 0x1F DUP4 GT PUSH1 0x1 DUP2 EQ PUSH2 0x75E JUMPI PUSH0 DUP5 ISZERO PUSH2 0x74C JUMPI DUP3 DUP8 ADD SLOAD SWAP1 POP JUMPDEST PUSH2 0x756 DUP6 DUP3 PUSH2 0x310 JUMP JUMPDEST DUP7 SSTORE POP PUSH2 0x7C8 JUMP JUMPDEST PUSH1 0x1F NOT DUP5 AND PUSH2 0x76C DUP8 PUSH2 0x6DA JUMP JUMPDEST SWAP7 POP PUSH2 0x777 DUP7 PUSH2 0x3FA JUMP JUMPDEST PUSH0 JUMPDEST DUP3 DUP2 LT ISZERO PUSH2 0x79E JUMPI DUP5 DUP10 ADD SLOAD DUP3 SSTORE PUSH1 0x1 DUP3 ADD SWAP2 POP PUSH1 0x1 DUP6 ADD SWAP5 POP PUSH1 0x20 DUP2 ADD SWAP1 POP PUSH2 0x779 JUMP JUMPDEST DUP7 DUP4 LT ISZERO PUSH2 0x7BB JUMPI DUP5 DUP10 ADD SLOAD PUSH2 0x7B7 PUSH1 0x1F DUP10 AND DUP3 PUSH2 0x2F4 JUMP JUMPDEST DUP4 SSTORE POP JUMPDEST PUSH1 0x1 PUSH1 0x2 DUP9 MUL ADD DUP9 SSTORE POP POP POP JUMPDEST POP POP POP POP POP POP JUMPDEST JUMP JUMPDEST PUSH2 0xA20 DUP1 PUSH2 0x7DE PUSH0 CODECOPY PUSH0 RETURN INVALID PUSH1 0x80 PUSH1 0x40 MSTORE CALLVALUE DUP1 ISZERO PUSH2 0xF JUMPI PUSH0 PUSH0 REVERT JUMPDEST POP PUSH1 0x4 CALLDATASIZE LT PUSH2 0x86 JUMPI PUSH0 CALLDATALOAD PUSH1 0xE0 SHR DUP1 PUSH4 0xD01C8E73 GT PUSH2 0x59 JUMPI DUP1 PUSH4 0xD01C8E73 EQ PUSH2 0x112 JUMPI DUP1 PUSH4 0xD4DA005A EQ PUSH2 0x130 JUMPI DUP1 PUSH4 0xDE4B3A73 EQ PUSH2 0x14E JUMPI DUP1 PUSH4 0xFCE4F4F3 EQ PUSH2 0x16C JUMPI PUSH2 0x86 JUMP JUMPDEST DUP1 PUSH4 0x98181B7 EQ PUSH2 0x8A JUMPI DUP1 PUSH4 0xC8AE01F EQ PUSH2 0xA8 JUMPI DUP1 PUSH4 0x4011DB97 EQ PUSH2 0xC6 JUMPI DUP1 PUSH4 0x4EE5C2EE EQ PUSH2 0xF6 JUMPI JUMPDEST PUSH0 PUSH0 REVERT JUMPDEST PUSH2 0x92 PUSH2 0x18A JUMP JUMPDEST PUSH1 0x40 MLOAD PUSH2 0x9F SWAP2 SWAP1 PUSH2 0x46F JUMP JUMPDEST PUSH1 0x40 MLOAD DUP1 SWAP2 SUB SWAP1 RETURN JUMPDEST PUSH2 0xB0 PUSH2 0x216 JUMP JUMPDEST PUSH1 0x40 MLOAD PUSH2 0xBD SWAP2 SWAP1 PUSH2 0x4A7 JUMP JUMPDEST PUSH1 0x40 MLOAD DUP1 SWAP2 SUB SWAP1 RETURN JUMPDEST PUSH2 0xE0 PUSH1 0x4 DUP1 CALLDATASIZE SUB DUP2 ADD SWAP1 PUSH2 0xDB SWAP2 SWAP1 PUSH2 0x4FB JUMP JUMPDEST PUSH2 0x21C JUMP JUMPDEST PUSH1 0x40 MLOAD PUSH2 0xED SWAP2 SWAP1 PUSH2 0x4A7 JUMP JUMPDEST PUSH1 0x40 MLOAD DUP1 SWAP2 SUB SWAP1 RETURN JUMPDEST PUSH2 0x110 PUSH1 0x4 DUP1 CALLDATASIZE SUB DUP2 ADD SWAP1 PUSH2 0x10B SWAP2 SWAP1 PUSH2 0x652 JUMP JUMPDEST PUSH2 0x23C JUMP JUMPDEST STOP JUMPDEST PUSH2 0x11A PUSH2 0x256 JUMP JUMPDEST PUSH1 0x40 MLOAD PUSH2 0x127 SWAP2 SWAP1 PUSH2 0x6FE JUMP JUMPDEST PUSH1 0x40 MLOAD DUP1 SWAP2 SUB SWAP1 RETURN JUMPDEST PUSH2 0x138 PUSH2 0x2E1 JUMP JUMPDEST PUSH1 0x40 MLOAD PUSH2 0x145 SWAP2 SWAP1 PUSH2 0x4A7 JUMP JUMPDEST PUSH1 0x40 MLOAD DUP1 SWAP2 SUB SWAP1 RETURN JUMPDEST PUSH2 0x156 PUSH2 0x2E7 JUMP JUMPDEST PUSH1 0x40 MLOAD PUSH2 0x163 SWAP2 SWAP1 PUSH2 0x6FE JUMP JUMPDEST PUSH1 0x40 MLOAD DUP1 SWAP2 SUB SWAP1 RETURN JUMPDEST PUSH2 0x174 PUSH2 0x373 JUMP JUMPDEST PUSH1 0x40 MLOAD PUSH2 0x181 SWAP2 SWAP1 PUSH2 0x46F JUMP JUMPDEST PUSH1 0x40 MLOAD DUP1 SWAP2 SUB SWAP1 RETURN JUMPDEST PUSH1 0x4 DUP1 SLOAD PUSH2 0x197 SWAP1 PUSH2 0x74B JUMP JUMPDEST DUP1 PUSH1 0x1F ADD PUSH1 0x20 DUP1 SWAP2 DIV MUL PUSH1 0x20 ADD PUSH1 0x40 MLOAD SWAP1 DUP2 ADD PUSH1 0x40 MSTORE DUP1 SWAP3 SWAP2 SWAP1 DUP2 DUP2 MSTORE PUSH1 0x20 ADD DUP3 DUP1 SLOAD PUSH2 0x1C3 SWAP1 PUSH2 0x74B JUMP JUMPDEST DUP1 ISZERO PUSH2 0x20E JUMPI DUP1 PUSH1 0x1F LT PUSH2 0x1E5 JUMPI PUSH2 0x100 DUP1 DUP4 SLOAD DIV MUL DUP4 MSTORE SWAP2 PUSH1 0x20 ADD SWAP2 PUSH2 0x20E JUMP JUMPDEST DUP3 ADD SWAP2 SWAP1 PUSH0 MSTORE PUSH1 0x20 PUSH0 KECCAK256 SWAP1 JUMPDEST DUP2 SLOAD DUP2 MSTORE SWAP1 PUSH1 0x1 ADD SWAP1 PUSH1 0x20 ADD DUP1 DUP4 GT PUSH2 0x1F1 JUMPI DUP3 SWAP1 SUB PUSH1 0x1F AND DUP3 ADD SWAP2 JUMPDEST POP POP POP POP POP DUP2 JUMP JUMPDEST PUSH1 0x3 SLOAD DUP2 JUMP JUMPDEST PUSH1 0x6 DUP2 DUP2 SLOAD DUP2 LT PUSH2 0x22B JUMPI PUSH0 DUP1 REVERT JUMPDEST SWAP1 PUSH0 MSTORE PUSH1 0x20 PUSH0 KECCAK256 ADD PUSH0 SWAP2 POP SWAP1 POP SLOAD DUP2 JUMP JUMPDEST DUP2 PUSH0 SWAP1 DUP2 PUSH2 0x24A SWAP2 SWAP1 PUSH2 0x91B JUMP JUMPDEST POP DUP1 PUSH1 0x1 DUP2 SWAP1 SSTORE POP POP POP JUMP JUMPDEST PUSH0 DUP1 SLOAD PUSH2 0x262 SWAP1 PUSH2 0x74B JUMP JUMPDEST DUP1 PUSH1 0x1F ADD PUSH1 0x20 DUP1 SWAP2 DIV MUL PUSH1 0x20 ADD PUSH1 0x40 MLOAD SWAP1 DUP2 ADD PUSH1 0x40 MSTORE DUP1 SWAP3 SWAP2 SWAP1 DUP2 DUP2 MSTORE PUSH1 0x20 ADD DUP3 DUP1 SLOAD PUSH2 0x28E SWAP1 PUSH2 0x74B JUMP JUMPDEST DUP1 ISZERO PUSH2 0x2D9 JUMPI DUP1 PUSH1 0x1F LT PUSH2 0x2B0 JUMPI PUSH2 0x100 DUP1 DUP4 SLOAD DIV MUL DUP4 MSTORE SWAP2 PUSH1 0x20 ADD SWAP2 PUSH2 0x2D9 JUMP JUMPDEST DUP3 ADD SWAP2 SWAP1 PUSH0 MSTORE PUSH1 0x20 PUSH0 KECCAK256 SWAP1 JUMPDEST DUP2 SLOAD DUP2 MSTORE SWAP1 PUSH1 0x1 ADD SWAP1 PUSH1 0x20 ADD DUP1 DUP4 GT PUSH2 0x2BC JUMPI DUP3 SWAP1 SUB PUSH1 0x1F AND DUP3 ADD SWAP2 JUMPDEST POP POP POP POP POP DUP2 JUMP JUMPDEST PUSH1 0x1 SLOAD DUP2 JUMP JUMPDEST PUSH1 0x2 DUP1 SLOAD PUSH2 0x2F4 SWAP1 PUSH2 0x74B JUMP JUMPDEST DUP1 PUSH1 0x1F ADD PUSH1 0x20 DUP1 SWAP2 DIV MUL PUSH1 0x20 ADD PUSH1 0x40 MLOAD SWAP1 DUP2 ADD PUSH1 0x40 MSTORE DUP1 SWAP3 SWAP2 SWAP1 DUP2 DUP2 MSTORE PUSH1 0x20 ADD DUP3 DUP1 SLOAD PUSH2 0x320 SWAP1 PUSH2 0x74B JUMP JUMPDEST DUP1 ISZERO PUSH2 0x36B JUMPI DUP1 PUSH1 0x1F LT PUSH2 0x342 JUMPI PUSH2 0x100 DUP1 DUP4 SLOAD DIV MUL DUP4 MSTORE SWAP2 PUSH1 0x20 ADD SWAP2 PUSH2 0x36B JUMP JUMPDEST DUP3 ADD SWAP2 SWAP1 PUSH0 MSTORE PUSH1 0x20 PUSH0 KECCAK256 SWAP1 JUMPDEST DUP2 SLOAD DUP2 MSTORE SWAP1 PUSH1 0x1 ADD SWAP1 PUSH1 0x20 ADD DUP1 DUP4 GT PUSH2 0x34E JUMPI DUP3 SWAP1 SUB PUSH1 0x1F AND DUP3 ADD SWAP2 JUMPDEST POP POP POP POP POP DUP2 JUMP JUMPDEST PUSH1 0x5 DUP1 SLOAD PUSH2 0x380 SWAP1 PUSH2 0x74B JUMP JUMPDEST DUP1 PUSH1 0x1F ADD PUSH1 0x20 DUP1 SWAP2 DIV MUL PUSH1 0x20 ADD PUSH1 0x40 MLOAD SWAP1 DUP2 ADD PUSH1 0x40 MSTORE DUP1 SWAP3 SWAP2 SWAP1 DUP2 DUP2 MSTORE PUSH1 0x20 ADD DUP3 DUP1 SLOAD PUSH2 0x3AC SWAP1 PUSH2 0x74B JUMP JUMPDEST DUP1 ISZERO PUSH2 0x3F7 JUMPI DUP1 PUSH1 0x1F LT PUSH2 0x3CE JUMPI PUSH2 0x100 DUP1 DUP4 SLOAD DIV MUL DUP4 MSTORE SWAP2 PUSH1 0x20 ADD SWAP2 PUSH2 0x3F7 JUMP JUMPDEST DUP3 ADD SWAP2 SWAP1 PUSH0 MSTORE PUSH1 0x20 PUSH0 KECCAK256 SWAP1 JUMPDEST DUP2 SLOAD DUP2 MSTORE SWAP1 PUSH1 0x1 ADD SWAP1 PUSH1 0x20 ADD DUP1 DUP4 GT PUSH2 0x3DA JUMPI DUP3 SWAP1 SUB PUSH1 0x1F AND DUP3 ADD SWAP2 JUMPDEST POP POP POP POP POP DUP2 JUMP JUMPDEST PUSH0 DUP2 MLOAD SWAP1 POP SWAP2 SWAP1 POP JUMP JUMPDEST PUSH0 DUP3 DUP3 MSTORE PUSH1 0x20 DUP3 ADD SWAP1 POP SWAP3 SWAP2 POP POP JUMP JUMPDEST DUP3 DUP2 DUP4 MCOPY PUSH0 DUP4 DUP4 ADD MSTORE POP POP POP JUMP JUMPDEST PUSH0 PUSH1 0x1F NOT PUSH1 0x1F DUP4 ADD AND SWAP1 POP SWAP2 SWAP1 POP JUMP JUMPDEST PUSH0 PUSH2 0x441 DUP3 PUSH2 0x3FF JUMP JUMPDEST PUSH2 0x44B DUP2 DUP6 PUSH2 0x409 JUMP JUMPDEST SWAP4 POP PUSH2 0x45B DUP2 DUP6 PUSH1 0x20 DUP7 ADD PUSH2 0x419 JUMP JUMPDEST PUSH2 0x464 DUP2 PUSH2 0x427 JUMP JUMPDEST DUP5 ADD SWAP2 POP POP SWAP3 SWAP2 POP POP JUMP JUMPDEST PUSH0 PUSH1 0x20 DUP3 ADD SWAP1 POP DUP2 DUP2 SUB PUSH0 DUP4 ADD MSTORE PUSH2 0x487 DUP2 DUP5 PUSH2 0x437 JUMP JUMPDEST SWAP1 POP SWAP3 SWAP2 POP POP JUMP JUMPDEST PUSH0 DUP2 SWAP1 POP SWAP2 SWAP1 POP JUMP JUMPDEST PUSH2 0x4A1 DUP2 PUSH2 0x48F JUMP JUMPDEST DUP3 MSTORE POP POP JUMP JUMPDEST PUSH0 PUSH1 0x20 DUP3 ADD SWAP1 POP PUSH2 0x4BA PUSH0 DUP4 ADD DUP5 PUSH2 0x498 JUMP JUMPDEST SWAP3 SWAP2 POP POP JUMP JUMPDEST PUSH0 PUSH1 0x40 MLOAD SWAP1 POP SWAP1 JUMP JUMPDEST PUSH0 PUSH0 REVERT JUMPDEST PUSH0 PUSH0 REVERT JUMPDEST PUSH2 0x4DA DUP2 PUSH2 0x48F JUMP JUMPDEST DUP2 EQ PUSH2 0x4E4 JUMPI PUSH0 PUSH0 REVERT JUMPDEST POP JUMP JUMPDEST PUSH0 DUP2 CALLDATALOAD SWAP1 POP PUSH2 0x4F5 DUP2 PUSH2 0x4D1 JUMP JUMPDEST SWAP3 SWAP2 POP POP JUMP JUMPDEST PUSH0 PUSH1 0x20 DUP3 DUP5 SUB SLT ISZERO PUSH2 0x510 JUMPI PUSH2 0x50F PUSH2 0x4C9 JUMP JUMPDEST JUMPDEST PUSH0 PUSH2 0x51D DUP5 DUP3 DUP6 ADD PUSH2 0x4E7 JUMP JUMPDEST SWAP2 POP POP SWAP3 SWAP2 POP POP JUMP JUMPDEST PUSH0 PUSH0 REVERT JUMPDEST PUSH0 PUSH0 REVERT JUMPDEST PUSH32 0x4E487B7100000000000000000000000000000000000000000000000000000000 PUSH0 MSTORE PUSH1 0x41 PUSH1 0x4 MSTORE PUSH1 0x24 PUSH0 REVERT JUMPDEST PUSH2 0x564 DUP3 PUSH2 0x427 JUMP JUMPDEST DUP2 ADD DUP2 DUP2 LT PUSH8 0xFFFFFFFFFFFFFFFF DUP3 GT OR ISZERO PUSH2 0x583 JUMPI PUSH2 0x582 PUSH2 0x52E JUMP JUMPDEST JUMPDEST DUP1 PUSH1 0x40 MSTORE POP POP POP JUMP JUMPDEST PUSH0 PUSH2 0x595 PUSH2 0x4C0 JUMP JUMPDEST SWAP1 POP PUSH2 0x5A1 DUP3 DUP3 PUSH2 0x55B JUMP JUMPDEST SWAP2 SWAP1 POP JUMP JUMPDEST PUSH0 PUSH8 0xFFFFFFFFFFFFFFFF DUP3 GT ISZERO PUSH2 0x5C0 JUMPI PUSH2 0x5BF PUSH2 0x52E JUMP JUMPDEST JUMPDEST PUSH2 0x5C9 DUP3 PUSH2 0x427 JUMP JUMPDEST SWAP1 POP PUSH1 0x20 DUP2 ADD SWAP1 POP SWAP2 SWAP1 POP JUMP JUMPDEST DUP3 DUP2 DUP4 CALLDATACOPY PUSH0 DUP4 DUP4 ADD MSTORE POP POP POP JUMP JUMPDEST PUSH0 PUSH2 0x5F6 PUSH2 0x5F1 DUP5 PUSH2 0x5A6 JUMP JUMPDEST PUSH2 0x58C JUMP JUMPDEST SWAP1 POP DUP3 DUP2 MSTORE PUSH1 0x20 DUP2 ADD DUP5 DUP5 DUP5 ADD GT ISZERO PUSH2 0x612 JUMPI PUSH2 0x611 PUSH2 0x52A JUMP JUMPDEST JUMPDEST PUSH2 0x61D DUP5 DUP3 DUP6 PUSH2 0x5D6 JUMP JUMPDEST POP SWAP4 SWAP3 POP POP POP JUMP JUMPDEST PUSH0 DUP3 PUSH1 0x1F DUP4 ADD SLT PUSH2 0x639 JUMPI PUSH2 0x638 PUSH2 0x526 JUMP JUMPDEST JUMPDEST DUP2 CALLDATALOAD PUSH2 0x649 DUP5 DUP3 PUSH1 0x20 DUP7 ADD PUSH2 0x5E4 JUMP JUMPDEST SWAP2 POP POP SWAP3 SWAP2 POP POP JUMP JUMPDEST PUSH0 PUSH0 PUSH1 0x40 DUP4 DUP6 SUB SLT ISZERO PUSH2 0x668 JUMPI PUSH2 0x667 PUSH2 0x4C9 JUMP JUMPDEST JUMPDEST PUSH0 DUP4 ADD CALLDATALOAD PUSH8 0xFFFFFFFFFFFFFFFF DUP2 GT ISZERO PUSH2 0x685 JUMPI PUSH2 0x684 PUSH2 0x4CD JUMP JUMPDEST JUMPDEST PUSH2 0x691 DUP6 DUP3 DUP7 ADD PUSH2 0x625 JUMP JUMPDEST SWAP3 POP POP PUSH1 0x20 PUSH2 0x6A2 DUP6 DUP3 DUP7 ADD PUSH2 0x4E7 JUMP JUMPDEST SWAP2 POP POP SWAP3 POP SWAP3 SWAP1 POP JUMP JUMPDEST PUSH0 DUP2 MLOAD SWAP1 POP SWAP2 SWAP1 POP JUMP JUMPDEST PUSH0 DUP3 DUP3 MSTORE PUSH1 0x20 DUP3 ADD SWAP1 POP SWAP3 SWAP2 POP POP JUMP JUMPDEST PUSH0 PUSH2 0x6D0 DUP3 PUSH2 0x6AC JUMP JUMPDEST PUSH2 0x6DA DUP2 DUP6 PUSH2 0x6B6 JUMP JUMPDEST SWAP4 POP PUSH2 0x6EA DUP2 DUP6 PUSH1 0x20 DUP7 ADD PUSH2 0x419 JUMP JUMPDEST PUSH2 0x6F3 DUP2 PUSH2 0x427 JUMP JUMPDEST DUP5 ADD SWAP2 POP POP SWAP3 SWAP2 POP POP JUMP JUMPDEST PUSH0 PUSH1 0x20 DUP3 ADD SWAP1 POP DUP2 DUP2 SUB PUSH0 DUP4 ADD MSTORE PUSH2 0x716 DUP2 DUP5 PUSH2 0x6C6 JUMP JUMPDEST SWAP1 POP SWAP3 SWAP2 POP POP JUMP JUMPDEST PUSH32 0x4E487B7100000000000000000000000000000000000000000000000000000000 PUSH0 MSTORE PUSH1 0x22 PUSH1 0x4 MSTORE PUSH1 0x24 PUSH0 REVERT JUMPDEST PUSH0 PUSH1 0x2 DUP3 DIV SWAP1 POP PUSH1 0x1 DUP3 AND DUP1 PUSH2 0x762 JUMPI PUSH1 0x7F DUP3 AND SWAP2 POP JUMPDEST PUSH1 0x20 DUP3 LT DUP2 SUB PUSH2 0x775 JUMPI PUSH2 0x774 PUSH2 0x71E JUMP JUMPDEST JUMPDEST POP SWAP2 SWAP1 POP JUMP JUMPDEST PUSH0 DUP2 SWAP1 POP DUP2 PUSH0 MSTORE PUSH1 0x20 PUSH0 KECCAK256 SWAP1 POP SWAP2 SWAP1 POP JUMP JUMPDEST PUSH0 PUSH1 0x20 PUSH1 0x1F DUP4 ADD DIV SWAP1 POP SWAP2 SWAP1 POP JUMP JUMPDEST PUSH0 DUP3 DUP3 SHL SWAP1 POP SWAP3 SWAP2 POP POP JUMP JUMPDEST PUSH0 PUSH1 0x8 DUP4 MUL PUSH2 0x7D7 PUSH32 0xFFFFFFFFFFFFFFFFFFFFFFFFFFFFFFFFFFFFFFFFFFFFFFFFFFFFFFFFFFFFFFFF DUP3 PUSH2 0x79C JUMP JUMPDEST PUSH2 0x7E1 DUP7 DUP4 PUSH2 0x79C JUMP JUMPDEST SWAP6 POP DUP1 NOT DUP5 AND SWAP4 POP DUP1 DUP7 AND DUP5 OR SWAP3 POP POP POP SWAP4 SWAP3 POP POP POP JUMP JUMPDEST PUSH0 DUP2 SWAP1 POP SWAP2 SWAP1 POP JUMP JUMPDEST PUSH0 PUSH2 0x81C PUSH2 0x817 PUSH2 0x812 DUP5 PUSH2 0x48F JUMP JUMPDEST PUSH2 0x7F9 JUMP JUMPDEST PUSH2 0x48F JUMP JUMPDEST SWAP1 POP SWAP2 SWAP1 POP JUMP JUMPDEST PUSH0 DUP2 SWAP1 POP SWAP2 SWAP1 POP JUMP JUMPDEST PUSH2 0x835 DUP4 PUSH2 0x802 JUMP JUMPDEST PUSH2 0x849 PUSH2 0x841 DUP3 PUSH2 0x823 JUMP JUMPDEST DUP5 DUP5 SLOAD PUSH2 0x7A8 JUMP JUMPDEST DUP3 SSTORE POP POP POP POP JUMP JUMPDEST PUSH0 PUSH0 SWAP1 POP SWAP1 JUMP JUMPDEST PUSH2 0x860 PUSH2 0x851 JUMP JUMPDEST PUSH2 0x86B DUP2 DUP5 DUP5 PUSH2 0x82C JUMP JUMPDEST POP POP POP JUMP JUMPDEST JUMPDEST DUP2 DUP2 LT ISZERO PUSH2 0x88E JUMPI PUSH2 0x883 PUSH0 DUP3 PUSH2 0x858 JUMP JUMPDEST PUSH1 0x1 DUP2 ADD SWAP1 POP PUSH2 0x871 JUMP JUMPDEST POP POP JUMP JUMPDEST PUSH1 0x1F DUP3 GT ISZERO PUSH2 0x8D3 JUMPI PUSH2 0x8A4 DUP2 PUSH2 0x77B JUMP JUMPDEST PUSH2 0x8AD DUP5 PUSH2 0x78D JUMP JUMPDEST DUP2 ADD PUSH1 0x20 DUP6 LT ISZERO PUSH2 0x8BC JUMPI DUP2 SWAP1 POP JUMPDEST PUSH2 0x8D0 PUSH2 0x8C8 DUP6 PUSH2 0x78D JUMP JUMPDEST DUP4 ADD DUP3 PUSH2 0x870 JUMP JUMPDEST POP POP JUMPDEST POP POP POP JUMP JUMPDEST PUSH0 DUP3 DUP3 SHR SWAP1 POP SWAP3 SWAP2 POP POP JUMP JUMPDEST PUSH0 PUSH2 0x8F3 PUSH0 NOT DUP5 PUSH1 0x8 MUL PUSH2 0x8D8 JUMP JUMPDEST NOT DUP1 DUP4 AND SWAP2 POP POP SWAP3 SWAP2 POP POP JUMP JUMPDEST PUSH0 PUSH2 0x90B DUP4 DUP4 PUSH2 0x8E4 JUMP JUMPDEST SWAP2 POP DUP3 PUSH1 0x2 MUL DUP3 OR SWAP1 POP SWAP3 SWAP2 POP POP JUMP JUMPDEST PUSH2 0x924 DUP3 PUSH2 0x6AC JUMP JUMPDEST PUSH8 0xFFFFFFFFFFFFFFFF DUP2 GT ISZERO PUSH2 0x93D JUMPI PUSH2 0x93C PUSH2 0x52E JUMP JUMPDEST JUMPDEST PUSH2 0x947 DUP3 SLOAD PUSH2 0x74B JUMP JUMPDEST PUSH2 0x952 DUP3 DUP3 DUP6 PUSH2 0x892 JUMP JUMPDEST PUSH0 PUSH1 0x20 SWAP1 POP PUSH1 0x1F DUP4 GT PUSH1 0x1 DUP2 EQ PUSH2 0x983 JUMPI PUSH0 DUP5 ISZERO PUSH2 0x971 JUMPI DUP3 DUP8 ADD MLOAD SWAP1 POP JUMPDEST PUSH2 0x97B DUP6 DUP3 PUSH2 0x900 JUMP JUMPDEST DUP7 SSTORE POP PUSH2 0x9E2 JUMP JUMPDEST PUSH1 0x1F NOT DUP5 AND PUSH2 0x991 DUP7 PUSH2 0x77B JUMP JUMPDEST PUSH0 JUMPDEST DUP3 DUP2 LT ISZERO PUSH2 0x9B8 JUMPI DUP5 DUP10 ADD MLOAD DUP3 SSTORE PUSH1 0x1 DUP3 ADD SWAP2 POP PUSH1 0x20 DUP6 ADD SWAP5 POP PUSH1 0x20 DUP2 ADD SWAP1 POP PUSH2 0x993 JUMP JUMPDEST DUP7 DUP4 LT ISZERO PUSH2 0x9D5 JUMPI DUP5 DUP10 ADD MLOAD PUSH2 0x9D1 PUSH1 0x1F DUP10 AND DUP3 PUSH2 0x8E4 JUMP JUMPDEST DUP4 SSTORE POP JUMPDEST PUSH1 0x1 PUSH1 0x2 DUP9 MUL ADD DUP9 SSTORE POP POP POP JUMPDEST POP POP POP POP POP POP JUMP INVALID LOG2 PUSH5 0x6970667358 0x22 SLT KECCAK256 LOG2 0xC8 DUP13 0x1F 0xB6 0xB0 GASPRICE RETURNCONTRACT 0xA7 DUP11 0xB9 0xCF DUP2 0xAF DUP2 0xB0 PUSH22 0x1585824B6D49A95D16C09791752D7564736F6C634300 ADDMOD 0x1E STOP CALLER "
				},
				"gasEstimates": {
					"creation": {
						"codeDepositCost": "518400",
						"executionCost": "infinite",
						"totalCost": "infinite"
					},
					"external": {
						"defaultNum()": "2448",
						"defaultText()": "infinite",
						"defaultbytes()": "infinite",
						"defaultbytesNo()": "infinite",
						"myNuber(uint256)": "infinite",
						"myNum()": "2447",
						"mystate()": "infinite",
						"update(string,uint256)": "infinite"
					}
				},
				"methodIdentifiers": {
					"defaultNum()": "0c8ae01f",
					"defaultText()": "de4b3a73",
					"defaultbytes()": "098181b7",
					"defaultbytesNo()": "fce4f4f3",
					"myNuber(uint256)": "4011db97",
					"myNum()": "d4da005a",
					"mystate()": "d01c8e73",
					"update(string,uint256)": "4ee5c2ee"
				}
			},
			"storageLayout": {
				"storage": [
					{
						"astId": 3,
						"contract": "contracts/stateVariable.sol:StateVariables",
						"label": "mystate",
						"offset": 0,
						"slot": "0",
						"type": "t_string_storage"
					},
					{
						"astId": 5,
						"contract": "contracts/stateVariable.sol:StateVariables",
						"label": "myNum",
						"offset": 0,
						"slot": "1",
						"type": "t_uint256"
					},
					{
						"astId": 8,
						"contract": "contracts/stateVariable.sol:StateVariables",
						"label": "defaultText",
						"offset": 0,
						"slot": "2",
						"type": "t_string_storage"
					},
					{
						"astId": 11,
						"contract": "contracts/stateVariable.sol:StateVariables",
						"label": "defaultNum",
						"offset": 0,
						"slot": "3",
						"type": "t_uint256"
					},
					{
						"astId": 14,
						"contract": "contracts/stateVariable.sol:StateVariables",
						"label": "defaultbytes",
						"offset": 0,
						"slot": "4",
						"type": "t_bytes_storage"
					},
					{
						"astId": 16,
						"contract": "contracts/stateVariable.sol:StateVariables",
						"label": "defaultbytesNo",
						"offset": 0,
						"slot": "5",
						"type": "t_bytes_storage"
					},
					{
						"astId": 19,
						"contract": "contracts/stateVariable.sol:StateVariables",
						"label": "myNuber",
						"offset": 0,
						"slot": "6",
						"type": "t_array(t_uint256)dyn_storage"
					}
				],
				"types": {
					"t_array(t_uint256)dyn_storage": {
						"base": "t_uint256",
						"encoding": "dynamic_array",
						"label": "uint256[]",
						"numberOfBytes": "32"
					},
					"t_bytes_storage": {
						"encoding": "bytes",
						"label": "bytes",
						"numberOfBytes": "32"
					},
					"t_string_storage": {
						"encoding": "bytes",
						"label": "string",
						"numberOfBytes": "32"
					},
					"t_uint256": {
						"encoding": "inplace",
						"label": "uint256",
						"numberOfBytes": "32"
					}
				}
			},
			"userdoc": {
				"kind": "user",
				"methods": {},
				"version": 1
			}
		}
	}
}